:1000000000000020F504000009B800000FB800004F
:1000100015B800001BB8000021B800000000000067
:100020000000000000000000000000006505000066
:1000300027B80000000000000B0600006B0600005F
:10004000F9AF000007B0000015B0000023B00000B9
:1000500031B000003FB000004DB000005BB00000C8
:1000600069B0000077B0000085B0000093B00000D8
:10007000A1B00000AFB00000BDB00000CBB00000E8
:10008000D9B000002DB8000033B8000039B8000026
:100090003FB8000045B800004BB8000051B8000060
:1000A00057B800005DB8000063B8000069B80000F0
:1000B0006FB8000075B800007BB80000E7B0000022
:1000C00081B80000F5B0000087B8000003B100005F
:1000D0008DB8000011B1000093B8000099B800007D
:1000E0009FB80000A5B80000ABB80000B1B8000090
:1000F000B7B80000BDB80000C3B80000C9B8000020
:1001000005050000050500000505000005050000C7
:10011000CFB80000D5B80000DBB80000E1B800009F
:10012000E7B80000EDB80000F3B80000F9B800002F
:10013000FFB8000005B900000BB9000011B90000BC
:1001400017B900001DB900001FB1000023B900005D
:100150002DB1000029B900002FB9000035B9000009
:100160003BB9000041B9000047B900004DB900009B
:1001700053B9000059B900005FB9000065B900002B
:100180006BB900000505000005050000050500002D
:100190000505000005050000050500000505000037
:1001A0000505000005050000050500000505000027
:1001B0000505000005050000050500000505000017
:1001C0000505000005050000050500000505000007
:1003F000050500000505000005050000FFFFFFFFE3
:10040000FFFFFFFFFFFFFFFFFFFFFFFFFEFFFFFFFD
:1004400010B5054C237833B9044B13B10448AFF30E
:1004500000800123237010BDB811002000000000AF
:10046000005D010008B5034B1BB103490348AFF31E
:10047000008008BD00000000BC110020005D0100EC
:10048000154B002B08BF134B9D46A3F5803A002166
:100490008B460F461348144A121A11F0B5FF0F4B42
:1004A000002B00D098470E4B002B00D0984700201F
:1004B000002104000D000D48002802D00C4811F066
:1004C00081FC11F0C9FC200029000AF071FD11F037
:1004D00085FC00BF000008000000002000000000B4
:1004E000E1AC0000B8110020A4500020C51D01009F
:1004F000FD1D010072B60BF081FE0BF019FE62B615
:10050000FFF7BEFFFFF7FEBF80F309887047EFF3E8
:1005100009807047684680F309885A480078C00708
:1005200014BF0220032080F314887047DFF858C1FD
:10053000EFF305831B0618BF6047EFF31483DB0757
:1005400008BF604700DF7047DFF840C1EFF3058365
:100550001B0618BF6047EFF31483DB0708BF604733
:1005600000DF7047EFF30980816911F8021CE1BBDD
:1005700090E80F1010B5E047BDE81040EFF3098C8C
:100580008CE80700424B93E80600914208BF704791
:1005900041B91EF0100F16D13E49086820F0010045
:1005A000086010E01EF0100F06BF2CED108A01202D
:1005B000002081F825002CE9F00FC1F828C00CB408
:1005C0000DF0FAF90CBC1A60D2F828C0BCE8F00FA4
:1005D00092F8250000280EBF6FF0020E6FF0120E89
:1005E000BCEC108A8CF30988704710B52A4A12684F
:1005F000914209D8294C54F8214090E80F10A047A7
:10060000EFF3098C8CE80F0010BD10B50DF058F910
:10061000BDE810401E4B93E80600914208BF7047AA
:10062000EFF3098C1EF0100F06BF2CED108A01208D
:10063000002081F825002CE9F00FC1F828C00CB487
:100640000DF0BAF90CBC1A60D2F828C0BCE8F00F63
:1006500092F8250000280EBF6FF0020E6FF0120E08
:10066000BCEC108A8CF30988704710B50DF086F940
:10067000FFF7CEBF10B50DF07FF90DF07FF9FFF752
:10068000C7BF00006C4A010045D2000061D20000E3
:100690004050002034EF00E000000000FCFFFFFFAE
:1006A00081F0004102E000BF83F0004330B54FEA23
:1006B00041044FEA430594EA050F08BF90EA020F90
:1006C0001FBF54EA000C55EA020C7FEA645C7FEA23
:1006D000655C00F0E2804FEA5454D4EB5555B8BF46
:1006E0006D420CDD2C4480EA020281EA030382EAB7
:1006F000000083EA010180EA020281EA0303362D49
:1007000088BF30BD11F0004F4FEA01314FF4801C1B
:100710004CEA113102D0404261EB410113F0004F2D
:100720004FEA03334CEA133302D0524263EB4303E4
:1007300094EA050F00F0A780A4F10104D5F1200E82
:100740000DDB02FA0EFC22FA05F2801841F10001DD
:1007500003FA0EF2801843FA05F359410EE0A5F1B1
:1007600020050EF1200E012A03FA0EFC28BF4CF0E2
:10077000020C43FA05F3C01851EBE37101F0004598
:1007800007D54FF0000EDCF1000C7EEB00006EEBA5
:100790000101B1F5801F1BD3B1F5001F0CD349082F
:1007A0005FEA30004FEA3C0C04F101044FEA445286
:1007B00012F5800F80F09A80BCF1004F08BF5FEA0D
:1007C000500C50F1000041EB045141EA050130BDED
:1007D0005FEA4C0C404141EB010111F4801FA4F190
:1007E0000104E9D191F0000F04BF01460020B1FAE5
:1007F00081F308BF2033A3F10B03B3F120020CDA1D
:100800000C3208DD02F1140CC2F10C0201FA0CF0FA
:1008100021FA02F10CE002F11402D8BFC2F1200C5F
:1008200001FA02F120FA0CFCDCBF41EA0C01904015
:10083000E41AA2BF01EB0451294330BD6FEA04045E
:100840001F3C1CDA0C340EDC04F11404C4F1200249
:1008500020FA04F001FA02F340EA030021FA04F35B
:1008600045EA030130BDC4F10C04C4F1200220FAB2
:1008700002F001FA04F340EA0300294630BD21FAF0
:1008800004F0294630BD94F0000F83F4801306BFB6
:1008900081F480110134013D4EE77FEA645C18BFAA
:1008A0007FEA655C29D094EA050F08BF90EA020F41
:1008B00005D054EA000C04BF1946104630BD91EA39
:1008C000030F1EBF0021002030BD5FEA545C05D13C
:1008D0004000494128BF41F0004130BD14F580047B
:1008E0003CBF01F5801130BD01F0004545F0FE41EF
:1008F00041F470014FF0000030BD7FEA645C1ABF24
:10090000194610467FEA655C1CBF0B46024650EA5A
:10091000013406BF52EA033591EA030F41F4002186
:1009200030BD00BF90F0000F04BF0021704730B50C
:100930004FF4806404F132044FF000054FF00001E1
:1009400050E700BF90F0000F04BF0021704730B5A2
:100950004FF4806404F1320410F0004548BF404277
:100960004FF000013EE700BF42004FEAE2014FEACC
:1009700031014FEA02701FBF12F07F4393F07F4FA7
:1009800081F06051704732F07F4208BF704793F0AA
:100990007F4F04BF41F40021704730B54FF46074BD
:1009A00001F0004521F000411CE700BF50EA0102C0
:1009B00008BF704730B54FF000050AE050EA010269
:1009C00008BF704730B511F0004502D5404261EBD9
:1009D00041014FF4806404F132045FEA915C3FF41A
:1009E000D8AE4FF003025FEADC0C18BF03325FEAB7
:1009F000DC0C18BF033202EBDC02C2F1200300FA68
:100A000003FC20FA02F001FA03FE40EA0E0021FA8C
:100A100002F11444BDE600BF70B54FF0FF0C4CF47A
:100A2000E06C1CEA11541DBF1CEA135594EA0C0F2C
:100A300095EA0C0F00F0DEF82C4481EA030621EA67
:100A40004C5123EA4C5350EA013518BF52EA0335A2
:100A500041F4801143F4801338D0A0FB02CE4FF054
:100A60000005E1FB02E506F00042E0FB03E54FF084
:100A70000006E1FB03569CF0000F18BF4EF0010E7C
:100A8000A4F1FF04B6F5007F64F5407404D25FEA78
:100A90004E0E6D4146EB060642EAC62141EA55512B
:100AA0004FEAC52040EA5E504FEACE2EB4F1FD0C6D
:100AB00088BFBCF5E06F1ED8BEF1004F08BF5FEAEB
:100AC000500E50F1000041EB045170BD06F000469D
:100AD00046EA010140EA020081EA0301B4EB5C044A
:100AE000C2BFD4EB0C0541EA045170BD41F4801142
:100AF0004FF0000E013C00F3AB8014F1360FDEBF67
:100B0000002001F0004170BDC4F10004203C35DA42
:100B10000C341BDC04F11404C4F1200500FA05F3C5
:100B200020FA04F001FA05F240EA020001F0004266
:100B300021F0004110EBD37021FA04F642EB0601DC
:100B40005EEA430E08BF20EAD37070BDC4F10C0406
:100B5000C4F1200500FA04F320FA05F001FA04F2CA
:100B600040EA020001F0004110EBD37041F10001B6
:100B70005EEA430E08BF20EAD37070BDC4F12005C1
:100B800000FA05F24EEA020E20FA04F301FA05F229
:100B900043EA020321FA04F001F0004121FA04F2D1
:100BA00020EA020000EBD3705EEA430E08BF20EAA1
:100BB000D37070BD94F0000F0FD101F000464000DB
:100BC00041EB010111F4801F08BF013CF7D041EA5D
:100BD000060195F0000F18BF704703F00046520061
:100BE00043EB030313F4801F08BF013DF7D043EA32
:100BF0000603704794EA0C0F0CEA135518BF95EAE8
:100C00000C0F0CD050EA410618BF52EA4306D1D16E
:100C100081EA030101F000414FF0000070BD50EA8D
:100C2000410606BF1046194652EA430619D094EA17
:100C30000C0F02D150EA013613D195EA0C0F05D101
:100C400052EA03361CBF104619460AD181EA030155
:100C500001F0004141F0FE4141F470014FF000000D
:100C600070BD41F0FE4141F4780170BD70B54FF0A8
:100C7000FF0C4CF4E06C1CEA11541DBF1CEA135528
:100C800094EA0C0F95EA0C0F00F0A7F8A4EB05040A
:100C900081EA030E52EA03354FEA013100F0888001
:100CA0004FEA03334FF0805545EA131343EA1263CA
:100CB0004FEA022245EA111545EA10654FEA00267F
:100CC0000EF000419D4208BF964244F1FD0404F538
:100CD000407402D25B084FEA3202B61A65EB030594
:100CE0005B084FEA32024FF480104FF4002CB6EB51
:100CF000020E75EB030E22BFB61A754640EA0C00D1
:100D00005B084FEA3202B6EB020E75EB030E22BF10
:100D1000B61A754640EA5C005B084FEA3202B6EB51
:100D2000020E75EB030E22BFB61A754640EA9C0010
:100D30005B084FEA3202B6EB020E75EB030E22BFE0
:100D4000B61A754640EADC0055EA060E18D04FEA9E
:100D5000051545EA16754FEA06164FEAC30343EA3E
:100D600052734FEAC2025FEA1C1CC0D111F4801F0B
:100D70000BD141EA00014FF000004FF0004CB6E704
:100D800011F4801F04BF01430020B4F1FD0C88BFA3
:100D9000BCF5E06F3FF6AFAEB5EB030C04BFB6EBAE
:100DA000020C5FEA500C50F1000041EB045170BDA1
:100DB0000EF0004E4EEA113114EB5C04C2BFD4EBCE
:100DC0000C0541EA045170BD41F480114FF0000E52
:100DD000013C90E645EA060E8DE60CEA135594EACE
:100DE0000C0F08BF95EA0C0F3FF43BAF94EA0C0FD1
:100DF0000AD150EA01347FF434AF95EA0C0F7FF446
:100E000025AF104619462CE795EA0C0F06D152EA99
:100E100003353FF4FDAE1046194622E750EA41067D
:100E200018BF52EA43067FF4C5AE50EA41047FF48E
:100E30000DAF52EA43057FF4EBAE12E74FF0FF3CF3
:100E400006E000BF4FF0010C02E000BF4FF0010CC4
:100E50004DF804CD4FEA410C7FEA6C5C4FEA430C3D
:100E600018BF7FEA6C5C1BD001B050EA410C0CBF8C
:100E700052EA430C91EA030F02BF90EA020F0020EE
:100E8000704710F1000F91EA030F58BF994208BF55
:100E900090422CBFD8176FEAE37040F00100704712
:100EA0004FEA410C7FEA6C5C02D150EA013C07D169
:100EB0004FEA430C7FEA6C5CD6D152EA033CD3D0B4
:100EC0005DF8040B704700BF8446104662468C46AE
:100ED0001946634600E000BF01B5FFF7B7FF0028E1
:100EE00048BF10F1000F01BD4DF808EDFFF7F4FF0A
:100EF0000CBF012000205DF808FB00BF4DF808ED95
:100F0000FFF7EAFF34BF012000205DF808FB00BFB7
:100F10004DF808EDFFF7E0FF94BF012000205DF8D9
:100F200008FB00BF4DF808EDFFF7CEFF94BF01208E
:100F300000205DF808FB00BF4DF808EDFFF7C4FF87
:100F400034BF012000205DF808FB00BF4FEA410CD0
:100F50007FEA6C5C02D150EA013C0AD14FEA430CB3
:100F60007FEA6C5C02D152EA033C02D14FF00000F0
:100F700070474FF0010070474FEA410212F500122E
:100F800015D211D56FF47873B3EB625212D94FEAD0
:100F9000C12343F0004343EA505311F0004F23FABA
:100FA00002F018BF404270474FF00000704750EA0F
:100FB000013005D111F0004008BF6FF000407047CC
:100FC0004FF00000704700BF4A0011D212F5001226
:100FD00011D20DD56FF47873B3EB62520ED44FEA91
:100FE000C12343F0004343EA505323FA02F0704711
:100FF0004FF00000704750EA013002D14FF0FF304F
:1010000070474FF0000070474FEA4102B2F1E043F1
:1010100024BFB3F5001CDCF1FE5C0DD901F0004CDF
:101020004FEAC0024CEA5070B2F1004F40EB83002F
:1010300008BF20F00100704711F0804F21D113F15B
:101040003872BCBF01F00040704741F480114FEA94
:101050005252C2F11802C2F1200C10FA0CF320FA1D
:1010600002F018BF40F001004FEAC1234FEAD3233A
:1010700003FA0CFC40EA0C0023FA02F34FEA4303A4
:10108000CCE77FEA625307D150EA01331EBF4FF02D
:10109000FE4040F44000704701F0004040F0FE4048
:1010A00040F40000704700BF53B94AB9002908BF97
:1010B00000281CBF4FF0FF314FF0FF3001F0F8B8AF
:1010C000ADF1080C6DE904CE00F006F8DDF804E09F
:1010D000DDE9022304B070472DE9F047089E04467D
:1010E0008846002B4BD18A42154667D9B2FA82F264
:1010F0004AB1C2F1200701FA02F320FA07F795403E
:1011000047EA030894404FEA154E230CB8FBFEF75C
:101110001FFA85FC0EFB178843EA084307FB0CF116
:10112000994209D9EB1807F1FF3080F01B819942F1
:1011300040F21881023F2B445B1AA4B2B3FBFEF0CD
:101140000EFB103344EA034400FB0CFCA44509D910
:101150002C1900F1FF3380F00781A44540F204818F
:1011600002382C4440EA0740A4EB0C0400271EB1CF
:10117000D4400023C6E900433946BDE8F0878B42DE
:1011800009D9002E00F0EB800027C6E9000138469F
:101190003946BDE8F087B3FA83F7002F47D18B4279
:1011A00002D3824200F2FA80841A61EB0303012029
:1011B0009846002EE0D0C6E90048DDE702B9FFDE20
:1011C000B2FA82F2002A40F08F80491B4FEA154E96
:1011D0001FFA85F80127B1FBFEFC230C0EFB1C1146
:1011E00043EA014308FB0CF1994207D9EB180CF1D3
:1011F000FF3002D2994200F2CD808446591AA3B240
:10120000B1FBFEF00EFB101443EA044408FB00F8A7
:10121000A04507D92C1900F1FF3302D2A04500F2F6
:10122000B6801846A4EB080440EA0C409FE7C7F1DB
:10123000200CBB4022FA0CFE4EEA030E01FA07F422
:1012400020FA0CF521FA0CF34FEA1E482543B3FBB4
:10125000F8F92C0C08FB19331FFA8EFA44EA034301
:1012600009FB0AF49C4202FA07F200FA07F10BD9D3
:101270001EEB030309F1FF3080F087809C4240F2AF
:101280008480A9F1020973441B1BADB2B3FBF8F0D3
:1012900008FB103345EA034400FB0AFAA24508D9CB
:1012A0001EEB040400F1FF336BD2A24569D902386A
:1012B000744440EA0940A0FB0289A4EB0A044C45AF
:1012C000C2464B4654D351D0002E69D0B1EB0A052B
:1012D00064EB030404FA0CFCFD40FC404CEA0505F9
:1012E000C6E90054002747E7C2F1200320FA03F7BC
:1012F000954001FA02F021FA03F34FEA154E384304
:10130000010CB3FBFEF71FFA85F80EFB173341EA19
:10131000034107FB08F38B4204FA02F407D969186A
:1013200007F1FF3C2FD28B422DD9023F2944CB1A23
:1013300081B2B3FBFEF00EFB103341EA034100FB28
:1013400008F38B4207D9691800F1FF3C17D28B4292
:1013500015D902382944C91A40EA07473BE73746FE
:10136000304609E70746E7E61846FBE64145ABD2BB
:10137000B8EB020A69EB0E0201381346A4E7604697
:10138000E9E7184695E76746D1E781467CE70238EA
:101390002C4447E7ACF1020C2B442FE7384608E712
:1013A0003746E9E603685A004CBF43F0004323F098
:1013B00000431844704700BF61B32DE9F84F01F1B5
:1013C000FF3A90460646D146002707EB090404EB96
:1013D000D4746410E50071190846FFF7E3FFA245D5
:1013E000834605F10800304409D0FFF7DBFFC34511
:1013F00000F1FF3005D8404509D2671CE5E7C34539
:1014000005D9A74202D004F1FF39DEE700210846E2
:10141000BDE8F88F08467047012807D0022807D09A
:10142000044B00280CBF1846002070470248704744
:1014300002487047051B0000091B00000D1B00003F
:1014400030B5254B83B004468D1E4BB301A9284609
:10145000AFF30080F0B101992A46FFF7ADFF0146D6
:10146000C0B1FFF79FFF4B68A064012B2ED0002B6B
:1014700001F1040026DBFFF795FF0023C4E9130305
:101480000368002B12DBFFF78DFF00232061184655
:1014900003B030BD002323610923184603B030BDDB
:1014A0000E490F48091AC9100191D5E7C3F303602B
:1014B000FFF7B2FF002814BF00230923206118465C
:1014C00003B030BD0123C4E91303D9E7002323612E
:1014D0000523184603B030BD00000000DC650100A4
:1014E0006C6101000368DA0710B5044606D49B0757
:1014F00000F1480009D500F05FFC2368590709D5C1
:101500001A070ED5DB0613D510BD00F04DFC23687D
:101510005907F5D404F1D00000F056FC23681A07EF
:10152000F0D404F5A87000F057FC2368DB06EBD478
:1015300004F5E870BDE8104000F092BC036803B108
:1015400003441846704700BF09207047704700BF2A
:1015500070B504460D4608E02B6C63612A4623698A
:10156000214601209847082808D1296C2046FFF71A
:1015700067FF06460028EFD010F0FEFB0728FBD1DE
:101580003046296CFFF7E2FF281D00F001FC00BF88
:101590002DE9F0470C1D054617460FCCADF5727DC1
:1015A00003AE0FC60FCC0FC60FCC0FC694E80F00CA
:1015B00002ACD5F80C80D5F8189086E80F0000230F
:1015C000236021E0236C6B614FF4F07221467AA80E
:1015D00000F070FE2B697AAA294630469847889B0E
:1015E000CDE900498246636431462B462A460120F4
:1015F000C0470746F8B94FF4F0727AA9204600F0C8
:1016000059FEBAF1080F1CD1216C2846FFF718FFCC
:10161000002F08BF0926074618BF0A260028D1D088
:10162000A36B46F01001CDE900492A46636401200E
:101630002B46C04700B1092738460DF5727DBDE83D
:10164000F087BAF1070FF6D13846216CFFF77EFF1D
:1016500003A800F09DFB00BF406C7047F0B5CB6B5A
:101660000B640D1D0F4606460FCDF9B001AC0FC43B
:101670000FCD0FC40FCD0FC495E80F004FF0FF350D
:1016800084E80F00009506E033696A4631469847C2
:101690000828044608D110993046FFF7D1FE0028EB
:1016A000F2D0092079B0F0BD6846FFF71BFF062C89
:1016B000F7D139463046FFF74BFF00BF30B4DD6B42
:1016C000C160826119461D64002230BC60E700BF22
:1016D00070B5C66843690B64BEB903690A4604461F
:1016E0000D46014602209847072807D0082803D155
:1016F00029462046FFF72CFF10F03EFB3046296CB0
:10170000FFF724FF281D00F043FB0122FFF740FFF5
:1017100010F032FBC2681AB1CA6B0A64002237E7C4
:101720009CE700BF704700BF836813B101460120EA
:1017300018477047042907D8DFE801F003080608B6
:1017400008000BB90F2A03D9022070470120704707
:1017500000EB820218465368009A1360704700BF7E
:1017600010B584B0002303AC0A4600941946FFF775
:10177000E1FF039804B010BD042907D8DFE801F0A9
:101780000308060808000BB90F2A03D90220704786
:101790000120704700EB8200009A126842601846F0
:1017A000704700BF10B584B004AC002344F8042D8A
:1017B0000A4600941946FFF7DFFF04B010BD00BFD2
:1017C000F0B5D36B1364151D07460E460FCDADF56E
:1017D0000F7D17AC0FC40FCD0FC40FCD0FC495E80C
:1017E0000F004FF0FF3584E80F00169510E016A8A3
:1017F000FFF7D8FF314616A8B84716AA694678B948
:10180000049B08209847052804460AD0092807D0D9
:1018100026996846FFF714FE6A460C210028E6D098
:10182000092416A8FFF75EFE20460DF50F7DF0BDDA
:101830002DE9F04F0D46C96C89B00C1D164600F01D
:10184000030B0A6806941F46002B68D0130CD9B20C
:1018500012048DF81D30022304EB810405928DF8EB
:101860001C302B6DBBF1020F08BFAC6B13F00103F2
:1018700046D1019300F008030093D4F80090B9F129
:10188000000F00F0F380022F45D0B4F80090B4F8B8
:1018900002800434AB6C28F0010A0F2130469A44D0
:1018A000FFF75EFF824534D829F001035344834299
:1018B00094BF002001204FEA480808F0020809F010
:1018C000010948EA0908B8F1010F3AD031D3B8F15B
:1018D000020F1AD1236823F0004ABBF1000F66D132
:1018E00030B1009A002A6CD0BAF1000F00F090805D
:1018F000002B00DA04340AF1010304EB8304BCE793
:10190000304605A900F046FB78B1092009B0BDE8D2
:10191000F08F0020CFE7D4F804800834BAE7120231
:1019200003230592ADF81C309BE7082009B0BDE801
:10193000F08FBBF1000F02D0002840F0B4800434D7
:101940009BE7BBF1000F18D1A8B1D4E90023991C83
:101950004FEAD272D9D005F158010133049100F059
:10196000B580201DFFF7EAFD04AB01462846AFF322
:101970000080002867D108347FE70D213046D5F874
:101980002080FFF7EDFE8045F5D1AB6A9C42F2D195
:101990002046FFF707FD0F2102463046FFF702FF02
:1019A00030462A460021FFF7FDFE0720AEE70D2155
:1019B0003046D5F82080FFF7D3FE804532D023682B
:1019C00096E7BAF1000F23D005F1580304F104089B
:1019D000CDF808B0DDF800900397A3461C4602E05E
:1019E0005745B94640D040460494FFF7A7FD04ABE5
:1019F000014600222846AFF3008009F1010708F1F3
:101A000004080028ECD0D1455C46DDE902B7D6D108
:101A100030460D21FFF7A4FE049B2862C5E9093476
:101A2000062073E7AB6A9C42C9D104224FF000083C
:101A3000A318C5E90AA8C5E90C23236843454DDB73
:101A40000123019357E780460D213046FFF788FEBA
:101A5000B8F1020F28623ED12B46049A43F82C2F8E
:101A60006B62AC62062051E75C46D1E705A93046BF
:101A700000F090FA00287FF448AF019B002B3FF460
:101A800054AF0F213046FFF76BFE0E210246304661
:101A9000FFF788FE30461A4A0F21FFF783FE072022
:101AA00009B0BDE8F08F2046FFF77CFC0434074600
:101AB000AC632846AFF3008000283FF426AF3046E1
:101AC0003A460F21FFF76EFE07201FE730460D2133
:101AD000FFF746FE2862049B6B62C2E70AF1010031
:101AE00004EB8000FFF75EFC0F2102463046FFF753
:101AF00059FE30462A464146FFF754FE072005E7C7
:101B000000000000002393E6012391E602238FE604
:101B10002DE9F0410546C4B0042906D8DFE801F0FC
:101B20004D2B05030900032B5FD0022044B0BDE814
:101B3000F081002BF9D1102AF7D82B68DC0600F1D0
:101B4000F48022AC2046019200F094F9A86B019A2F
:101B50000023012606FA03F1114203D0016844F87C
:101B6000231004300133042BF4D1A863204600F085
:101B700077F90020DAE7012B4FEA124697B252D0EC
:101B8000052BD2D106EB0708B8F1200FCDD80F2EC8
:101B900040F29980B846002F40F0DB80AA6BAA6320
:101BA0000F2E40F2BE80B8F1000F02D002A800F064
:101BB0000BF9002044B0BDE8F081002BB5D1AC6B2F
:101BC00097B2281D012606FA03F1394203F10103F9
:101BD00002D0216801600434102B00F10400F2D11E
:101BE00012F40050E5D1AC63A0E7160C97B2F319DC
:101BF000102B9AD82B681A075DD422AC204600F02F
:101C00000DF904EBC601AB6B3FB103EBC7021868DB
:101C100041F8040B04339342F9D12046AB6300F042
:101C2000DBF8002082E7F219102A3FF67EAF0F2E74
:101C30003FF67BAF2A68D10708D5284622F0030279
:101C400040F8482B019300F0B3F8019B019322ACBC
:101C5000204600F0ADF8A96B019B002F00F09580A5
:101C60007F0004EBC6044FF00008043C01EB870240
:101C700051F8040B44F8040F9142F9D1B8F1000F68
:101C80000FD002AC102E314638BF102104EBC10139
:101C9000843902EBC80452F8040B41F8040F944253
:101CA000F9D1012B7FF47BAF22AC0432AA6320462A
:101CB00000F07AF87DE723F008032B6005F5A870A3
:101CC00000F0ACF899E7B8F1100F2A6843D9D007B3
:101CD000A8F110080BD5284622F0010242F00202BA
:101CE00040F8482B019300F06BF82A68019B5107DC
:101CF00025D40F2E04D822A8019300F061F8019B8F
:101D0000019302AC204600F063F8C6F110010029EF
:101D1000AA6B019BB6DD22AC4F0004EBC604114652
:101D2000A3E722A800F048F83DE723F010032B605A
:101D300005F5E870019200F09DF8019A01E7284648
:101D400022F0040240F8D02B019300F041F8019BEF
:101D5000CFE72A68CBE7D0070AD5284622F0010250
:101D600042F0020240F8482B019300F029F8019B51
:101D7000019322AC204600F023F8B846A96B019BE2
:101D8000002F7FF46DAF0A4609E70A468DE700BFD2
:101D900000F1340191E838009C46A6464CF8045DF9
:101DA00090E8FF0FE54600BD90EC210B704700BFA7
:101DB00080EC210B704700BF90EC200B704700BFF8
:101DC00080EC200B704700BFD0EC200B704700BFA9
:101DD000C0EC200B704700BFF0EC0201F0EC0211E8
:101DE000F0EC0221F0EC0231F0EC0241F0EC025197
:101DF000F0EC0261F0EC0271F0EC0281F0EC029187
:101E0000F0EC02A1F0EC02B1F0EC02C1F0EC02D176
:101E1000F0EC02E1F0EC02F1704700BFE0EC0201EF
:101E2000E0EC0211E0EC0221E0EC0231E0EC0241D6
:101E3000E0EC0251E0EC0261E0EC0271E0EC0281C6
:101E4000E0EC0291E0EC02A1E0EC02B1E0EC02C1B6
:101E5000E0EC02D1E0EC02E1E0EC02F1704700BFFF
:101E6000B0FC0181B0FC0191B0FC01A1B0FC01B15A
:101E7000704700BFA0FC0181A0FC0191A0FC01A162
:101E8000A0FC01B1704700BFEC4600B52DE9005041
:101E90002DE9FF1F4FF000032DE90C0001A9FFF70A
:101EA000DDFBDDF840E012B0704700BFEC4600B546
:101EB0002DE900502DE9FF1F4FF000032DE90C0024
:101EC00001A9FFF705FCDDF840E012B0704700BF44
:101ED000EC4600B52DE900502DE9FF1F4FF000033F
:101EE0002DE90C0001A9FFF715FCDDF840E012B068
:101EF000704700BFEC4600B52DE900502DE9FF1FEB
:101F00004FF000032DE90C0001ABFFF7D7FBDDF824
:101F100040E012B0704700BFEC4600B52DE900501C
:101F20002DE9FF1F4FF000032DE90C0001AAFFF778
:101F300047FCDDF840E012B0704700BF027A82B97A
:101F4000437AABB14268013B10B44372136803217A
:101F5000141D01721A02446002605DF8044B180EF1
:101F600070470368013A02721A020260180E704745
:101F7000B020704700B585B003AA0023009219462F
:101F80000C22FFF7D7FB039805B05DF804FB00BFF8
:101F9000F0E700BF2DE9F043054685B00E464FF04F
:101FA00000083046FFF7CAFFB028044600F0B180B1
:101FB000070620D500F0F003802B65D0902B36D09B
:101FC000A02B78D0B02B47D0C02B00F08A8000F037
:101FD000F803D02B0BD100F00702013242F40022AB
:101FE000052301212846FFF793FD0028D9D00920B9
:101FF00005B0BDE8F0830DF10C09002319468700F8
:10200000CDF800900D222846FFF794FBFFB2039B0A
:10201000CDF80090043760064CBFDF1BFF1800238B
:1020200019460D2228460397FFF7A6FBB9E700F0F3
:102030000D030D2BDBD003AF002300F00F02194678
:1020400000972846FFF776FB0023009719460D22DC
:102050002846FFF791FBA4E7B1285FD0B22800F033
:10206000CC80B3287ED000F0FC03B42BBFD000F0AE
:1020700007020132012342F4002219462846FFF7E5
:1020800047FD00288DD0B2E73046FFF757FF240206
:102090000443B4F5004FAAD024010023A2B219468C
:1020A0002846FFF735FD0028A1D114F4004F18BFD2
:1020B0004FF0010875E7C24302F007034FF47F6257
:1020C0001A41010702F47F624FF0000348BF42F457
:1020D000804219462846FFF71BFD00283FF461AFF8
:1020E00085E7C62851D0C7285AD000F0F803C02B86
:1020F00069D0C82875D0C9287FF479AF3046FFF77A
:102100001DFF020300F00F0002F4702201300243B1
:1021100066E7B8F1000F14D0002069E73046FFF7FA
:102120000DFF00283FF463AF10F0F0037FF45FAFC2
:10213000024619462846FFF7EBFC00283FF431AF72
:1021400055E703AC43460E22414600942846FFF76C
:10215000F1FA0094284643460F224146FFF70CFB54
:10216000404645E73046FFF7E9FE010300F00F0067
:1021700001F47021421C01230A4328461946FFF747
:10218000C7FC00283FF40DAF31E73046FFF7D6FE1D
:10219000010300F00F0001F47021421C0323EBE760
:1021A0003046FFF7CBFE024600283FF420AF10F088
:1021B000F0037FF41CAF04212846FFF7A9FC002898
:1021C0003FF4EFAE13E700F00F020132032342F4B5
:1021D000202219462846FFF79BFC00283FF4E1AE79
:1021E00005E73046FFF7AAFE00F0F00200F00F030B
:1021F0001032013343EA0232F2E600230DF10C09FA
:102200000D221946CDF800902846FFF793FA304684
:10221000FFF794FE02064FF002070CD5039B00F077
:102220007F00B840034430460393FFF787FE030660
:1022300007F10707F2D4039BCDF8009000F07F046C
:1022400003F50172BC400023144419460D222846B0
:102250000394FFF791FAA4E610B5C36C84B05A68F2
:1022600003208DF80C00DC798DF80D401202083344
:10227000084601A901920293FFF78CFE04B010BD3D
:1022800008B5FFF785FE806C08BD00BF08B5FFF7F5
:102290007FFEC06CC37900EB8300083008BD00BF2F
:1022A00008B50FF069FD00BF08B5FFF7F9FF00BFE3
:1022B000704700BF844641EA000313F003036DD169
:1022C000403A41D351F8043B40F8043B51F8043BF9
:1022D00040F8043B51F8043B40F8043B51F8043B00
:1022E00040F8043B51F8043B40F8043B51F8043BF0
:1022F00040F8043B51F8043B40F8043B51F8043BE0
:1023000040F8043B51F8043B40F8043B51F8043BCF
:1023100040F8043B51F8043B40F8043B51F8043BBF
:1023200040F8043B51F8043B40F8043B51F8043BAF
:1023300040F8043B51F8043B40F8043B51F8043B9F
:1023400040F8043B403ABDD2303211D351F8043B3F
:1023500040F8043B51F8043B40F8043B51F8043B7F
:1023600040F8043B51F8043B40F8043B103AEDD2EE
:102370000C3205D351F8043B40F8043B043AF9D23F
:10238000043208D0D2071CBF11F8013B00F8013B12
:1023900001D30B8803806046704700BF082A13D31F
:1023A0008B078DD010F003038AD0C3F10403D21A37
:1023B000DB071CBF11F8013B00F8013B80D331F86B
:1023C000023B20F8023B7BE7043AD9D3013A11F8EB
:1023D000013B00F8013BF9D20B7803704B78437056
:1023E0008B7883706046704700000000000000009A
:1023F00001F0FF01102A2BDB10F0070F08D010F8B6
:10240000013B013A8B422DD010F0070F42B3F6D1B9
:10241000F0B441EA012141EA014122F007047FF0D2
:1024200000070023F0E80256083C85EA010586EA29
:10243000010685FA47F5A3FA87F586FA47F6A5FA65
:1024400087F68EB9EED1F0BC01F0FF0102F0070271
:1024500032B110F8013B013A83EA010313B1F8D11C
:102460000020704701387047002D06BF35460338FD
:10247000073815F0010F07D1013015F4807F02BF36
:10248000013015F4C03F0130F0BC0138704700BF87
:10249000000000000000000000000000000000003C
:1024A000000000000000000000000000000000002C
:1024B000000000000000000000000000000000001C
:1024C00090F800F06DE9024520F007016FF0000C74
:1024D00010F0070491F820F040F049804FF000041C
:1024E0006FF00700D1E9002391F840F000F10800F7
:1024F00082FA4CF2A4FA8CF283FA4CF3A2FA8CF32F
:102500004BBBD1E9022382FA4CF200F10800A4FA95
:102510008CF283FA4CF3A2FA8CF3E3B9D1E90423E9
:1025200082FA4CF200F10800A4FA8CF283FA4CF320
:10253000A2FA8CF37BB9D1E9062301F1200182FADA
:102540004CF200F10800A4FA8CF283FA4CF3A2FAE0
:102550008CF3002BC6D0002A04BF04301A4612BAEE
:10256000B2FA82F2FDE8024500EBD2007047D1E9F1
:10257000002304F00305C4F100004FEAC50514F080
:10258000040F91F840F00CFA05F562EA05021CBF51
:1025900063EA050362464FF00004A9E790B589B0ED
:1025A00000AFF860B9607A604FF000034FF00004AC
:1025B000C7E906347B683B6100237B6120E07B69CF
:1025C0009B00FA6813441B681846FEF7ABF90346F4
:1025D0000C46386944EC103B0EF0B2F854EC103B5A
:1025E0001A462346D7E90601FEF760F803460C4673
:1025F000C7E906343B6920333B617B6901337B616A
:102600007A69BB689A42DADBD7E9063444EC173BB7
:10261000B0EE470AF0EE670A2437BD4690BD80B49D
:1026200091B000AFF860B9607A603B6000237B63D3
:1026300008E07B6B9B00BA6C134400221A607B6B32
:1026400001337B637A6BFB6C9A42F2DB0023FB6302
:10265000A8E000233B63FB6B9B00FA6813441B68F4
:10266000FB62FB6A1B0CBB62FB6A9BB27B62FA6C6F
:10267000FB6BD31A3B623A6A3B689342A8BF13468E
:102680003B62FB6B7B630023BB637AE0BB6B9B000D
:102690007A6813441B68FB62FB6A1B0CFB61FB6AD4
:1026A0009BB2FB62BB6AFA6A02FB03F3BB617B6A03
:1026B000FA6902FB03F37B617B6B9B00BA6C1344EA
:1026C0001B683A6B13443B613A693B6B9A4234BFD7
:1026D00001230023DBB23B63FB6A7A6A02FB03F34C
:1026E000FB623A69FB6A13443B613A69FB6A9A42AE
:1026F00034BF01230023DBB21A463B6B13443B6318
:10270000BB691B04FB623A69FB6A13443B613A698B
:10271000FB6A9A4234BF01230023DBB21A463B6BAB
:1027200013443B637B691B04FB623A69FB6A1344F5
:102730003B613A69FB6A9A4234BF01230023DBB252
:102740001A463B6B13443B637B6B9B00BA6C134490
:102750003A691A60BB691B0C3A6B13443B637B6993
:102760001B0C3A6B13443B63BB6AFA6902FB03F32D
:102770003A6B13443B637B6B01337B63BB6B01336D
:10278000BB63BA6B3B6A9A4280DB7A6BFB6C9A4202
:1027900005DA7B6B9B00BA6C13443A6B1A60FB6BD7
:1027A0000133FB63FA6BBB689A42FFF652AF00BF7E
:1027B0004437BD465DF8047B704780B48DB000AFF0
:1027C000F860B9607A603B60FB681B0CBB62FB6819
:1027D0009BB27B62BB681B0C3B62BB689BB2FB621B
:1027E000BB6AFA6A02FB03F3FB617B6A3A6A02FB8B
:1027F00003F3BB617B6AFA6A02FB03F37B6200238B
:10280000FB62BB691B047A6A13447B617A697B6A49
:102810009A4201D20123FB627B697B62FB691B0444
:102820007A6913447B617A697B6A9A4202D2FB6AB5
:102830000133FB62BB691A0CFB691B0C1A44BB6AAF
:10284000396A01FB03F31A44FB6A1A447B681A6075
:102850003B687A691A6000BF3437BD465DF8047B77
:10286000704780B584B000AF7860396007F10C0321
:1028700007F1080239687868FFF79FFFBB68002BF3
:1028800002D04FF0FF33FB60FB6818461037BD469F
:1028900080BD000080B483B000AF854BD3F8143204
:1028A000702B08D0834B002283F81C25814B062215
:1028B00083F81925F5E07F4B93F81C35013B032B7A
:1028C00000F2B38001A252F823F000BFDD2800001F
:1028D0003729000069290000A3290000744B93F8F0
:1028E000AB33002B16D1734B012283F81C25704BA0
:1028F000D3F8083201337B606D4BD3F808327A6825
:102900009A4202D24FF0FF337B60694A7B68C2F87B
:102910000832C6E0674B032283F81C25654B002272
:10292000C3F8B024624B012283F8A923604B012233
:1029300083F8AA23B5E05E4B002283F8A9235C4B01
:1029400093F8AB33002B00F0A5805A4B052283F897
:102950001C25584B0022C3F8B024554BD3F8203225
:10296000534AC2F8083295E0514B012283F8A9235B
:10297000504BD3F8B034002B00F08E804D4B042226
:1029800083F81C254B4B0022C3F8B024484B00228F
:1029900083F8A923464BD3F82032454AC2F80832BF
:1029A0007AE0434B002283F8A923414BD3F820322D
:1029B000013B7B603E4BD3F820327A689A4201D9C2
:1029C00000237B603B4BD3F8B0347A689A4265D8D9
:1029D000374B93F8AB33002B16D1364B012283F8DB
:1029E0001C25334BD3F8083201337B60304BD3F8CE
:1029F00008327A689A4202D24FF0FF337B602C4A49
:102A00007B68C2F8083249E02A4B032283F81C2570
:102A1000284B0022C3F8B024254B012283F8A923B8
:102A2000234B012283F8AA2338E0224BD3F8B024A9
:102A30001F4BD3F820329A4232D31D4B93F8AB335D
:102A4000002B16D11B4B012283F81C25184BD3F801
:102A5000083201337B60164BD3F808327A689A4209
:102A600002D24FF0FF337B60114A7B68C2F8083214
:102A700016E0104B032283F81C250E4B0022C3F8EE
:102A8000B0240B4B012283F8A923094B012283F8C0
:102A9000AA2305E000BF04E000BF02E000BF00E0A1
:102AA00000BF00BF0C37BD465DF8047B704700BF18
:102AB000D81100208815002080B483B000AF854B6A
:102AC000D3F81432B3F58C6F08D0834B002283F80F
:102AD0001A25814B062283F81925F4E07E4B93F8E2
:102AE0001A35013B032B00F2B28001A252F823F009
:102AF000012B00005B2B00008D2B0000C72B00007A
:102B0000744B93F8AB33002B16D1734B012283F82F
:102B10001A25704BD3F8083201337B606D4BD3F824
:102B200008327A689A4202D24FF0FF337B60694ADA
:102B30007B68C2F80832C6E0674B032283F81A2587
:102B4000654B0022C3F8B024624B012283F8A9230D
:102B5000604B012283F8AA23B5E05E4B002283F884
:102B6000A9235C4B93F8AB33002B00F0A5805A4BA4
:102B7000052283F81A25584B0022C3F8B024554B80
:102B8000D3F82032534AC2F8083295E0514B012263
:102B900083F8A923504BD3F8B034002B00F08E807B
:102BA0004D4B042283F81A254B4B0022C3F8B02466
:102BB000484B002283F8A923464BD3F82032454ADC
:102BC000C2F808327AE0434B002283F8A923414B34
:102BD000D3F82032013B7B603E4BD3F820327A6839
:102BE0009A4201D900237B603B4BD3F8B0347A681A
:102BF0009A4265D8374B93F8AB33002B16D1364B3E
:102C0000012283F81A25334BD3F8083201337B6055
:102C1000304BD3F808327A689A4202D24FF0FF3331
:102C20007B602C4A7B68C2F8083249E02A4B0322B9
:102C300083F81A25284B0022C3F8B024254B012223
:102C400083F8A923234B012283F8AA2338E0224BDF
:102C5000D3F8B0241F4BD3F820329A4232D31D4B05
:102C600093F8AB33002B16D11B4B012283F81A25A6
:102C7000184BD3F8083201337B60164BD3F8083277
:102C80007A689A4202D24FF0FF337B60114A7B6828
:102C9000C2F8083216E0104B032283F81A250E4BB7
:102CA0000022C3F8B0240B4B012283F8A923094B5F
:102CB000012283F8AA2305E000BF04E000BF02E080
:102CC00000BF00E000BF00BF0C37BD465DF8047BCD
:102CD000704700BFD811002088150020B0B586B01D
:102CE00000AF87ED010AC7ED000A97ED010A09F070
:102CF000D5F90346002B06D197ED000A09F0CEF96D
:102D00000346002B03D07F4B1B687B61F2E07868A1
:102D1000FDF72AFE03460C4644EC103B0DF07CFC0C
:102D200054EC103B18462146FEF76EF903463B6112
:102D30003868FDF719FE03460C4644EC103B0DF0D5
:102D40006BFC54EC103B18462146FEF75DF9034638
:102D5000FB6097ED000A09F045F90346002B33D0DC
:102D6000D7ED047AB7EE007AF4EE477AF1EE10FA76
:102D700003D14FF07E537B61BCE0D7ED047AB7EE10
:102D8000007AF4EEC77AF1EE10FA0EDDD7ED007A94
:102D9000F5EEC07AF1EE10FA03DD5B4B1B687B6148
:102DA000A8E04FF000037B61A4E0D7ED007AF5EED8
:102DB000C07AF1EE10FA03DD4FF000037B6199E079
:102DC000514B1B687B6195E0D7ED037AF5EE407AB5
:102DD000F1EE10FA03D14FF07E537B618AE0D7ED1C
:102DE000037AB7EE007AF4EE477AF1EE10FA12D1D8
:102DF000D7ED007AF5EEC07AF1EE10FA02DD7B68CD
:102E00007B6177E0F7EE006A97ED017AC6EE877A8C
:102E1000C7ED057A6EE0D7ED007AB0EE007AF4EEF9
:102E2000477AF1EE10FA08D197ED017AD7ED017AE1
:102E300067EE277AC7ED057A5CE0D7ED007AB6EE4B
:102E4000007AF4EE477AF1EE10FA18D1D7ED017A54
:102E5000F5EEC07AF1EE10FA11DB7868FDF784FD2B
:102E600003460C4644EC103B0DF036FF54EC103B8F
:102E700018462146FEF7C8F803467B613AE0D7EDD5
:102E8000017AF5EEC07AF1EE10FA1BD53868FDF73D
:102E90006BFD03460C4644EC103B0DF0C9FB54ECB3
:102EA000103B18462146FEF7AFF807EE100AD7EDA3
:102EB000007AF4EEC77AF1EE10FA03DD114B1B68CD
:102EC0007B6117E07868FDF74FFD04460D463868D2
:102ED000FDF74AFD02460B4643EC112B45EC104B27
:102EE0000DF05EFD54EC103B18462146FEF78CF8C1
:102EF00003467B617B6907EE903AB0EE670A1837AC
:102F0000BD46B0BD284F0020204F002090B585B0B1
:102F100000AF87ED000B97ED000B0DF07DFB51EC42
:102F2000100B4FF00002334BFDF7E8FF0346002B78
:102F300050D04FF00002304BD7E90001FDF7F2FF0F
:102F40000346002B17D04FF000022B4BD7E90001AE
:102F5000FDF7ACFB03460C4644EC173BB0EE470ACA
:102F6000F0EE670A0DF064FBB0EE407AF0EE607AA6
:102F700087ED027B32E04FF00002204BD7E90001E1
:102F8000FDF7DAFF0346002B0CD04FF000024FF0A4
:102F90000003D7E90001FDF73FFD03460C46C7E9F2
:102FA00002341BE04FF00002134BD7E90001FDF79C
:102FB0007BFB03460C4644EC173BB0EE470AF0EEB1
:102FC000670A0DF0A1FAB0EE407AF0EE607A87ED74
:102FD000027B03E0D7E90034C7E90234D7E90234C1
:102FE00044EC173BB0EE470AF0EE670A1437BD46D3
:102FF00090BD00BF000030430000E03F0000E0BF94
:10300000F8B500AF934BD3F81422934BD3F89C340C
:103010009A4212D0904B002283F80B258E4B062249
:1030200083F809258B4B4FF00002C3F84022894BEF
:103030004FF00002C3F844221DE2874B93F80B3592
:10304000013B032B00F2D08101A252F823F000BF14
:10305000613000000B31000065320000AD3300002C
:103060007D4BD3F8A8447B4B93ED6C7BB0EE470AC5
:10307000F0EE670A0DF048FA53EC102B1046194693
:10308000FDF7A2FF03469C42C0F0EC81724B042284
:1030900083F80B25704B0022C3F8A8246F4B93F8DC
:1030A000BD206C4B83F8A2236C4B93F8BD20694B79
:1030B00083F8A623674BD3E96034664AC2E96434D7
:1030C000664B93F8BC20634B83F8A323634B93F8C0
:1030D000BC20604B83F8A423604B93F8BD205D4B6C
:1030E00083F8A7235D4B93F8BD205A4B83F8A823A0
:1030F0005A4B93F8BC20574B83F8A123574B93F8B6
:10310000BD20544B83F8A523ACE1524BD3E966456F
:10311000504BD3F8F4311846FDF704FC02460B4639
:1031200020462946FDF7F4FE0346002B37D0494BD5
:1031300093F8AB23494B93F8BD309A421DD1454BD0
:10314000D3E95A45434BD3F82C321846FDF7EAFB36
:103150000A46014601231E4613460A4620462946D2
:10316000FDF7CCFE0346002B01D100231E46F3B22F
:1031700083F00103DBB2002B11D0374B022283F81E
:103180000B25344BD3E966014FF00002344BFDF7B9
:103190008DFA03460C462F4AC2E9663464E12D4B92
:1031A00093F8AB232D4B93F8BD309A4240F05C81ED
:1031B000284BD3E95A45274BD3F82C321846FDF754
:1031C000B1FB02460B4620462946FDF797FE034613
:1031D000002B00D148E1204B012283F80B251E4B28
:1031E0000022C3F8A8241D4B93F8BD20194B83F887
:1031F000A3231A4B93F8BC20164B83F8A423174B38
:1032000093F8BC20134B83F8A223144B93F8BD20F2
:10321000104B83F8A123114B93F8BD200D4B83F87D
:10322000A7230E4B93F8BD200A4B83F8A8230B4B22
:1032300093F8BD20074B83F8A523084B93F8BD20D6
:10324000044B83F8A623034BD3E96034014AC2E957
:10325000643409E1D8110020881500200000002006
:103260000000F03F854B93F8AB23854B93F8BD30BE
:103270009A4250D1814BD3E95A45804BD3F828323A
:103280001846FDF74FFB02460B4620462946FDF740
:1032900035FE0346002B3ED07A4B012283F80B25E6
:1032A000784B0022C3F8A824754B93F8BD20734BCC
:1032B00083F8A323724B93F8BC20704B83F8A423AC
:1032C0006F4B93F8BC206D4B83F8A2236C4B93F8A3
:1032D000BD206A4B83F8A123694B93F8BD20674B4F
:1032E00083F8A723664B93F8BD20644B83F8A8238B
:1032F000634B93F8BD20614B83F8A523604B93F893
:10330000BD205E4B83F8A6235C4BD3E960345B4A57
:10331000C2E96434AAE0594BD3E96645574BD3F868
:10332000F4311846FDF7FEFA02460B4620462946C0
:10333000FDF7EEFD0346002B00D197E04F4B93F8CD
:10334000AB234F4B93F8BD309A421DD14B4BD3E981
:103350005A454A4BD3F82C321846FDF7E3FA0A4691
:10336000014601231E4613460A4620462946FDF71C
:10337000C5FD0346002B01D100231E46F3B283F0A6
:103380000103DBB2002B71D03E4B032283F80B25E7
:103390003A4BD3E966014FF000023B4BFDF786F94B
:1033A00003460C46354AC2E966345FE0354BD3F834
:1033B000A824324BD3F820329A4259D3314B0522FC
:1033C00083F80B252F4B0022C3F8A8242B4BD3F8EE
:1033D00068322A4AC2F84832284A4FF000034FF0B8
:1033E0000004C2E9663443E0244B93F89F33002B7A
:1033F00019D1244BD3F8A824204BD3F8F8319A42A2
:1034000011D3204B022283F80B251C4BD3E9660114
:103410004FF000021C4BFDF749F903460C46174AD2
:10342000C2E9663426E0154B93F89F33012B21D176
:10343000144BD3F8A824114BD3F8F8319A4219D37E
:10344000104B032283F80B250C4BD3E966014FF098
:1034500000020D4BFDF72AF903460C46074AC2E964
:10346000663407E000BF06E000BF04E000BF02E0F2
:1034700000BF00E000BF00BFF8BD00BFD8110020B2
:1034800000000020881500200000F03FB0B500AF1C
:10349000B74BD3F814321846FDF744FAB54BD3E9CD
:1034A000F8341A462346FDF71FFD0346002B12D1C0
:1034B000B04B002283F80C25AE4B062283F8092579
:1034C000AB4B4FF00002C3F84022A94B4FF0000273
:1034D000C3F844226DE1A74B93F80C35013B032B55
:1034E00000F2338101A252F823F000BFFD34000046
:1034F000A73500005D3600001D3700009D4BD3F856
:10350000A8449B4B93ED6C7BB0EE470AF0EE670A44
:103510000CF0FAFF53EC102B10461946FDF754FD42
:1035200003469C42C0F03C81924B042283F80C2558
:10353000904B0022C3F8A8248F4B93F8BD208C4BEE
:1035400083F8A2238C4B93F8BD20894B83F8A623E4
:10355000874BD3E96034864AC2E96434864B93F8DA
:10356000BC20834B83F8A323834B93F8BC20804B70
:1035700083F8A423804B93F8BD207D4B83F8A723C9
:103580007D4B93F8BD207A4B83F8A8237A4B93F8B0
:10359000BC20774B83F8A123774B93F8BD20744B65
:1035A00083F8A523FCE0724B93F8AB23724B93F89E
:1035B000BD309A4240F0F6806D4BD3E95A456C4BD2
:1035C000D3F854321846FDF7CFF902460B46204691
:1035D0002946FDF793FC0346002B00D1E2E0654B42
:1035E000012283F80C25634B0022C3F8A824624B08
:1035F00093F8BD205E4B83F8A3235F4B93F8BC2068
:103600005B4B83F8A4235C4B93F8BC20584B83F8A6
:10361000A223594B93F8BD20554B83F8A123564B59
:1036200093F8BD20524B83F8A723534B93F8BD204A
:103630004F4B83F8A823504B93F8BD204C4B83F895
:10364000A5234D4B93F8BD20494B83F8A623484B47
:10365000D3E96034464AC2E96434A3E0444B93F8AA
:10366000AB23454B93F8BD309A4240F09D80404BD0
:10367000D3E95A453E4BD3ED957AB1EE047A77EE15
:10368000C77A17EE900AFDF76FF902460B462046FF
:103690002946FDF733FC0346002B00D184E0354B6F
:1036A000012283F80C25334B0022C3F8A824324BA7
:1036B00093F8BD202E4B83F8A3232F4B93F8BC2007
:1036C0002B4B83F8A4232C4B93F8BC20284B83F876
:1036D000A223294B93F8BD20254B83F8A123264B29
:1036E00093F8BD20224B83F8A723234B93F8BD20EA
:1036F0001F4B83F8A823204B93F8BD201C4B83F865
:10370000A5231D4B93F8BD20194B83F8A623184B16
:10371000D3E96034164AC2E9643445E0154BD3F866
:10372000A824134BD3F820329A423FD3114B0522E1
:1037300083F80C250F4B0022C3F8A8240C4BD3F8B8
:1037400068320B4AC2F8483230E0094B93F89F3395
:10375000002B13D1074BD3F8A824054BD3F8003224
:103760009A420BD3034B022283F80C2520E000BFC2
:10377000D811002088150020000000200E4B93F87F
:103780009F33012B14D10D4BD3F8A8240A4BD3F847
:1037900000329A420CD3094B032283F80C2507E030
:1037A00000BF06E000BF04E000BF02E000BF00E091
:1037B00000BF00BFB0BD00BFD81100208815002099
:1037C00098B52DED028B00AF684BD3F81422684BEF
:1037D000D3F8A4349A4212D0654B002283F80D2509
:1037E000634B062283F80925604B4FF00002C3F8B3
:1037F00040225E4B4FF00002C3F84422B1E05C4B24
:1038000093F80D35012B59D1594BD3F8A83407EE55
:10381000903AB8EE678A554BD3ED8F8A534BD3E974
:103820006C3418462146FDF7EFFB07EE900A78EE60
:10383000E77AB4EEE78AF1EE10FA00DA91E04C4B49
:10384000022283F80D254A4B0022C3F8A824494BD5
:1038500093F8BD20454B83F8A323464B93F8BC2037
:10386000424B83F8A423434B93F8BC203F4B83F88F
:10387000A223404B93F8BD203C4B83F8A1233D4B42
:1038800093F8BD20394B83F8A7233A4B93F8BD201A
:10389000364B83F8A823374B93F8BD20334B83F87E
:1038A000A523344B93F8BD20304B83F8A6232F4B30
:1038B000D3E960342D4AC2E9643452E02C4BD3F88A
:1038C000A8442A4B93ED6C7BB0EE470AF0EE670AF2
:1038D0000CF01AFE53EC102B10461946FDF774FB42
:1038E00003469C423DD3224B012283F80D25204BF9
:1038F0000022C3F8A8241F4B93F8BD201B4B83F86C
:10390000A2231C4B93F8BD20184B83F8A623174B1A
:10391000D3E96034154AC2E96434164B93F8BC20ED
:10392000124B83F8A323134B93F8BC200F4B83F85F
:10393000A423104B93F8BD200C4B83F8A7230D4B09
:1039400093F8BD20094B83F8A8230A4B93F8BC20B9
:10395000064B83F8A123074B93F8BD20034B83F854
:10396000A52300BFBD46BDEC028B98BDD811002039
:10397000881500200000002090B585B000AF824B74
:10398000D3F814321846FCF7CDFF804BD3E9F2345C
:103990001A462346FDF7A8FA0346002B12D17B4BAB
:1039A000002283F80A25794B062283F80925764BF5
:1039B0004FF00002C3F84022734B4FF00002C3F8EF
:1039C0004422DDE0714B93F80A35012B40F08580ED
:1039D0006D4BD3F8E8311846FCF7A4FF6A4BD3E9E6
:1039E0006C341A462346FCF75FFE03460C4644EC53
:1039F000173BB0EE470AF0EE670AFFF787FAB0EE22
:103A0000407AF0EE607A87ED007B4FF00002604B69
:103A1000D7E90001FDF772FA0346002B14D04FF0EE
:103A200000024FF00003D7E90001FDF77BFA0346DF
:103A3000002B06D0D7E90001FDF7C6FA0346FB606C
:103A400005E00023FB6002E04FF0FF33FB604F4BCB
:103A5000D3F8A834FA689A4200F292804B4B0222C3
:103A600083F80A25494B0022C3F8A824494B93F850
:103A7000BD20454B83F8A323464B93F8BC20424B13
:103A800083F8A423434B93F8BC203F4B83F8A22335
:103A9000404B93F8BD203C4B83F8A1233D4B93F85A
:103AA000BD20394B83F8A7233A4B93F8BD20364B02
:103AB00083F8A823374B93F8BD20334B83F8A52315
:103AC000344B93F8BD20304B83F8A6232E4BD3E91B
:103AD00060342D4AC2E9643452E02C4BD3F8A84438
:103AE000294B93ED6C7BB0EE470AF0EE670A0CF0C1
:103AF0000BFD53EC102B10461946FDF765FA0346F3
:103B00009C423DD3214B012283F80A251F4B002202
:103B1000C3F8A8241F4B93F8BD201B4B83F8A223A6
:103B20001C4B93F8BD20184B83F8A623164BD3E902
:103B30006034154AC2E96434164B93F8BC20124B2A
:103B400083F8A323134B93F8BC200F4B83F8A423D3
:103B5000104B93F8BD200C4B83F8A7230D4B93F823
:103B6000BD20094B83F8A8230A4B93F8BC20064BD1
:103B700083F8A123074B93F8BD20034B83F8A523BB
:103B800000BF1437BD4690BDD81100208815002015
:103B90000000F04100000020B0B500AFB14B4FF085
:103BA0000002C3F84022AF4B4FF00002C3F844229A
:103BB000AC4BD3F81422AC4BD3F8A4349A4242D184
:103BC000A94B032283F80925A74B012283F80D2571
:103BD000A54B0022C3F8A824A44B93F8BD20A14B09
:103BE00083F8A223A14B93F8BD209E4B83F8A62314
:103BF0009C4BD3E960349B4AC2E964349B4B93F8F5
:103C0000BC20984B83F8A323984B93F8BC20954B8A
:103C100083F8A423954B93F8BD20924B83F8A723F8
:103C2000924B93F8BD208F4B83F8A8238F4B93F8CA
:103C3000BC208C4B83F8A1238C4B93F8BD20894B7F
:103C400083F8A523C1E1874BD3F814321846FCF75B
:103C500069FE854BD3E9F2341A462346FDF744F951
:103C60000346002B42D0804B042283F809257E4B6B
:103C7000012283F80A257C4B0022C3F8A8247B4B41
:103C800093F8BD20774B83F8A223784B93F8BD209F
:103C9000744B83F8A623734BD3E96034714AC2E9AD
:103CA0006434724B93F8BC206E4B83F8A3236F4BA4
:103CB00093F8BC206B4B83F8A4236C4B93F8BD2086
:103CC000684B83F8A723694B93F8BD20654B83F8B5
:103CD000A823664B93F8BC20624B83F8A123634B67
:103CE00093F8BD205F4B83F8A5236EE15D4BD3F8BD
:103CF00014321846FCF716FE5B4BD3E9F4341A462F
:103D00002346FDF7F1F80346002B12D0564B0A224A
:103D100083F80925544B052283F81025524B0022C5
:103D2000C3F8A8244F4BD3F870324E4AC2F84C3235
:103D30004BE14C4BD3F814321846FCF7F3FD4A4BD9
:103D4000D3E9F6341A462346FDF7CEF80346002B96
:103D500042D0454B082283F80925434B012283F8C2
:103D60001125414B0022C3F8A824404B93F8BD20F5
:103D70003C4B83F8A2233D4B93F8BD20394B83F88D
:103D8000A623384BD3E96234364AC2E96434374B50
:103D900093F8BC20334B83F8A323344B93F8BC2017
:103DA000304B83F8A423314B93F8BD202D4B83F87F
:103DB000A7232E4B93F8BD202A4B83F8A8232B4B27
:103DC00093F8BD20274B83F8A123284B93F8BC2000
:103DD000244B83F8A523F8E0224BD3F8143218467D
:103DE000FCF7A0FD204BD3E9F8341A462346FDF733
:103DF0007BF80346002B12D01B4B022283F80925C7
:103E0000194B052283F80C25174B0022C3F8A82470
:103E1000144BD3F86832134AC2F84832D5E0114B3C
:103E2000D3F81422104BD3F8A0349A4220D10E4B71
:103E3000092283F809250C4B052283F80E250A4B2D
:103E40000022C3F8A824074BD3F87032054AC2F801
:103E50004C32044A4FF000034FF00004C2E96634CC
:103E6000B3E000BFD811002088150020000000201A
:103E7000594BD3F814321846FCF754FD04460D464E
:103E8000564BD3F88C341846FCF75CFD02460B46C3
:103E900020462946FDF728F80346002B42D04F4B19
:103EA000072283F809254D4B012283F80F254B4B40
:103EB0000022C3F8A8244A4B93F8BD20464B83F850
:103EC000A223474B93F8BD20434B83F8A623424BD4
:103ED000D3E96234404AC2E96434414B93F8BC20D0
:103EE0003D4B83F8A3233E4B93F8BC203A4B83F819
:103EF000A4233B4B93F8BD20374B83F8A723384BC3
:103F000093F8BD20344B83F8A823354B93F8BD209C
:103F1000314B83F8A123324B93F8BC202E4B83F80E
:103F2000A52352E02C4BD3F814222C4BD3F89C340D
:103F30009A4219D1294B012283F80925274B0522E2
:103F400083F80B25254B0022C3F8A824224BD3F875
:103F50006832214AC2F848321F4A4FF000034FF03E
:103F60000004C2E9663430E01B4B93F8AA33002BFF
:103F70002BD11A4B052283F80925184B6422C3F86C
:103F8000A424164BC822C3F88C24144B7022C3F807
:103F90009C24124BDE22C3F8A024104A4FF00003E9
:103FA000104CC2E9F2340D4A4FF000030E4CC2E946
:103FB000F8340A4A4FF000030C4CC2E9F634074AC1
:103FC00003A4D4E90034C2E9F43400BFB0BD00BF9B
:103FD000000000000058A140D811002088150020E2
:103FE0000000002000408F400080914000409F4032
:103FF000F8B500AF934BD3F81422934BD3F8A03409
:104000009A4212D0904B002283F80E258E4B062246
:1040100083F809258B4B4FF00002C3F84022894BEF
:104020004FF00002C3F844221DE2874B93F80E358F
:10403000013B032B00F2D08101A252F823F000BF14
:1040400051400000FB400000554200009D4300002D
:104050007D4BD3F8A8447B4B93ED727BB0EE470ABF
:10406000F0EE670A0CF050FA53EC102B104619468C
:10407000FCF7AAFF03469C42C0F0EC81724B04227D
:1040800083F80E25704B0022C3F8A8246F4B93F8D9
:10409000BD206C4B83F8A2236C4B93F8BD20694B79
:1040A00083F8A623674BD3E96234664AC2E96434D5
:1040B000664B93F8BC20634B83F8A323634B93F8C0
:1040C000BC20604B83F8A423604B93F8BD205D4B6C
:1040D00083F8A7235D4B93F8BD205A4B83F8A823A0
:1040E0005A4B93F8BD20574B83F8A123574B93F8B5
:1040F000BC20544B83F8A523ACE1524BD3E9664571
:10410000504BD3F8F4311846FCF70CFC02460B4632
:1041100020462946FCF7FCFE0346002B37D0494BCE
:1041200093F8AC23494B93F8BD309A421DD1454BCF
:10413000D3E95A45434BD3F82C321846FCF7F2FB2F
:104140000A46014601231E4613460A4620462946D2
:10415000FCF7D4FE0346002B01D100231E46F3B228
:1041600083F00103DBB2002B11D0374B022283F81E
:104170000E25344BD3E966014FF00002344BFCF7B7
:1041800095FA03460C462F4AC2E9663464E12D4B8A
:1041900093F8AC232D4B93F8BD309A4240F05C81EC
:1041A000284BD3E95A45274BD3F82C321846FCF755
:1041B000B9FB02460B4620462946FCF79FFE034604
:1041C000002B00D148E1204B012283F80E251E4B25
:1041D0000022C3F8A8241D4B93F8BD20194B83F887
:1041E000A3231A4B93F8BC20164B83F8A423174B38
:1041F00093F8BD20134B83F8A223144B93F8BD20F2
:10420000104B83F8A123114B93F8BD200D4B83F87D
:10421000A7230E4B93F8BD200A4B83F8A8230B4B22
:1042200093F8BD20074B83F8A523084B93F8BC20D7
:10423000044B83F8A623034BD3E96234014AC2E955
:10424000643409E1D8110020881500200000002006
:104250000000F03F854B93F8AC23854B93F8BD30BD
:104260009A4250D1814BD3E95A45804BD3F828323A
:104270001846FCF757FB02460B4620462946FCF73A
:104280003DFE0346002B3ED07A4B012283F80E25DB
:10429000784B0022C3F8A824754B93F8BD20734BCC
:1042A00083F8A323724B93F8BC20704B83F8A423AC
:1042B0006F4B93F8BD206D4B83F8A2236C4B93F8A2
:1042C000BD206A4B83F8A123694B93F8BD20674B4F
:1042D00083F8A723664B93F8BD20644B83F8A8238B
:1042E000634B93F8BD20614B83F8A523604B93F893
:1042F000BC205E4B83F8A6235C4BD3E962345B4A57
:10430000C2E96434AAE0594BD3E96645574BD3F868
:10431000F4311846FCF706FB02460B4620462946B8
:10432000FCF7F6FD0346002B00D197E04F4B93F8C6
:10433000AC234F4B93F8BD309A421DD14B4BD3E980
:104340005A454A4BD3F82C321846FCF7EBFA0A468A
:10435000014601231E4613460A4620462946FCF71D
:10436000CDFD0346002B01D100231E46F3B283F09E
:104370000103DBB2002B71D03E4B032283F80E25E4
:104380003A4BD3E966014FF000023B4BFCF78EF944
:1043900003460C46354AC2E966345FE0354BD3F834
:1043A000A824324BD3F838329A4259D3314B0522E4
:1043B00083F80E252F4B0022C3F8A8242B4BD3F8EB
:1043C00070322A4AC2F84C32284A4FF000034FF0AC
:1043D0000004C2E9663443E0244B93F89F33002B7A
:1043E00019D1244BD3F8A824204BD3F8F8319A42A2
:1043F00011D3204B022283F80E251C4BD3E9660112
:104400004FF000021C4BFCF751F903460C46174ACB
:10441000C2E9663426E0154B93F89F33012B21D176
:10442000144BD3F8A824114BD3F8F8319A4219D37E
:10443000104B032283F80E250C4BD3E966014FF095
:1044400000020D4BFCF732F903460C46074AC2E95D
:10445000663407E000BF06E000BF04E000BF02E0F2
:1044600000BF00E000BF00BFF8BD00BFD8110020B2
:1044700000000020881500200000F03F80B582B0C9
:1044800000AF78607B685B68012B08D17B681B7A82
:10449000002B04D07B681B69184606F001FA00BFA8
:1044A0000837BD4680BD80B582B000AF78607868BF
:1044B000FFF7E4FF00BF0837BD4680BD80B582B07E
:1044C00000AF78607B681B78002B05D17B680122E8
:1044D0001A707868FFF7E7FF00BF0837BD4680BD58
:1044E00080B582B000AF78607B685B68012B08D133
:1044F0007B681B7A002B04D07B681B69184606F08A
:10450000B6FB00BF0837BD4680BD80B582B000AFA6
:1045100078607868FFF7E4FF00BF0837BD4680BDCC
:1045200080B582B000AF78607B681B78002B05D126
:104530007B6801221A707868FFF7E7FF00BF083731
:10454000BD4680BD80B582B000AF78607B685B6897
:10455000012B08D17B681B7A002B04D07B681B6978
:10456000184606F084FB00BF0837BD4680BD80B505
:1045700082B000AF78607868FFF7E4FF00BF0837CB
:10458000BD4680BD80B582B000AF78607B681B7887
:10459000002B05D17B6801221A707868FFF7E7FFCE
:1045A00000BF0837BD4680BD80B582B000AF7860DF
:1045B0007B685B68012B0DD17B681B7A002B09D0CF
:1045C0007B681B69184605F075FD7B681B691846FA
:1045D00005F086FD00BF0837BD4680BD80B582B0BE
:1045E00000AF78607868FFF7DFFF00BF0837BD468F
:1045F00080BD80B582B000AF78607B681B78002BEF
:1046000005D17B6801221A707868FFF7E7FF00BFC9
:104610000837BD4680BD80B582B000AF78607B684A
:104620005B68012B0DD17B681B7A002B09D07B685E
:104630001B69184605F03EFB7B681B69184605F0B0
:1046400043FB00BF0837BD4680BD80B582B000AFD8
:1046500078607868FFF7DFFF00BF0837BD4680BD90
:1046600080B582B000AF78607B681B78002B05D1E5
:104670007B6801221A707868FFF7E7FF00BF0837F0
:10468000BD4680BD80B582B000AF78607B685B6856
:10469000012B08D17B681B7A002B04D07B681B6937
:1046A000184606F0FDF800BF0837BD4680BD80B54E
:1046B00082B000AF78607868FFF7E4FF00BF08378A
:1046C000BD4680BD80B582B000AF78607B681B7846
:1046D000002B05D17B6801221A707868FFF7E7FF8D
:1046E00000BF0837BD4680BD80B582B000AF78609E
:1046F0007B685B68012B08D17B681B7A002B04D098
:104700007B689B6A184605F08CFB00BF0837BD46E6
:1047100080BD80B582B000AF78607868FFF7E4FFB5
:1047200000BF0837BD4680BD80B582B000AF78605D
:104730007B681B78002B05D17B6801221A70786892
:10474000FFF7E7FF00BF0837BD4680BD80B483B0E8
:1047500000AF78607B685B68012B02D17B68022226
:104760005A6000BF0C37BD465DF8047B704780B5CA
:1047700082B000AF78607868FFF7E8FF00BF0837C5
:10478000BD4680BD80B582B000AF78607B681B7885
:10479000002B05D17B6801221A707868FFF7E7FFCC
:1047A00000BF0837BD4680BD80B485B000AF7860DB
:1047B0007B685B68012B11D17B681B7A002B0DD0C5
:1047C0007B68DB6AFB60FB681B68012B02D1FB681E
:1047D00002221A607B684FF0FF321A6300BF143761
:1047E000BD465DF8047B704780B582B000AF78604D
:1047F0007868FFF7D9FF00BF0837BD4680BD80B598
:1048000082B000AF78607B681B78002B05D17B6895
:1048100001221A707868FFF7E7FF00BF0837BD462E
:1048200080BD000080B584B000AF78607B68002256
:104830001A727B6801225A60154B4FF0FF32C3F8A1
:1048400064210023BB60124BD3F8642107F10800F8
:104850000A23002105F09CFC02467B681A617B68F4
:104860001B694FF4E131184605F068FF0123FB7323
:104870000023BB737B681869FB7BBA7B082105F0BA
:1048800069FF7B6801221A7200BF1037BD4680BDE8
:10489000D811002080B588B002AF78607B68002214
:1048A0001A727B6801225A600023FB7500233B616A
:1048B000FB7D1946386905F011FA02467B689A6259
:1048C0007B68494A5A627B689A6A7B685B6A1946C8
:1048D000104605F027FA2B233B7340237B737B683C
:1048E000986A07F10C02002301930023009302232E
:1048F0001D2105F062FA4FF4FA7009F011FC2A2329
:10490000FB727B68986A07F10B0200230193012375
:10491000009301231D2105F050FA0346FB72FB7A38
:10492000002B14D17B68986A07F10B0201230193D5
:104930000023009301231D2105F00BFA07F10B0161
:1049400007F10F0301221846FDF7B4FC01E0002334
:10495000FB732A233B73FB7B23F00103DBB27B73E6
:104960007B68986A07F10C020023019300230093EF
:1049700002231D2105F021FA0E233B7301237B73D3
:104980007B68986A07F10C020023019300230093CF
:1049900002231D2105F011FA5B233B7300237B7377
:1049A0007B68986A07F10C020023019300230093AF
:1049B00002231D2105F001FA2A233B7301237B7397
:1049C0007B68986A07F10C0200230193002300938F
:1049D00002231D2105F0F1F97B6801221A7200BF44
:1049E0001837BD4680BD00BFA086010080B584B0E9
:1049F00000AF78607B6800221A727B6801225A60DF
:104A0000154B4FF0FF32C3F860210023BB60124BFF
:104A1000D3F8603107F108000A22002105F0B8FB45
:104A200002467B681A617B681B694FF4E1311846C6
:104A300005F084FE0123FB730023BB737B681869B8
:104A4000FB7BBA7B082105F085FE7B6801221A7288
:104A500000BF1037BD4680BDD81100200000000007
:104A6000F0B52DED028B93B002AFB54BD3E9A801A1
:104A7000B44BD3E90C341A462346FCF735FA034607
:104A8000002B05D1AF4BD3E90C34AD4AC2E9A834B1
:104A9000AB4BD3F898326322AB49184605F06EFE53
:104AA0000346FB776322A849A848FDF703FCA44B03
:104AB00093F82835002B07D1A14B93F82835013303
:104AC000DAB29F4B83F828259D4B93F82535002BB0
:104AD00065D19B4B012283F82525994B042283F84D
:104AE00026259B4B6422C3F81422994BAF22C3F8AE
:104AF0003422974B3C22C3F82C22954B954AC3F89D
:104B00006422934A8AA4D4E90034C2E96C34904BFD
:104B1000904AC3F86C228E4A4FF000038E4CC2E9D3
:104B200072348B4BFA22C3F82022894BFA22C3F845
:104B30003022874B2D22C3F82822854A7EA4D4E94F
:104B40000034C2E97034824A7BA4D4E90034C2E95B
:104B50006E347F4B814AC3F870227D4B804AC3F884
:104B600068227B4B4FF4A072C3F83822784B0022A6
:104B700083F89F23764B0222C3F82422744B0A2227
:104B8000C3F81022724B0622C3F81C22704B02227B
:104B9000C3F818226E4B7822C3F80C22A0E3684BAE
:104BA00093F82635013B082B00F2888301A252F8C6
:104BB00023F000BFD94B0000F34B00000D4C000068
:104BC0003B4C00005D4C0000BD4D0000DF4E00007E
:104BD00079520000A35200005D4B022283F89E230D
:104BE000574B072283F82625594B002283F8A02330
:104BF00076E3574B002283F89E23514B072283F81C
:104C00002625534B002283F8A02369E3504B012251
:104C100083F8A0234E4B012283F89E23484B93F840
:104C20002835002B00F05783454B072283F82625B3
:104C3000474B002283F8A0234DE3454B474AC3F876
:104C40007022434B464AC3F868223D4B072283F843
:104C500026253F4B002283F8A02341E3384B93F8ED
:104C60002835002B00F03983354B062283F82625A2
:104C7000334B012283F83825314B93F83835002B1C
:104C800000F02B832E4BD3F8D434312B8CBF01236F
:104C90000023DBB21A462E4BD3F834329A4206D8A0
:104CA000274B93F83835002B01D0012300E0002377
:104CB000DAB2234B83F83825214BD3F8B834642B70
:104CC0002ED01F4BD3F8B834C82B29D01C4BD3F8A7
:104CD000B834702B24D01A4BD3F8B834DE2B1FD045
:104CE000174BD3F8B834B3F57A7F19D0144BD3F8F7
:104CF000B834B3F58C6F13D0114BD3F8B834B3F587
:104D0000FA6F0DD00E4BD3F8B83440F6AC02934294
:104D100006D00B4BD3F8B83440F60252934221D15F
:104D2000074B93F83835002B1CD001231BE000BF44
:104D30009A9999999999D93F0AD7A3703D0AB73F93
:104D4000881500200000002070120020D3120020DF
:104D5000D8110020000070400000F03F000020400B
:104D6000000030400023DAB26F4B83F838256E4BD9
:104D7000D3F8B834642B14D16B4BD3F8D4343C2B18
:104D80000FD1694BD3E9FE0165A3D3E90023FCF7FA
:104D9000ABF80346002B04D0634BD3F8C834FA2B8E
:104DA00006D0614B93F83835002B01D0012300E089
:104DB0000023DAB25C4B83F838258EE25A4B93F825
:104DC0003835002B04D1584B0A2283F8262587E278
:104DD000554B082283F82625534BD3F8B834534A51
:104DE000C2F81432504BD3F8DC34504AC2F8343293
:104DF0004D4BD3F8D4344D4AC2F82C324A4B03F20F
:104E000074431B68494AC2F86432474BD3E9FE3405
:104E1000464AC2E96C34444B03F58F631B68434A2E
:104E2000C2F86C32404B03F58263D3E900343F4A49
:104E3000C2E972343C4BD3F8C8343C4AC2F8203241
:104E4000394BD3F8D834394AC2F83032364BD3F81C
:104E5000D034364AC2F82832334B03F58163D3E9A4
:104E60000034324AC2E970342F4B03F58063D3E932
:104E700000342E4AC2E96E342C4B2D4AC3F87022FE
:104E80002A4B2C4AC3F86822274BD3F8E034274A30
:104E9000C2F83832244B93F82725244B83F89F23FC
:104EA000214BD3F8CC34214AC2F824321E4BD3F81C
:104EB000BC341E4AC2F810321B4BD3F8C4341B4A10
:104EC000C2F81C32184BD3F8C034184AC2F8183252
:104ED000154BD3F8B434154AC2F80C3200E2134B28
:104EE000002283F8A023FB7F002B40F0F8810F4BBA
:104EF00093F8FB30162B40F0F2810C4B93F8FC300A
:104F0000452B00F05A81452B03DC362B00F06681DF
:104F1000E5E1552B10D0602B00F06D81DFE100BF83
:104F20009A9999999999D93F88150020D81100200C
:104F30000000204000003040B64B052283F82625B3
:104F4000B44B002283F828250422B349B348FDF767
:104F5000B1F9B04B0122C3F89424AE4BD3F8E4343A
:104F6000AC4AC2F8B8340422AD49AC48FDF7A2F906
:104F7000A84B0122C3F89424A64BD3F8E434A54AE5
:104F8000C2F8DC340422A749A448FDF793F9A14BE9
:104F90000122C3F894249F4BD3F8E4349D4AC2F80D
:104FA000D4340422A0499D48FDF784F9994B01228D
:104FB000C3F89424974BD3F8E434964AC2F8C83423
:104FC00004229A499548FDF775F9924B0122C3F8DE
:104FD0009424904BD3F8E4348E4AC2F8D834042297
:104FE00093498E48FDF766F98A4B0122C3F8942451
:104FF000884BD3F8E434874AC2F8D03404228D4970
:105000008648FDF757F9834B0122C3F89424814B5E
:10501000D3F8E4347F4AC2F8E034042286497F485A
:10502000FDF748F97B4B0122C3F89424794BD3F860
:10503000E434784AC2F8CC34042280497748FDF73A
:1050400039F9744B0122C3F89424724BD3F8E43439
:10505000704AC2F8BC34042279497048FDF72AF935
:105060006C4B0122C3F894246A4BD3F8E434694AA8
:10507000C2F8C434042273496848FDF71BF9654B34
:105080000122C3F89424634BD3F8E434614AC2F894
:10509000C03404226C496148FDF70CF95D4B0122D4
:1050A000C3F894245B4BD3F8E4345A4AC2F8B434BE
:1050B000664B93F85D21574B83F8272504226449FA
:1050C0006448FDF7F7F8534B0122C3F89824514B7D
:1050D00003F27C431A684F4B03F274431A600422B4
:1050E0005D495C48FDF7E6F84A4B0122C3F8982475
:1050F000484B03F27C431A68464B03F58F631A60F2
:10510000042256495348FDF7D5F8424B0122C3F813
:105110009824042252494F48FDF7CCF83D4B012218
:10512000C3F8982408224F494F48FDF7C3F8394B7C
:105130000122C3F89024374B03F58363D3E900348D
:10514000344AC2E9FE34082248494748FDF7B2F81C
:10515000304B0122C3F890242E4B03F58363D3E92F
:1051600000342C4A02F58262C2E900340822404928
:105170003D48FDF79FF8274B0122C3F89024254BAB
:1051800003F58363D3E90034224A02F58162C2E960
:105190000034082237493448FDF78CF81D4B0122B2
:1051A000C3F890241B4B03F58363D3E90034194AF9
:1051B00002F58062C2E900342AE0164B032283F82C
:1051C0002625144B002283F82825204B012283F842
:1051D000A0231E4B012283F89E2319E00D4B0222CF
:1051E00083F82625194B012283F8A023174B0022B0
:1051F00083F89E230CE0074B092283F82625134BE6
:10520000012283F8A023114B032283F89E2300BFC1
:1052100065E000BF88150020D51200206C1A002020
:10522000D9120020DD120020F9120020FD1200200A
:10523000011300201D13002021130020251300203E
:10524000291300202D13002031130020D811002035
:10525000E1120020041A0020ED1200201513002096
:1052600019130020E5120020A0190020F1120020DF
:10527000051300200D130020A84BA94AC3F8702283
:10528000A64BA84AC3F86822A74B012283F826251B
:10529000A24B012283F8A023A04B022283F89E2375
:1052A0001EE09E4B032283F89E239F4B072283F828
:1052B00026259A4B002283F8A02311E09A4B012265
:1052C00083F82625954B012283F8A023934B0222D5
:1052D00083F89E2304E000BF02E000BF00E000BFAF
:1052E0008E4BD3F82C3207EE903AF8EE677ADFED6A
:1052F0008F6A87EEA67AF7EE006AC6EE877A874B4A
:10530000C3ED8F7A884BD3E97801894BD3E90A340E
:105310001A462346FBF7E8FD0346002B05D1844BD4
:10532000D3E90A34804AC2E978347F4BD3F8D831C4
:10533000184605F025FC03461A46784B83F8AB2344
:10534000794BD3E980017A4BD3E908341A462346D6
:10535000FBF7CAFD0346002B05D1754BD3E9083492
:10536000714AC2E98034704BD3F8F831184605F021
:1053700007FC03461A46694B83F8AC236A4BD3F803
:10538000B034B3F1FF3F06D0674BD3F8B0340133EC
:10539000654AC2F8B034644B93F81835002B08D135
:1053A000614B012283F818255F4B062283F81925EB
:1053B000B7E25D4B93F81935013B042B00F24782AD
:1053C00001A252F823F000BFDD530000E3530000B8
:1053D000E95300001354000037560000FDF75AFA55
:1053E0009FE2FDF769FB9CE24C4BD3F81432642B2F
:1053F00000F09682494BD3F81432C82B00F090820B
:10540000464B002283F8AA23474B062283F819252E
:1054100086E2424BD3F81432DE2B08D0424B0022F6
:1054200083F81D25404B062283F8192579E23E4B6F
:1054300093F81D35013B032B00F2C08001A252F806
:1054400023F000BF55540000AF540000E1540000A9
:1054500035550000314B93F8AC33002B16D1324B4D
:10546000012283F81D252D4BD3F808320133BB638D
:105470002A4BD3F80832BA6B9A4202D24FF0FF336C
:10548000BB63264ABB6BC2F80832D3E0264B03222B
:1054900083F81D25244B0022C3F8B0241F4B0122A2
:1054A00083F8A9231D4B012283F8AA23C2E01B4BDA
:1054B000002283F8A923194B93F8AC33002B00F09A
:1054C000B280194B052283F81D25174B0022C3F823
:1054D000B024124BD3F83832104AC2F80832A2E096
:1054E0000E4B012283F8A9230F4BD3F8B034002BC5
:1054F00000F09B800C4B042283F81D250A4B0022F0
:10550000C3F8B024054B002283F8A923034BD3F83A
:105510003832024AC2F8083287E000BFD8110020B2
:1055200000002040000030408815002000606A47DD
:1055300000000020B74B002283F8A923B54BD3F815
:105540003832013BBB63B34BD3F83832BA6B9A4263
:1055500001D90023BB63B04BD3F8B034BA6B9A4285
:1055600065D8AC4B93F8AC33002B16D1AA4B012273
:1055700083F81D25A74BD3F808320133BB63A54B35
:10558000D3F80832BA6B9A4202D24FF0FF33BB63B2
:10559000A04ABB6BC2F8083249E09F4B032283F854
:1055A0001D259D4B0022C3F8B0249A4B012283F89D
:1055B000A923984B012283F8AA2338E0964BD3F80D
:1055C000B024944BD3F838329A4232D3914B93F8AB
:1055D000AC33002B16D1904B012283F81D258D4B47
:1055E000D3F808320133BB638A4BD3F80832BA6B65
:1055F0009A4202D24FF0FF33BB63864ABB6BC2F8BC
:10560000083216E0844B032283F81D25824B0022CA
:10561000C3F8B0247F4B012283F8A9237D4B0122DC
:1056200083F8AA2305E000BF7BE100BF79E100BF5A
:1056300077E100BF75E1774BD3F8143240F6AC0246
:10564000934208D0744B002283F81B25724B06222C
:1056500083F8192565E1704B93F81B35013B032B4B
:1056600000F2B38001A252F823F000BF7D56000083
:10567000D75600000957000043570000654B93F8C8
:10568000AC33002B16D1644B012283F81B25614BF0
:10569000D3F808320133BB635E4BD3F80832BA6BE0
:1056A0009A4202D24FF0FF33BB635A4ABB6BC2F837
:1056B0000832CBE0584B032283F81B25564B0022BF
:1056C000C3F8B024534B012283F8A923514B012284
:1056D00083F8AA23BAE04F4B002283F8A9234D4B4D
:1056E00093F8AC33002B00F0AA804B4B052283F8D3
:1056F0001B25494B0022C3F8B024464BD3F838325F
:10570000444AC2F808329AE0424B012283F8A923A6
:10571000414BD3F8B034002B00F093803E4B042271
:1057200083F81B253C4B0022C3F8B024394B0022E0
:1057300083F8A923374BD3F83832364AC2F80832F7
:105740007FE0344B002283F8A923324BD3F8383260
:10575000013BBB632F4BD3F83832BA6B9A4201D965
:105760000023BB632C4BD3F8B034BA6B9A426AD88F
:10577000284B93F8AC33002B16D1274B012283F82A
:105780001B25244BD3F808320133BB63214BD3F8DC
:105790000832BA6B9A4202D24FF0FF33BB631D4A04
:1057A000BB6BC2F808324EE01B4B032283F81B256B
:1057B000194B0022C3F8B024164B012283F8A92309
:1057C000144B012283F8AA233DE0134BD3F8B024F5
:1057D000104BD3F838329A4237D30E4B93F8AC3390
:1057E000002B1BD10C4B012283F81B25094BD3F84E
:1057F00008320133BB63074BD3F80832BA6B9A42C5
:1058000002D24FF0FF33BB63024ABB6BC2F80832CF
:105810001BE000BFD811002088150020BB4B0322DD
:1058200083F81B25B94B0022C3F8B024B84B0122E2
:1058300083F8A923B64B012283F8AA2305E000BF11
:105840006FE000BF6DE000BF6BE000BF69E0B04BF0
:10585000D3F81432B3F58C6F27D040F6AC029342E4
:1058600012D0702B32D1A94B012283F81925A74BF6
:10587000022283F81C25A64B002283F8A923A44BFF
:105880000022C3F808224AE0A04B052283F819251C
:105890009E4B022283F81B259D4B002283F8A923EF
:1058A0009B4B0022C3F8082239E0984B022283F870
:1058B0001925964B022283F81A25954B002283F86E
:1058C000A923934B0022C3F8082228E0904BD3F879
:1058D0001432642B04D08E4BD3F81432C82B08D169
:1058E0008A4B032283F81925894B012283F8AA23C6
:1058F00014E0874BD3F81432DE2B0FD1834B0422F4
:1059000083F81925814B022283F81D25804B002244
:1059100083F8A9237E4B0022C3F8082200BF00E0D1
:1059200000BF7B4B93F8A933002B05D0784BD3F8FD
:105930000832764AC2F85834744BD3F858341846B3
:10594000FAF7F0FF03460C461A4623464FF00000D4
:105950007049FBF78BF903460C46184621466E4BFF
:10596000D3E912341A462346FBF756F803460C4691
:10597000674AC2E95A34654BD3E9F034644AC2E954
:105980005C34634BD3F8243207EE903AF8EE677A32
:1059900017EE900AFAF7E8FF5F4BD3E916341A4680
:1059A0002346FBF739F803460C46184621465A4B66
:1059B000D3E918341A462346FAF778FE03460C4614
:1059C000534AC2E97634514BB3F8043540F2FE3203
:1059D000934207D84D4BB3F8043501339AB24B4B81
:1059E000A3F80425494B93F81235002B1CD1474BE3
:1059F000012283F81225454B042283F81325444BDA
:105A0000D3F82C3207EE903AF8EE677A404BC3EDAC
:105A1000947A3F4BD3F82C3207EE903AF8EE677A3F
:105A20003B4BC3ED957AAAE1384B93F81335013B14
:105A3000032B00F2678101A252F823F04D5A0000B7
:105A4000B75A0000AF5B0000F35C00002F4BB3F8C7
:105A50000435B3F57A7F13D32C4B012283F8132539
:105A60002A4B0022A3F80425294B93ED957A284B65
:105A7000D3ED967A77EE277A254BC3ED957A7EE1C2
:105A8000234B93ED957A224BD3ED947AB4EEE77ADB
:105A9000F1EE10FA00DA72E11C4B032283F81325B1
:105AA0001B4B0122C3F8F021194BD3F85032184A8E
:105AB000C2F8543263E1164B0022C3F8F021144BB4
:105AC000D3E95C3418462146FBF79EFA08EE100A2B
:105AD0000F4BD3E9763418462146FBF795FA07EECB
:105AE000900AB4EEE78AF1EE10FA17DB074B0322B7
:105AF00083F81325064B0122C3F8F021044BD3F899
:105B00005032034AC2F8543239E100BF88150020F0
:105B1000D81100200000F03F00000020C04BD3F857
:105B20002C3207EE903AF8EE677ABD4BC3ED947ACB
:105B3000BB4BD3F82C3207EE903AF8EE677AB84BAD
:105B4000C3ED957AB64BD3F80C3207EE903AB8EE27
:105B5000677AB34BD3F82C3207EE903AF8EE677AB7
:105B600077EE677AC7ED097AAD4BD3F8103207EEBE
:105B7000903AB8EE677AD7ED096AC6EE877AA84BF5
:105B8000C3ED967AA64BD3F8183207EE903AF8EEAA
:105B9000677A9FEDA47A27EE877AD7ED096AC6EE79
:105BA000877AA14B03F58E63C3ED007AE7E09C4B47
:105BB0000122C3F8F0219A4BD3E95C341846214600
:105BC000FBF722FA08EE100A954BD3E97634184613
:105BD0002146FBF719FA07EE900AB4EEE78AF1EED8
:105BE00010FA19D5904B052283F813258E4B00220D
:105BF000A3F804258A4B93ED957A8B4B03F58E63BE
:105C0000D3ED007A77EE677A854BC3ED957A844BB6
:105C10000022C3F8F021B2E0814B93ED957A804BDE
:105C2000D3ED947AB4EEE77AF1EE10FA13D57E4B09
:105C3000012283F813257C4B0022A3F80425784B1E
:105C400093ED957A764BD3ED967A77EE277A744B6F
:105C5000C3ED957A93E0724BD3E95C341846214644
:105C6000FBF7D2F907EE100AF1EE007A27EE278A49
:105C70006B4BD3E9763418462146FBF7C5F907EE9E
:105C8000900A38EE677A664BD3F81C3207EE903AEA
:105C9000F8EE677AF1EE677A67EE277AF0EE670A38
:105CA0009FED620AFDF71AF8B0EE407AF7EE007A3F
:105CB00037EEC77A5A4BD3F80C3207EE903AF8EE2B
:105CC000676A574BD3F82C3207EE903AF8EE677AB2
:105CD00076EEE77A27EE277A514BD3F82C3207EE8F
:105CE000903AF8EE677A77EE277A4D4BC3ED947AC7
:105CF00045E04D4B022283F81325494B0022C3F89F
:105D0000F0213CE0464B0022C3F8F021464BB3F8AB
:105D10000435B3F57A7F19D3434B052283F8132555
:105D2000414B0022A3F804253D4B93ED957A3E4B61
