:1000000000000020F5040000F1B20000F7B200008B
:10001000FDB2000003B3000009B3000000000000BF
:100020000000000000000000000000006505000066
:100030000FB30000000000000B0600006B0600007C
:10004000E1AA0000EFAA0000FDAA00000BAB00002F
:1000500019AB000027AB000035AB000043AB00003C
:1000600051AB00005FAB00006DAB00007BAB00004C
:1000700089AB000097AB0000A5AB0000B3AB00005C
:10008000C1AB000015B300001BB3000021B300009A
:1000900027B300002DB3000033B3000039B30000D4
:1000A0003FB3000045B300004BB3000051B3000064
:1000B00057B300005DB3000063B30000CFAB000096
:1000C00069B30000DDAB00006FB30000EBAB0000D4
:1000D00075B30000F9AB00007BB3000081B30000F2
:1000E00087B300008DB3000093B3000099B3000004
:1000F0009FB30000A5B30000ABB30000B1B3000094
:1001000005050000050500000505000005050000C7
:10011000B7B30000BDB30000C3B30000C9B3000013
:10012000CFB30000D5B30000DBB30000E1B30000A3
:10013000E7B30000EDB30000F3B30000F9B3000033
:10014000FFB3000005B4000007AC00000BB40000D2
:1001500015AC000011B4000017B400001DB400007D
:1001600023B4000029B400002FB4000035B400000F
:100170003BB4000041B4000047B400004DB400009F
:1001800053B400000505000005050000050500004A
:100190000505000005050000050500000505000037
:1001A0000505000005050000050500000505000027
:1001B0000505000005050000050500000505000017
:1001C0000505000005050000050500000505000007
:1003F000050500000505000005050000FFFFFFFFE3
:10040000FFFFFFFFFFFFFFFFFFFFFFFFFEFFFFFFFD
:1004400010B5054C237833B9044B13B10448AFF30E
:1004500000800123237010BDB011002000000000B7
:10046000E857010008B5034B1BB103490348AFF33C
:10047000008008BD00000000B4110020E857010012
:10048000154B002B08BF134B9D46A3F5803A002166
:100490008B460F461348144A121A11F029FD0F4BD0
:1004A000002B00D098470E4B002B00D0984700201F
:1004B000002104000D000D48002802D00C4811F066
:1004C000F5F911F03DFA200029000AF0E5FA11F0E3
:1004D000F9F900BF00000800000000200000000043
:1004E000C9A70000B01100207C500020AD18010009
:1004F000E518010072B60BF0F5FB0BF08DFB62B650
:10050000FFF7BEFFFFF7FEBF80F309887047EFF3E8
:1005100009807047684680F309885A480078C00708
:1005200014BF0220032080F314887047DFF858C1FD
:10053000EFF305831B0618BF6047EFF31483DB0757
:1005400008BF604700DF7047DFF840C1EFF3058365
:100550001B0618BF6047EFF31483DB0708BF604733
:1005600000DF7047EFF30980816911F8021CE1BBDD
:1005700090E80F1010B5E047BDE81040EFF3098C8C
:100580008CE80700424B93E80600914208BF704791
:1005900041B91EF0100F16D13E49086820F0010045
:1005A000086010E01EF0100F06BF2CED108A01202D
:1005B000002081F825002CE9F00FC1F828C00CB408
:1005C0000CF06EFF0CBC1A60D2F828C0BCE8F00F2B
:1005D00092F8250000280EBF6FF0020E6FF0120E89
:1005E000BCEC108A8CF30988704710B52A4A12684F
:1005F000914209D8294C54F8214090E80F10A047A7
:10060000EFF3098C8CE80F0010BD10B50CF0CCFE98
:10061000BDE810401E4B93E80600914208BF7047AA
:10062000EFF3098C1EF0100F06BF2CED108A01208D
:10063000002081F825002CE9F00FC1F828C00CB487
:100640000CF02EFF0CBC1A60D2F828C0BCE8F00FEA
:1006500092F8250000280EBF6FF0020E6FF0120E08
:10066000BCEC108A8CF30988704710B50CF0FAFEC8
:10067000FFF7CEBF10B50CF0F3FE0CF0F3FEFFF762
:10068000C7BF0000544501002DCD000049CD00003A
:100690001850002034EF00E000000000FCFFFFFFD6
:1006A00081F0004102E000BF83F0004330B54FEA23
:1006B00041044FEA430594EA050F08BF90EA020F90
:1006C0001FBF54EA000C55EA020C7FEA645C7FEA23
:1006D000655C00F0E2804FEA5454D4EB5555B8BF46
:1006E0006D420CDD2C4480EA020281EA030382EAB7
:1006F000000083EA010180EA020281EA0303362D49
:1007000088BF30BD11F0004F4FEA01314FF4801C1B
:100710004CEA113102D0404261EB410113F0004F2D
:100720004FEA03334CEA133302D0524263EB4303E4
:1007300094EA050F00F0A780A4F10104D5F1200E82
:100740000DDB02FA0EFC22FA05F2801841F10001DD
:1007500003FA0EF2801843FA05F359410EE0A5F1B1
:1007600020050EF1200E012A03FA0EFC28BF4CF0E2
:10077000020C43FA05F3C01851EBE37101F0004598
:1007800007D54FF0000EDCF1000C7EEB00006EEBA5
:100790000101B1F5801F1BD3B1F5001F0CD349082F
:1007A0005FEA30004FEA3C0C04F101044FEA445286
:1007B00012F5800F80F09A80BCF1004F08BF5FEA0D
:1007C000500C50F1000041EB045141EA050130BDED
:1007D0005FEA4C0C404141EB010111F4801FA4F190
:1007E0000104E9D191F0000F04BF01460020B1FAE5
:1007F00081F308BF2033A3F10B03B3F120020CDA1D
:100800000C3208DD02F1140CC2F10C0201FA0CF0FA
:1008100021FA02F10CE002F11402D8BFC2F1200C5F
:1008200001FA02F120FA0CFCDCBF41EA0C01904015
:10083000E41AA2BF01EB0451294330BD6FEA04045E
:100840001F3C1CDA0C340EDC04F11404C4F1200249
:1008500020FA04F001FA02F340EA030021FA04F35B
:1008600045EA030130BDC4F10C04C4F1200220FAB2
:1008700002F001FA04F340EA0300294630BD21FAF0
:1008800004F0294630BD94F0000F83F4801306BFB6
:1008900081F480110134013D4EE77FEA645C18BFAA
:1008A0007FEA655C29D094EA050F08BF90EA020F41
:1008B00005D054EA000C04BF1946104630BD91EA39
:1008C000030F1EBF0021002030BD5FEA545C05D13C
:1008D0004000494128BF41F0004130BD14F580047B
:1008E0003CBF01F5801130BD01F0004545F0FE41EF
:1008F00041F470014FF0000030BD7FEA645C1ABF24
:10090000194610467FEA655C1CBF0B46024650EA5A
:10091000013406BF52EA033591EA030F41F4002186
:1009200030BD00BF90F0000F04BF0021704730B50C
:100930004FF4806404F132044FF000054FF00001E1
:1009400050E700BF90F0000F04BF0021704730B5A2
:100950004FF4806404F1320410F0004548BF404277
:100960004FF000013EE700BF42004FEAE2014FEACC
:1009700031014FEA02701FBF12F07F4393F07F4FA7
:1009800081F06051704732F07F4208BF704793F0AA
:100990007F4F04BF41F40021704730B54FF46074BD
:1009A00001F0004521F000411CE700BF50EA0102C0
:1009B00008BF704730B54FF000050AE050EA010269
:1009C00008BF704730B511F0004502D5404261EBD9
:1009D00041014FF4806404F132045FEA915C3FF41A
:1009E000D8AE4FF003025FEADC0C18BF03325FEAB7
:1009F000DC0C18BF033202EBDC02C2F1200300FA68
:100A000003FC20FA02F001FA03FE40EA0E0021FA8C
:100A100002F11444BDE600BF70B54FF0FF0C4CF47A
:100A2000E06C1CEA11541DBF1CEA135594EA0C0F2C
:100A300095EA0C0F00F0DEF82C4481EA030621EA67
:100A40004C5123EA4C5350EA013518BF52EA0335A2
:100A500041F4801143F4801338D0A0FB02CE4FF054
:100A60000005E1FB02E506F00042E0FB03E54FF084
:100A70000006E1FB03569CF0000F18BF4EF0010E7C
:100A8000A4F1FF04B6F5007F64F5407404D25FEA78
:100A90004E0E6D4146EB060642EAC62141EA55512B
:100AA0004FEAC52040EA5E504FEACE2EB4F1FD0C6D
:100AB00088BFBCF5E06F1ED8BEF1004F08BF5FEAEB
:100AC000500E50F1000041EB045170BD06F000469D
:100AD00046EA010140EA020081EA0301B4EB5C044A
:100AE000C2BFD4EB0C0541EA045170BD41F4801142
:100AF0004FF0000E013C00F3AB8014F1360FDEBF67
:100B0000002001F0004170BDC4F10004203C35DA42
:100B10000C341BDC04F11404C4F1200500FA05F3C5
:100B200020FA04F001FA05F240EA020001F0004266
:100B300021F0004110EBD37021FA04F642EB0601DC
:100B40005EEA430E08BF20EAD37070BDC4F10C0406
:100B5000C4F1200500FA04F320FA05F001FA04F2CA
:100B600040EA020001F0004110EBD37041F10001B6
:100B70005EEA430E08BF20EAD37070BDC4F12005C1
:100B800000FA05F24EEA020E20FA04F301FA05F229
:100B900043EA020321FA04F001F0004121FA04F2D1
:100BA00020EA020000EBD3705EEA430E08BF20EAA1
:100BB000D37070BD94F0000F0FD101F000464000DB
:100BC00041EB010111F4801F08BF013CF7D041EA5D
:100BD000060195F0000F18BF704703F00046520061
:100BE00043EB030313F4801F08BF013DF7D043EA32
:100BF0000603704794EA0C0F0CEA135518BF95EAE8
:100C00000C0F0CD050EA410618BF52EA4306D1D16E
:100C100081EA030101F000414FF0000070BD50EA8D
:100C2000410606BF1046194652EA430619D094EA17
:100C30000C0F02D150EA013613D195EA0C0F05D101
:100C400052EA03361CBF104619460AD181EA030155
:100C500001F0004141F0FE4141F470014FF000000D
:100C600070BD41F0FE4141F4780170BD70B54FF0A8
:100C7000FF0C4CF4E06C1CEA11541DBF1CEA135528
:100C800094EA0C0F95EA0C0F00F0A7F8A4EB05040A
:100C900081EA030E52EA03354FEA013100F0888001
:100CA0004FEA03334FF0805545EA131343EA1263CA
:100CB0004FEA022245EA111545EA10654FEA00267F
:100CC0000EF000419D4208BF964244F1FD0404F538
:100CD000407402D25B084FEA3202B61A65EB030594
:100CE0005B084FEA32024FF480104FF4002CB6EB51
:100CF000020E75EB030E22BFB61A754640EA0C00D1
:100D00005B084FEA3202B6EB020E75EB030E22BF10
:100D1000B61A754640EA5C005B084FEA3202B6EB51
:100D2000020E75EB030E22BFB61A754640EA9C0010
:100D30005B084FEA3202B6EB020E75EB030E22BFE0
:100D4000B61A754640EADC0055EA060E18D04FEA9E
:100D5000051545EA16754FEA06164FEAC30343EA3E
:100D600052734FEAC2025FEA1C1CC0D111F4801F0B
:100D70000BD141EA00014FF000004FF0004CB6E704
:100D800011F4801F04BF01430020B4F1FD0C88BFA3
:100D9000BCF5E06F3FF6AFAEB5EB030C04BFB6EBAE
:100DA000020C5FEA500C50F1000041EB045170BDA1
:100DB0000EF0004E4EEA113114EB5C04C2BFD4EBCE
:100DC0000C0541EA045170BD41F480114FF0000E52
:100DD000013C90E645EA060E8DE60CEA135594EACE
:100DE0000C0F08BF95EA0C0F3FF43BAF94EA0C0FD1
:100DF0000AD150EA01347FF434AF95EA0C0F7FF446
:100E000025AF104619462CE795EA0C0F06D152EA99
:100E100003353FF4FDAE1046194622E750EA41067D
:100E200018BF52EA43067FF4C5AE50EA41047FF48E
:100E30000DAF52EA43057FF4EBAE12E74FF0FF3CF3
:100E400006E000BF4FF0010C02E000BF4FF0010CC4
:100E50004DF804CD4FEA410C7FEA6C5C4FEA430C3D
:100E600018BF7FEA6C5C1BD001B050EA410C0CBF8C
:100E700052EA430C91EA030F02BF90EA020F0020EE
:100E8000704710F1000F91EA030F58BF994208BF55
:100E900090422CBFD8176FEAE37040F00100704712
:100EA0004FEA410C7FEA6C5C02D150EA013C07D169
:100EB0004FEA430C7FEA6C5CD6D152EA033CD3D0B4
:100EC0005DF8040B704700BF8446104662468C46AE
:100ED0001946634600E000BF01B5FFF7B7FF0028E1
:100EE00048BF10F1000F01BD4DF808EDFFF7F4FF0A
:100EF0000CBF012000205DF808FB00BF4DF808ED95
:100F0000FFF7EAFF34BF012000205DF808FB00BFB7
:100F10004DF808EDFFF7E0FF94BF012000205DF8D9
:100F200008FB00BF4DF808EDFFF7CEFF94BF01208E
:100F300000205DF808FB00BF4DF808EDFFF7C4FF87
:100F400034BF012000205DF808FB00BF4FEA410CD0
:100F50007FEA6C5C02D150EA013C0AD14FEA430CB3
:100F60007FEA6C5C02D152EA033C02D14FF00000F0
:100F700070474FF0010070474FEA410212F500122E
:100F800015D211D56FF47873B3EB625212D94FEAD0
:100F9000C12343F0004343EA505311F0004F23FABA
:100FA00002F018BF404270474FF00000704750EA0F
:100FB000013005D111F0004008BF6FF000407047CC
:100FC0004FF00000704700BF4A0011D212F5001226
:100FD00011D20DD56FF47873B3EB62520ED44FEA91
:100FE000C12343F0004343EA505323FA02F0704711
:100FF0004FF00000704750EA013002D14FF0FF304F
:1010000070474FF0000070474FEA4102B2F1E043F1
:1010100024BFB3F5001CDCF1FE5C0DD901F0004CDF
:101020004FEAC0024CEA5070B2F1004F40EB83002F
:1010300008BF20F00100704711F0804F21D113F15B
:101040003872BCBF01F00040704741F480114FEA94
:101050005252C2F11802C2F1200C10FA0CF320FA1D
:1010600002F018BF40F001004FEAC1234FEAD3233A
:1010700003FA0CFC40EA0C0023FA02F34FEA4303A4
:10108000CCE77FEA625307D150EA01331EBF4FF02D
:10109000FE4040F44000704701F0004040F0FE4048
:1010A00040F40000704700BF53B94AB9002908BF97
:1010B00000281CBF4FF0FF314FF0FF3001F0F8B8AF
:1010C000ADF1080C6DE904CE00F006F8DDF804E09F
:1010D000DDE9022304B070472DE9F047089E04467D
:1010E0008846002B4BD18A42154667D9B2FA82F264
:1010F0004AB1C2F1200701FA02F320FA07F795403E
:1011000047EA030894404FEA154E230CB8FBFEF75C
:101110001FFA85FC0EFB178843EA084307FB0CF116
:10112000994209D9EB1807F1FF3080F01B819942F1
:1011300040F21881023F2B445B1AA4B2B3FBFEF0CD
:101140000EFB103344EA034400FB0CFCA44509D910
:101150002C1900F1FF3380F00781A44540F204818F
:1011600002382C4440EA0740A4EB0C0400271EB1CF
:10117000D4400023C6E900433946BDE8F0878B42DE
:1011800009D9002E00F0EB800027C6E9000138469F
:101190003946BDE8F087B3FA83F7002F47D18B4279
:1011A00002D3824200F2FA80841A61EB0303012029
:1011B0009846002EE0D0C6E90048DDE702B9FFDE20
:1011C000B2FA82F2002A40F08F80491B4FEA154E96
:1011D0001FFA85F80127B1FBFEFC230C0EFB1C1146
:1011E00043EA014308FB0CF1994207D9EB180CF1D3
:1011F000FF3002D2994200F2CD808446591AA3B240
:10120000B1FBFEF00EFB101443EA044408FB00F8A7
:10121000A04507D92C1900F1FF3302D2A04500F2F6
:10122000B6801846A4EB080440EA0C409FE7C7F1DB
:10123000200CBB4022FA0CFE4EEA030E01FA07F422
:1012400020FA0CF521FA0CF34FEA1E482543B3FBB4
:10125000F8F92C0C08FB19331FFA8EFA44EA034301
:1012600009FB0AF49C4202FA07F200FA07F10BD9D3
:101270001EEB030309F1FF3080F087809C4240F2AF
:101280008480A9F1020973441B1BADB2B3FBF8F0D3
:1012900008FB103345EA034400FB0AFAA24508D9CB
:1012A0001EEB040400F1FF336BD2A24569D902386A
:1012B000744440EA0940A0FB0289A4EB0A044C45AF
:1012C000C2464B4654D351D0002E69D0B1EB0A052B
:1012D00064EB030404FA0CFCFD40FC404CEA0505F9
:1012E000C6E90054002747E7C2F1200320FA03F7BC
:1012F000954001FA02F021FA03F34FEA154E384304
:10130000010CB3FBFEF71FFA85F80EFB173341EA19
:10131000034107FB08F38B4204FA02F407D969186A
:1013200007F1FF3C2FD28B422DD9023F2944CB1A23
:1013300081B2B3FBFEF00EFB103341EA034100FB28
:1013400008F38B4207D9691800F1FF3C17D28B4292
:1013500015D902382944C91A40EA07473BE73746FE
:10136000304609E70746E7E61846FBE64145ABD2BB
:10137000B8EB020A69EB0E0201381346A4E7604697
:10138000E9E7184695E76746D1E781467CE70238EA
:101390002C4447E7ACF1020C2B442FE7384608E712
:1013A0003746E9E603685A004CBF43F0004323F098
:1013B00000431844704700BF61B32DE9F84F01F1B5
:1013C000FF3A90460646D146002707EB090404EB96
:1013D000D4746410E50071190846FFF7E3FFA245D5
:1013E000834605F10800304409D0FFF7DBFFC34511
:1013F00000F1FF3005D8404509D2671CE5E7C34539
:1014000005D9A74202D004F1FF39DEE700210846E2
:10141000BDE8F88F08467047012807D0022807D09A
:10142000044B00280CBF1846002070470248704744
:1014300002487047051B0000091B00000D1B00003F
:1014400030B5254B83B004468D1E4BB301A9284609
:10145000AFF30080F0B101992A46FFF7ADFF0146D6
:10146000C0B1FFF79FFF4B68A064012B2ED0002B6B
:1014700001F1040026DBFFF795FF0023C4E9130305
:101480000368002B12DBFFF78DFF00232061184655
:1014900003B030BD002323610923184603B030BDDB
:1014A0000E490F48091AC9100191D5E7C3F303602B
:1014B000FFF7B2FF002814BF00230923206118465C
:1014C00003B030BD0123C4E91303D9E7002323612E
:1014D0000523184603B030BD00000000C4600100C1
:1014E000545C01000368DA0710B5044606D49B0774
:1014F00000F1480009D500F05FFC2368590709D5C1
:101500001A070ED5DB0613D510BD00F04DFC23687D
:101510005907F5D404F1D00000F056FC23681A07EF
:10152000F0D404F5A87000F057FC2368DB06EBD478
:1015300004F5E870BDE8104000F092BC036803B108
:1015400003441846704700BF09207047704700BF2A
:1015500070B504460D4608E02B6C63612A4623698A
:10156000214601209847082808D1296C2046FFF71A
:1015700067FF06460028EFD010F072F90728FBD16C
:101580003046296CFFF7E2FF281D00F001FC00BF88
:101590002DE9F0470C1D054617460FCCADF5727DC1
:1015A00003AE0FC60FCC0FC60FCC0FC694E80F00CA
:1015B00002ACD5F80C80D5F8189086E80F0000230F
:1015C000236021E0236C6B614FF4F07221467AA80E
:1015D00000F070FE2B697AAA294630469847889B0E
:1015E000CDE900498246636431462B462A460120F4
:1015F000C0470746F8B94FF4F0727AA9204600F0C8
:1016000059FEBAF1080F1CD1216C2846FFF718FFCC
:10161000002F08BF0926074618BF0A260028D1D088
:10162000A36B46F01001CDE900492A46636401200E
:101630002B46C04700B1092738460DF5727DBDE83D
:10164000F087BAF1070FF6D13846216CFFF77EFF1D
:1016500003A800F09DFB00BF406C7047F0B5CB6B5A
:101660000B640D1D0F4606460FCDF9B001AC0FC43B
:101670000FCD0FC40FCD0FC495E80F004FF0FF350D
:1016800084E80F00009506E033696A4631469847C2
:101690000828044608D110993046FFF7D1FE0028EB
:1016A000F2D0092079B0F0BD6846FFF71BFF062C89
:1016B000F7D139463046FFF74BFF00BF30B4DD6B42
:1016C000C160826119461D64002230BC60E700BF22
:1016D00070B5C66843690B64BEB903690A4604461F
:1016E0000D46014602209847072807D0082803D155
:1016F00029462046FFF72CFF10F0B2F83046296C3F
:10170000FFF724FF281D00F043FB0122FFF740FFF5
:1017100010F0A6F8C2681AB1CA6B0A64002237E753
:101720009CE700BF704700BF836813B101460120EA
:1017300018477047042907D8DFE801F003080608B6
:1017400008000BB90F2A03D9022070470120704707
:1017500000EB820218465368009A1360704700BF7E
:1017600010B584B0002303AC0A4600941946FFF775
:10177000E1FF039804B010BD042907D8DFE801F0A9
:101780000308060808000BB90F2A03D90220704786
:101790000120704700EB8200009A126842601846F0
:1017A000704700BF10B584B004AC002344F8042D8A
:1017B0000A4600941946FFF7DFFF04B010BD00BFD2
:1017C000F0B5D36B1364151D07460E460FCDADF56E
:1017D0000F7D17AC0FC40FCD0FC40FCD0FC495E80C
:1017E0000F004FF0FF3584E80F00169510E016A8A3
:1017F000FFF7D8FF314616A8B84716AA694678B948
:10180000049B08209847052804460AD0092807D0D9
:1018100026996846FFF714FE6A460C210028E6D098
:10182000092416A8FFF75EFE20460DF50F7DF0BDDA
:101830002DE9F04F0D46C96C89B00C1D164600F01D
:10184000030B0A6806941F46002B68D0130CD9B20C
:1018500012048DF81D30022304EB810405928DF8EB
:101860001C302B6DBBF1020F08BFAC6B13F00103F2
:1018700046D1019300F008030093D4F80090B9F129
:10188000000F00F0F380022F45D0B4F80090B4F8B8
:1018900002800434AB6C28F0010A0F2130469A44D0
:1018A000FFF75EFF824534D829F001035344834299
:1018B00094BF002001204FEA480808F0020809F010
:1018C000010948EA0908B8F1010F3AD031D3B8F15B
:1018D000020F1AD1236823F0004ABBF1000F66D132
:1018E00030B1009A002A6CD0BAF1000F00F090805D
:1018F000002B00DA04340AF1010304EB8304BCE793
:10190000304605A900F046FB78B1092009B0BDE8D2
:10191000F08F0020CFE7D4F804800834BAE7120231
:1019200003230592ADF81C309BE7082009B0BDE801
:10193000F08FBBF1000F02D0002840F0B4800434D7
:101940009BE7BBF1000F18D1A8B1D4E90023991C83
:101950004FEAD272D9D005F158010133049100F059
:10196000B580201DFFF7EAFD04AB01462846AFF322
:101970000080002867D108347FE70D213046D5F874
:101980002080FFF7EDFE8045F5D1AB6A9C42F2D195
:101990002046FFF707FD0F2102463046FFF702FF02
:1019A00030462A460021FFF7FDFE0720AEE70D2155
:1019B0003046D5F82080FFF7D3FE804532D023682B
:1019C00096E7BAF1000F23D005F1580304F104089B
:1019D000CDF808B0DDF800900397A3461C4602E05E
:1019E0005745B94640D040460494FFF7A7FD04ABE5
:1019F000014600222846AFF3008009F1010708F1F3
:101A000004080028ECD0D1455C46DDE902B7D6D108
:101A100030460D21FFF7A4FE049B2862C5E9093476
:101A2000062073E7AB6A9C42C9D104224FF000083C
:101A3000A318C5E90AA8C5E90C23236843454DDB73
:101A40000123019357E780460D213046FFF788FEBA
:101A5000B8F1020F28623ED12B46049A43F82C2F8E
:101A60006B62AC62062051E75C46D1E705A93046BF
:101A700000F090FA00287FF448AF019B002B3FF460
:101A800054AF0F213046FFF76BFE0E210246304661
:101A9000FFF788FE30461A4A0F21FFF783FE072022
:101AA00009B0BDE8F08F2046FFF77CFC0434074600
:101AB000AC632846AFF3008000283FF426AF3046E1
:101AC0003A460F21FFF76EFE07201FE730460D2133
:101AD000FFF746FE2862049B6B62C2E70AF1010031
:101AE00004EB8000FFF75EFC0F2102463046FFF753
:101AF00059FE30462A464146FFF754FE072005E7C7
:101B000000000000002393E6012391E602238FE604
:101B10002DE9F0410546C4B0042906D8DFE801F0FC
:101B20004D2B05030900032B5FD0022044B0BDE814
:101B3000F081002BF9D1102AF7D82B68DC0600F1D0
:101B4000F48022AC2046019200F094F9A86B019A2F
:101B50000023012606FA03F1114203D0016844F87C
:101B6000231004300133042BF4D1A863204600F085
:101B700077F90020DAE7012B4FEA124697B252D0EC
:101B8000052BD2D106EB0708B8F1200FCDD80F2EC8
:101B900040F29980B846002F40F0DB80AA6BAA6320
:101BA0000F2E40F2BE80B8F1000F02D002A800F064
:101BB0000BF9002044B0BDE8F081002BB5D1AC6B2F
:101BC00097B2281D012606FA03F1394203F10103F9
:101BD00002D0216801600434102B00F10400F2D11E
:101BE00012F40050E5D1AC63A0E7160C97B2F319DC
:101BF000102B9AD82B681A075DD422AC204600F02F
:101C00000DF904EBC601AB6B3FB103EBC7021868DB
:101C100041F8040B04339342F9D12046AB6300F042
:101C2000DBF8002082E7F219102A3FF67EAF0F2E74
:101C30003FF67BAF2A68D10708D5284622F0030279
:101C400040F8482B019300F0B3F8019B019322ACBC
:101C5000204600F0ADF8A96B019B002F00F09580A5
:101C60007F0004EBC6044FF00008043C01EB870240
:101C700051F8040B44F8040F9142F9D1B8F1000F68
:101C80000FD002AC102E314638BF102104EBC10139
:101C9000843902EBC80452F8040B41F8040F944253
:101CA000F9D1012B7FF47BAF22AC0432AA6320462A
:101CB00000F07AF87DE723F008032B6005F5A870A3
:101CC00000F0ACF899E7B8F1100F2A6843D9D007B3
:101CD000A8F110080BD5284622F0010242F00202BA
:101CE00040F8482B019300F06BF82A68019B5107DC
:101CF00025D40F2E04D822A8019300F061F8019B8F
:101D0000019302AC204600F063F8C6F110010029EF
:101D1000AA6B019BB6DD22AC4F0004EBC604114652
:101D2000A3E722A800F048F83DE723F010032B605A
:101D300005F5E870019200F09DF8019A01E7284648
:101D400022F0040240F8D02B019300F041F8019BEF
:101D5000CFE72A68CBE7D0070AD5284622F0010250
:101D600042F0020240F8482B019300F029F8019B51
:101D7000019322AC204600F023F8B846A96B019BE2
:101D8000002F7FF46DAF0A4609E70A468DE700BFD2
:101D900000F1340191E838009C46A6464CF8045DF9
:101DA00090E8FF0FE54600BD90EC210B704700BFA7
:101DB00080EC210B704700BF90EC200B704700BFF8
:101DC00080EC200B704700BFD0EC200B704700BFA9
:101DD000C0EC200B704700BFF0EC0201F0EC0211E8
:101DE000F0EC0221F0EC0231F0EC0241F0EC025197
:101DF000F0EC0261F0EC0271F0EC0281F0EC029187
:101E0000F0EC02A1F0EC02B1F0EC02C1F0EC02D176
:101E1000F0EC02E1F0EC02F1704700BFE0EC0201EF
:101E2000E0EC0211E0EC0221E0EC0231E0EC0241D6
:101E3000E0EC0251E0EC0261E0EC0271E0EC0281C6
:101E4000E0EC0291E0EC02A1E0EC02B1E0EC02C1B6
:101E5000E0EC02D1E0EC02E1E0EC02F1704700BFFF
:101E6000B0FC0181B0FC0191B0FC01A1B0FC01B15A
:101E7000704700BFA0FC0181A0FC0191A0FC01A162
:101E8000A0FC01B1704700BFEC4600B52DE9005041
:101E90002DE9FF1F4FF000032DE90C0001A9FFF70A
:101EA000DDFBDDF840E012B0704700BFEC4600B546
:101EB0002DE900502DE9FF1F4FF000032DE90C0024
:101EC00001A9FFF705FCDDF840E012B0704700BF44
:101ED000EC4600B52DE900502DE9FF1F4FF000033F
:101EE0002DE90C0001A9FFF715FCDDF840E012B068
:101EF000704700BFEC4600B52DE900502DE9FF1FEB
:101F00004FF000032DE90C0001ABFFF7D7FBDDF824
:101F100040E012B0704700BFEC4600B52DE900501C
:101F20002DE9FF1F4FF000032DE90C0001AAFFF778
:101F300047FCDDF840E012B0704700BF027A82B97A
:101F4000437AABB14268013B10B44372136803217A
:101F5000141D01721A02446002605DF8044B180EF1
:101F600070470368013A02721A020260180E704745
:101F7000B020704700B585B003AA0023009219462F
:101F80000C22FFF7D7FB039805B05DF804FB00BFF8
:101F9000F0E700BF2DE9F043054685B00E464FF04F
:101FA00000083046FFF7CAFFB028044600F0B180B1
:101FB000070620D500F0F003802B65D0902B36D09B
:101FC000A02B78D0B02B47D0C02B00F08A8000F037
:101FD000F803D02B0BD100F00702013242F40022AB
:101FE000052301212846FFF793FD0028D9D00920B9
:101FF00005B0BDE8F0830DF10C09002319468700F8
:10200000CDF800900D222846FFF794FBFFB2039B0A
:10201000CDF80090043760064CBFDF1BFF1800238B
:1020200019460D2228460397FFF7A6FBB9E700F0F3
:102030000D030D2BDBD003AF002300F00F02194678
:1020400000972846FFF776FB0023009719460D22DC
:102050002846FFF791FBA4E7B1285FD0B22800F033
:10206000CC80B3287ED000F0FC03B42BBFD000F0AE
:1020700007020132012342F4002219462846FFF7E5
:1020800047FD00288DD0B2E73046FFF757FF240206
:102090000443B4F5004FAAD024010023A2B219468C
:1020A0002846FFF735FD0028A1D114F4004F18BFD2
:1020B0004FF0010875E7C24302F007034FF47F6257
:1020C0001A41010702F47F624FF0000348BF42F457
:1020D000804219462846FFF71BFD00283FF461AFF8
:1020E00085E7C62851D0C7285AD000F0F803C02B86
:1020F00069D0C82875D0C9287FF479AF3046FFF77A
:102100001DFF020300F00F0002F4702201300243B1
:1021100066E7B8F1000F14D0002069E73046FFF7FA
:102120000DFF00283FF463AF10F0F0037FF45FAFC2
:10213000024619462846FFF7EBFC00283FF431AF72
:1021400055E703AC43460E22414600942846FFF76C
:10215000F1FA0094284643460F224146FFF70CFB54
:10216000404645E73046FFF7E9FE010300F00F0067
:1021700001F47021421C01230A4328461946FFF747
:10218000C7FC00283FF40DAF31E73046FFF7D6FE1D
:10219000010300F00F0001F47021421C0323EBE760
:1021A0003046FFF7CBFE024600283FF420AF10F088
:1021B000F0037FF41CAF04212846FFF7A9FC002898
:1021C0003FF4EFAE13E700F00F020132032342F4B5
:1021D000202219462846FFF79BFC00283FF4E1AE79
:1021E00005E73046FFF7AAFE00F0F00200F00F030B
:1021F0001032013343EA0232F2E600230DF10C09FA
:102200000D221946CDF800902846FFF793FA304684
:10221000FFF794FE02064FF002070CD5039B00F077
:102220007F00B840034430460393FFF787FE030660
:1022300007F10707F2D4039BCDF8009000F07F046C
:1022400003F50172BC400023144419460D222846B0
:102250000394FFF791FAA4E610B5C36C84B05A68F2
:1022600003208DF80C00DC798DF80D401202083344
:10227000084601A901920293FFF78CFE04B010BD3D
:1022800008B5FFF785FE806C08BD00BF08B5FFF7F5
:102290007FFEC06CC37900EB8300083008BD00BF2F
:1022A00008B50FF0DDFA00BF08B5FFF7F9FF00BF72
:1022B000704700BF844641EA000313F003036DD169
:1022C000403A41D351F8043B40F8043B51F8043BF9
:1022D00040F8043B51F8043B40F8043B51F8043B00
:1022E00040F8043B51F8043B40F8043B51F8043BF0
:1022F00040F8043B51F8043B40F8043B51F8043BE0
:1023000040F8043B51F8043B40F8043B51F8043BCF
:1023100040F8043B51F8043B40F8043B51F8043BBF
:1023200040F8043B51F8043B40F8043B51F8043BAF
:1023300040F8043B51F8043B40F8043B51F8043B9F
:1023400040F8043B403ABDD2303211D351F8043B3F
:1023500040F8043B51F8043B40F8043B51F8043B7F
:1023600040F8043B51F8043B40F8043B103AEDD2EE
:102370000C3205D351F8043B40F8043B043AF9D23F
:10238000043208D0D2071CBF11F8013B00F8013B12
:1023900001D30B8803806046704700BF082A13D31F
:1023A0008B078DD010F003038AD0C3F10403D21A37
:1023B000DB071CBF11F8013B00F8013B80D331F86B
:1023C000023B20F8023B7BE7043AD9D3013A11F8EB
:1023D000013B00F8013BF9D20B7803704B78437056
:1023E0008B7883706046704700000000000000009A
:1023F00001F0FF01102A2BDB10F0070F08D010F8B6
:10240000013B013A8B422DD010F0070F42B3F6D1B9
:10241000F0B441EA012141EA014122F007047FF0D2
:1024200000070023F0E80256083C85EA010586EA29
:10243000010685FA47F5A3FA87F586FA47F6A5FA65
:1024400087F68EB9EED1F0BC01F0FF0102F0070271
:1024500032B110F8013B013A83EA010313B1F8D11C
:102460000020704701387047002D06BF35460338FD
:10247000073815F0010F07D1013015F4807F02BF36
:10248000013015F4C03F0130F0BC0138704700BF87
:10249000000000000000000000000000000000003C
:1024A000000000000000000000000000000000002C
:1024B000000000000000000000000000000000001C
:1024C00090F800F06DE9024520F007016FF0000C74
:1024D00010F0070491F820F040F049804FF000041C
:1024E0006FF00700D1E9002391F840F000F10800F7
:1024F00082FA4CF2A4FA8CF283FA4CF3A2FA8CF32F
:102500004BBBD1E9022382FA4CF200F10800A4FA95
:102510008CF283FA4CF3A2FA8CF3E3B9D1E90423E9
:1025200082FA4CF200F10800A4FA8CF283FA4CF320
:10253000A2FA8CF37BB9D1E9062301F1200182FADA
:102540004CF200F10800A4FA8CF283FA4CF3A2FAE0
:102550008CF3002BC6D0002A04BF04301A4612BAEE
:10256000B2FA82F2FDE8024500EBD2007047D1E9F1
:10257000002304F00305C4F100004FEAC50514F080
:10258000040F91F840F00CFA05F562EA05021CBF51
:1025900063EA050362464FF00004A9E790B589B0ED
:1025A00000AFF860B9607A604FF000034FF00004AC
:1025B000C7E906347B683B6100237B6120E07B69CF
:1025C0009B00FA6813441B681846FEF7ABF90346F4
:1025D0000C46386944EC103B0DF026FE54EC103BE1
:1025E0001A462346D7E90601FEF760F803460C4673
:1025F000C7E906343B6920333B617B6901337B616A
:102600007A69BB689A42DADBD7E9063444EC173BB7
:10261000B0EE470AF0EE670A2437BD4690BD80B49D
:1026200091B000AFF860B9607A603B6000237B63D3
:1026300008E07B6B9B00BA6C134400221A607B6B32
:1026400001337B637A6BFB6C9A42F2DB0023FB6302
:10265000A8E000233B63FB6B9B00FA6813441B68F4
:10266000FB62FB6A1B0CBB62FB6A9BB27B62FA6C6F
:10267000FB6BD31A3B623A6A3B689342A8BF13468E
:102680003B62FB6B7B630023BB637AE0BB6B9B000D
:102690007A6813441B68FB62FB6A1B0CFB61FB6AD4
:1026A0009BB2FB62BB6AFA6A02FB03F3BB617B6A03
:1026B000FA6902FB03F37B617B6B9B00BA6C1344EA
:1026C0001B683A6B13443B613A693B6B9A4234BFD7
:1026D00001230023DBB23B63FB6A7A6A02FB03F34C
:1026E000FB623A69FB6A13443B613A69FB6A9A42AE
:1026F00034BF01230023DBB21A463B6B13443B6318
:10270000BB691B04FB623A69FB6A13443B613A698B
:10271000FB6A9A4234BF01230023DBB21A463B6BAB
:1027200013443B637B691B04FB623A69FB6A1344F5
:102730003B613A69FB6A9A4234BF01230023DBB252
:102740001A463B6B13443B637B6B9B00BA6C134490
:102750003A691A60BB691B0C3A6B13443B637B6993
:102760001B0C3A6B13443B63BB6AFA6902FB03F32D
:102770003A6B13443B637B6B01337B63BB6B01336D
:10278000BB63BA6B3B6A9A4280DB7A6BFB6C9A4202
:1027900005DA7B6B9B00BA6C13443A6B1A60FB6BD7
:1027A0000133FB63FA6BBB689A42FFF652AF00BF7E
:1027B0004437BD465DF8047B704780B48DB000AFF0
:1027C000F860B9607A603B60FB681B0CBB62FB6819
:1027D0009BB27B62BB681B0C3B62BB689BB2FB621B
:1027E000BB6AFA6A02FB03F3FB617B6A3A6A02FB8B
:1027F00003F3BB617B6AFA6A02FB03F37B6200238B
:10280000FB62BB691B047A6A13447B617A697B6A49
:102810009A4201D20123FB627B697B62FB691B0444
:102820007A6913447B617A697B6A9A4202D2FB6AB5
:102830000133FB62BB691A0CFB691B0C1A44BB6AAF
:10284000396A01FB03F31A44FB6A1A447B681A6075
:102850003B687A691A6000BF3437BD465DF8047B77
:10286000704780B584B000AF7860396007F10C0321
:1028700007F1080239687868FFF79FFFBB68002BF3
:1028800002D04FF0FF33FB60FB6818461037BD469F
:1028900080BD000080B483B000AF854BD3F8143204
:1028A000702B08D0834B002283F8FC24814B062236
:1028B00083F8F924F5E07F4B93F8FC34013B032BBC
:1028C00000F2B38001A252F823F000BFDD2800001F
:1028D0003729000069290000A3290000744B93F8F0
:1028E000AF33002B16D1734B012283F8FC24704BBD
:1028F000D3F8083201337B606D4BD3F808327A6825
:102900009A4202D24FF0FF337B60694A7B68C2F87B
:102910000832C6E0674B032283F8FC24654B002293
:10292000C3F89024624B012283F8AD23604B01224F
:1029300083F8AE23B5E05E4B002283F8AD235C4BF9
:1029400093F8AF33002B00F0A5805A4B052283F893
:10295000FC24584B0022C3F89024554BD3F8203266
:10296000534AC2F8083295E0514B012283F8AD2357
:10297000504BD3F89034002B00F08E804D4B042246
:1029800083F8FC244B4B0022C3F89024484B0022D0
:1029900083F8AD23464BD3F82032454AC2F80832BB
:1029A0007AE0434B002283F8AD23414BD3F8203229
:1029B000013B7B603E4BD3F820327A689A4201D9C2
:1029C00000237B603B4BD3F890347A689A4265D8F9
:1029D000374B93F8AF33002B16D1364B012283F8D7
:1029E000FC24334BD3F8083201337B60304BD3F8EF
:1029F00008327A689A4202D24FF0FF337B602C4A49
:102A00007B68C2F8083249E02A4B032283F8FC2491
:102A1000284B0022C3F89024254B012283F8AD23D4
:102A2000234B012283F8AE2338E0224BD3F89024C5
:102A30001F4BD3F820329A4232D31D4B93F8AF3359
:102A4000002B16D11B4B012283F8FC24184BD3F822
:102A5000083201337B60164BD3F808327A689A4209
:102A600002D24FF0FF337B60114A7B68C2F8083214
:102A700016E0104B032283F8FC240E4B0022C3F80F
:102A800090240B4B012283F8AD23094B012283F8DC
:102A9000AE2305E000BF04E000BF02E000BF00E09D
:102AA00000BF00BF0C37BD465DF8047B704700BF18
:102AB000D01100208815002080B483B000AF854B72
:102AC000D3F81432B3F58C6F08D0834B002283F80F
:102AD000FA24814B062283F8F924F4E07E4B93F824
:102AE000FA34013B032B00F2B28001A252F823F02A
:102AF000012B00005B2B00008D2B0000C72B00007A
:102B0000744B93F8AF33002B16D1734B012283F82B
:102B1000FA24704BD3F8083201337B606D4BD3F845
:102B200008327A689A4202D24FF0FF337B60694ADA
:102B30007B68C2F80832C6E0674B032283F8FA24A8
:102B4000654B0022C3F89024624B012283F8AD2329
:102B5000604B012283F8AE23B5E05E4B002283F880
:102B6000AD235C4B93F8AF33002B00F0A5805A4B9C
:102B7000052283F8FA24584B0022C3F89024554BC1
:102B8000D3F82032534AC2F8083295E0514B012263
:102B900083F8AD23504BD3F89034002B00F08E8097
:102BA0004D4B042283F8FA244B4B0022C3F89024A7
:102BB000484B002283F8AD23464BD3F82032454AD8
:102BC000C2F808327AE0434B002283F8AD23414B30
:102BD000D3F82032013B7B603E4BD3F820327A6839
:102BE0009A4201D900237B603B4BD3F890347A683A
:102BF0009A4265D8374B93F8AF33002B16D1364B3A
:102C0000012283F8FA24334BD3F8083201337B6076
:102C1000304BD3F808327A689A4202D24FF0FF3331
:102C20007B602C4A7B68C2F8083249E02A4B0322B9
:102C300083F8FA24284B0022C3F89024254B012264
:102C400083F8AD23234B012283F8AE2338E0224BD7
:102C5000D3F890241F4BD3F820329A4232D31D4B25
:102C600093F8AF33002B16D11B4B012283F8FA24C3
:102C7000184BD3F8083201337B60164BD3F8083277
:102C80007A689A4202D24FF0FF337B60114A7B6828
:102C9000C2F8083216E0104B032283F8FA240E4BD8
:102CA0000022C3F890240B4B012283F8AD23094B7B
:102CB000012283F8AE2305E000BF04E000BF02E07C
:102CC00000BF00E000BF00BF0C37BD465DF8047BCD
:102CD000704700BFD011002088150020B0B586B025
:102CE00000AF87ED010AC7ED000A97ED010A08F071
:102CF00049FF0346002B06D197ED000A08F042FF7A
:102D00000346002B03D07F4B1B687B61F2E07868A1
:102D1000FDF72AFE03460C4644EC103B0DF0F0F99B
:102D200054EC103B18462146FEF76EF903463B6112
:102D30003868FDF719FE03460C4644EC103B0DF0D5
:102D4000DFF954EC103B18462146FEF75DF90346C7
:102D5000FB6097ED000A08F0B9FE0346002B33D064
:102D6000D7ED047AB7EE007AF4EE477AF1EE10FA76
:102D700003D14FF07E537B61BCE0D7ED047AB7EE10
:102D8000007AF4EEC77AF1EE10FA0EDDD7ED007A94
:102D9000F5EEC07AF1EE10FA03DD5B4B1B687B6148
:102DA000A8E04FF000037B61A4E0D7ED007AF5EED8
:102DB000C07AF1EE10FA03DD4FF000037B6199E079
:102DC000514B1B687B6195E0D7ED037AF5EE407AB5
:102DD000F1EE10FA03D14FF07E537B618AE0D7ED1C
:102DE000037AB7EE007AF4EE477AF1EE10FA12D1D8
:102DF000D7ED007AF5EEC07AF1EE10FA02DD7B68CD
:102E00007B6177E0F7EE006A97ED017AC6EE877A8C
:102E1000C7ED057A6EE0D7ED007AB0EE007AF4EEF9
:102E2000477AF1EE10FA08D197ED017AD7ED017AE1
:102E300067EE277AC7ED057A5CE0D7ED007AB6EE4B
:102E4000007AF4EE477AF1EE10FA18D1D7ED017A54
:102E5000F5EEC07AF1EE10FA11DB7868FDF784FD2B
:102E600003460C4644EC103B0DF0AAFC54EC103B1E
:102E700018462146FEF7C8F803467B613AE0D7EDD5
:102E8000017AF5EEC07AF1EE10FA1BD53868FDF73D
:102E90006BFD03460C4644EC103B0DF03DF954EC41
:102EA000103B18462146FEF7AFF807EE100AD7EDA3
:102EB000007AF4EEC77AF1EE10FA03DD114B1B68CD
:102EC0007B6117E07868FDF74FFD04460D463868D2
:102ED000FDF74AFD02460B4643EC112B45EC104B27
:102EE0000DF0D2FA54EC103B18462146FEF78CF850
:102EF00003467B617B6907EE903AB0EE670A1837AC
:102F0000BD46B0BD004F0020F84E002090B585B002
:102F100000AF87ED000B97ED000B0DF0F1F851ECD1
:102F2000100B4FF00002334BFDF7E8FF0346002B78
:102F300050D04FF00002304BD7E90001FDF7F2FF0F
:102F40000346002B17D04FF000022B4BD7E90001AE
:102F5000FDF7ACFB03460C4644EC173BB0EE470ACA
:102F6000F0EE670A0DF0D8F8B0EE407AF0EE607A35
:102F700087ED027B32E04FF00002204BD7E90001E1
:102F8000FDF7DAFF0346002B0CD04FF000024FF0A4
:102F90000003D7E90001FDF73FFD03460C46C7E9F2
:102FA00002341BE04FF00002134BD7E90001FDF79C
:102FB0007BFB03460C4644EC173BB0EE470AF0EEB1
:102FC000670A0DF015F8B0EE407AF0EE607A87ED02
:102FD000027B03E0D7E90034C7E90234D7E90234C1
:102FE00044EC173BB0EE470AF0EE670A1437BD46D3
:102FF00090BD00BF000030430000E03F0000E0BF94
:10300000F8B500AF934BD3F81422934BD3F87C342C
:103010009A4212D0904B002283F8EB248E4B06226A
:1030200083F8E9248B4B4FF00002C3F84022894B10
:103030004FF00002C3F844221DE2874B93F8EB34B3
:10304000013B032B00F2D08101A252F823F000BF14
:10305000613000000B31000065320000AD3300002C
:103060007D4BD3F888447B4B93ED6C7BB0EE470AE5
:10307000F0EE670A0CF0BCFF53EC102B104619461B
:10308000FDF7A2FF03469C42C0F0EC81724B042284
:1030900083F8EB24704B0022C3F888246F4B93F81D
:1030A000B5206C4B83F8A6236C4B93F8B520694B85
:1030B00083F8AA23674BD3E96034664AC2E96434D3
:1030C000664B93F8B420634B83F8A723634B93F8C4
:1030D000B420604B83F8A823604B93F8B5205D4B78
:1030E00083F8AB235D4B93F8B5205A4B83F8AC23A0
:1030F0005A4B93F8B420574B83F8A523574B93F8BA
:10310000B520544B83F8A923ACE1524BD3E9664573
:10311000504BD3F8F4311846FDF704FC02460B4639
:1031200020462946FDF7F4FE0346002B37D0494BD5
:1031300093F8AF23494B93F8B5309A421DD1454BD4
:10314000D3E95A45434BD3F82C321846FDF7EAFB36
:103150000A46014601231E4613460A4620462946D2
:10316000FDF7CCFE0346002B01D100231E46F3B22F
:1031700083F00103DBB2002B11D0374B022283F81E
:10318000EB24344BD3E966014FF00002344BFDF7DA
:103190008DFA03460C462F4AC2E9663464E12D4B92
:1031A00093F8AF232D4B93F8B5309A4240F05C81F1
:1031B000284BD3E95A45274BD3F82C321846FDF754
:1031C000B1FB02460B4620462946FDF797FE034613
:1031D000002B00D148E1204B012283F8EB241E4B49
:1031E0000022C3F888241D4B93F8B520194B83F8AF
:1031F000A7231A4B93F8B420164B83F8A823174B38
:1032000093F8B420134B83F8A623144B93F8B520FE
:10321000104B83F8A523114B93F8B5200D4B83F881
:10322000AB230E4B93F8B5200A4B83F8AC230B4B22
:1032300093F8B520074B83F8A923084B93F8B520E2
:10324000044B83F8AA23034BD3E96034014AC2E953
:10325000643409E1D011002088150020000000200E
:103260000000F03F854B93F8AF23854B93F8B530C2
:103270009A4250D1814BD3E95A45804BD3F828323A
:103280001846FDF74FFB02460B4620462946FDF740
:1032900035FE0346002B3ED07A4B012283F8EB2407
:1032A000784B0022C3F88824754B93F8B520734BF4
:1032B00083F8A723724B93F8B420704B83F8A823AC
:1032C0006F4B93F8B4206D4B83F8A6236C4B93F8A7
:1032D000B5206A4B83F8A523694B93F8B520674B5B
:1032E00083F8AB23664B93F8B520644B83F8AC238B
:1032F000634B93F8B520614B83F8A923604B93F897
:10330000B5205E4B83F8AA235C4BD3E960345B4A5B
:10331000C2E96434AAE0594BD3E96645574BD3F868
:10332000F4311846FDF7FEFA02460B4620462946C0
:10333000FDF7EEFD0346002B00D197E04F4B93F8CD
:10334000AF234F4B93F8B5309A421DD14B4BD3E985
:103350005A454A4BD3F82C321846FDF7E3FA0A4691
:10336000014601231E4613460A4620462946FDF71C
:10337000C5FD0346002B01D100231E46F3B283F0A6
:103380000103DBB2002B71D03E4B032283F8EB2408
:103390003A4BD3E966014FF000023B4BFDF786F94B
:1033A00003460C46354AC2E966345FE0354BD3F834
:1033B0008824324BD3F820329A4259D3314B05221C
:1033C00083F8EB242F4B0022C3F888242B4BD3F82F
:1033D00068322A4AC2F84832284A4FF000034FF0B8
:1033E0000004C2E9663443E0244B93F8A333002B76
:1033F00019D1244BD3F88824204BD3F8F8319A42C2
:1034000011D3204B022283F8EB241C4BD3E9660135
:103410004FF000021C4BFDF749F903460C46174AD2
:10342000C2E9663426E0154B93F8A333012B21D172
:10343000144BD3F88824114BD3F8F8319A4219D39E
:10344000104B032283F8EB240C4BD3E966014FF0B9
:1034500000020D4BFDF72AF903460C46074AC2E964
:10346000663407E000BF06E000BF04E000BF02E0F2
:1034700000BF00E000BF00BFF8BD00BFD0110020BA
:1034800000000020881500200000F03FB0B500AF1C
:10349000B74BD3F814321846FDF744FAB54BD3E9CD
:1034A000F0341A462346FDF71FFD0346002B12D1C8
:1034B000B04B002283F8EC24AE4B062283F8E924BB
:1034C000AB4B4FF00002C3F84022A94B4FF0000273
:1034D000C3F844226DE1A74B93F8EC34013B032B76
:1034E00000F2338101A252F823F000BFFD34000046
:1034F000A73500005D3600001D3700009D4BD3F856
:1035000088449B4B93ED6C7BB0EE470AF0EE670A64
:103510000CF06EFD53EC102B10461946FDF754FDD0
:1035200003469C42C0F03C81924B042283F8EC2479
:10353000904B0022C3F888248F4B93F8B5208C4B16
:1035400083F8A6238C4B93F8B520894B83F8AA23E4
:10355000874BD3E96034864AC2E96434864B93F8DA
:10356000B420834B83F8A723834B93F8B420804B7C
:1035700083F8A823804B93F8B5207D4B83F8AB23C9
:103580007D4B93F8B5207A4B83F8AC237A4B93F8B4
:10359000B420774B83F8A523774B93F8B520744B71
:1035A00083F8A923FCE0724B93F8AF23724B93F896
:1035B000B5309A4240F0F6806D4BD3E95A456C4BDA
:1035C000D3F854321846FDF7CFF902460B46204691
:1035D0002946FDF793FC0346002B00D1E2E0654B42
:1035E000012283F8EC24634B0022C3F88824624B49
:1035F00093F8B5205E4B83F8A7235F4B93F8B42074
:103600005B4B83F8A8235C4B93F8B420584B83F8AA
:10361000A623594B93F8B520554B83F8A523564B59
:1036200093F8B520524B83F8AB23534B93F8B52056
:103630004F4B83F8AC23504B93F8B5204C4B83F899
:10364000A9234D4B93F8B520494B83F8AA23484B47
:10365000D3E96034464AC2E96434A3E0444B93F8AA
:10366000AF23454B93F8B5309A4240F09D80404BD4
:10367000D3E95A453E4BD3ED957AB1EE047A77EE15
:10368000C77A17EE900AFDF76FF902460B462046FF
:103690002946FDF733FC0346002B00D184E0354B6F
:1036A000012283F8EC24334B0022C3F88824324BE8
:1036B00093F8B5202E4B83F8A7232F4B93F8B42013
:1036C0002B4B83F8A8232C4B93F8B420284B83F87A
:1036D000A623294B93F8B520254B83F8A523264B29
:1036E00093F8B520224B83F8AB23234B93F8B520F6
:1036F0001F4B83F8AC23204B93F8B5201C4B83F869
:10370000A9231D4B93F8B520194B83F8AA23184B16
:10371000D3E96034164AC2E9643445E0154BD3F866
:103720008824134BD3F820329A423FD3114B052201
:1037300083F8EC240F4B0022C3F888240C4BD3F8F9
:1037400068320B4AC2F8483230E0094B93F8A33391
:10375000002B13D1074BD3F88824054BD3F8003244
:103760009A420BD3034B022283F8EC2420E000BFE3
:10377000D011002088150020000000200E4B93F887
:10378000A333012B14D10D4BD3F888240A4BD3F863
:1037900000329A420CD3094B032283F8EC2407E051
:1037A00000BF06E000BF04E000BF02E000BF00E091
:1037B00000BF00BFB0BD00BFD011002088150020A1
:1037C00098B52DED028B00AF684BD3F81422684BEF
:1037D000D3F884349A4212D0654B002283F8ED244A
:1037E000634B062283F8E924604B4FF00002C3F8D4
:1037F00040225E4B4FF00002C3F84422B1E05C4B24
:1038000093F8ED34012B59D1594BD3F8883407EE96
:10381000903AB8EE678A554BD3ED8F8A534BD3E974
:103820006C3418462146FDF7EFFB07EE900A78EE60
:10383000E77AB4EEE78AF1EE10FA00DA91E04C4B49
:10384000022283F8ED244A4B0022C3F88824494B16
:1038500093F8B520454B83F8A723464B93F8B42043
:10386000424B83F8A823434B93F8B4203F4B83F893
:10387000A623404B93F8B5203C4B83F8A5233D4B42
:1038800093F8B520394B83F8AB233A4B93F8B52026
:10389000364B83F8AC23374B93F8B520334B83F882
:1038A000A923344B93F8B520304B83F8AA232F4B30
:1038B000D3E960342D4AC2E9643452E02C4BD3F88A
:1038C00088442A4B93ED6C7BB0EE470AF0EE670A12
:1038D0000CF08EFB53EC102B10461946FDF774FBD1
:1038E00003469C423DD3224B012283F8ED24204B1A
:1038F0000022C3F888241F4B93F8B5201B4B83F894
:10390000A6231C4B93F8B520184B83F8AA23174B1A
:10391000D3E96034154AC2E96434164B93F8B420F5
:10392000124B83F8A723134B93F8B4200F4B83F863
:10393000A823104B93F8B5200C4B83F8AB230D4B09
:1039400093F8B520094B83F8AC230A4B93F8B420C5
:10395000064B83F8A523074B93F8B520034B83F858
:10396000A92300BFBD46BDEC028B98BDD01100203D
:10397000881500200000002090B585B000AF824B74
:10398000D3F814321846FCF7CDFF804BD3E9EA3464
:103990001A462346FDF7A8FA0346002B12D17B4BAB
:1039A000002283F8EA24794B062283F8E924764B37
:1039B0004FF00002C3F84022734B4FF00002C3F8EF
:1039C0004422DDE0714B93F8EA34012B40F085800E
:1039D0006D4BD3F8E8311846FCF7A4FF6A4BD3E9E6
:1039E0006C341A462346FCF75FFE03460C4644EC53
:1039F000173BB0EE470AF0EE670AFFF787FAB0EE22
:103A0000407AF0EE607A87ED007B4FF00002604B69
:103A1000D7E90001FDF772FA0346002B14D04FF0EE
:103A200000024FF00003D7E90001FDF77BFA0346DF
:103A3000002B06D0D7E90001FDF7C6FA0346FB606C
:103A400005E00023FB6002E04FF0FF33FB604F4BCB
:103A5000D3F88834FA689A4200F292804B4B0222E3
:103A600083F8EA24494B0022C3F88824494B93F891
:103A7000B520454B83F8A723464B93F8B420424B1F
:103A800083F8A823434B93F8B4203F4B83F8A62335
:103A9000404B93F8B5203C4B83F8A5233D4B93F85E
:103AA000B520394B83F8AB233A4B93F8B520364B0E
:103AB00083F8AC23374B93F8B520334B83F8A92315
:103AC000344B93F8B520304B83F8AA232E4BD3E91F
:103AD00060342D4AC2E9643452E02C4BD3F8884458
:103AE000294B93ED6C7BB0EE470AF0EE670A0CF0C1
:103AF0007FFA53EC102B10461946FDF765FA034682
:103B00009C423DD3214B012283F8EA241F4B002223
:103B1000C3F888241F4B93F8B5201B4B83F8A623CA
:103B20001C4B93F8B520184B83F8AA23164BD3E906
:103B30006034154AC2E96434164B93F8B420124B32
:103B400083F8A723134B93F8B4200F4B83F8A823D3
:103B5000104B93F8B5200C4B83F8AB230D4B93F827
:103B6000B520094B83F8AC230A4B93F8B420064BDD
:103B700083F8A523074B93F8B520034B83F8A923BB
:103B800000BF1437BD4690BDD0110020881500201D
:103B90000000F04100000020B0B500AFB14B4FF085
:103BA0000002C3F84022AF4B4FF00002C3F844229A
:103BB000AC4BD3F81422AC4BD3F884349A4242D1A4
:103BC000A94B032283F8E924A74B012283F8ED24B3
:103BD000A54B0022C3F88824A44B93F8B520A14B31
:103BE00083F8A623A14B93F8B5209E4B83F8AA2314
:103BF0009C4BD3E960349B4AC2E964349B4B93F8F5
:103C0000B420984B83F8A723984B93F8B420954B96
:103C100083F8A823954B93F8B520924B83F8AB23F8
:103C2000924B93F8B5208F4B83F8AC238F4B93F8CE
:103C3000B4208C4B83F8A5238C4B93F8B520894B8B
:103C400083F8A923C1E1874BD3F814321846FCF757
:103C500069FE854BD3E9EA341A462346FDF744F959
:103C60000346002B42D0804B042283F8E9247E4B8C
:103C7000012283F8EA247C4B0022C3F888247B4B82
:103C800093F8B520774B83F8A623784B93F8B520AB
:103C9000744B83F8AA23734BD3E96034714AC2E9A9
:103CA0006434724B93F8B4206E4B83F8A7236F4BA8
:103CB00093F8B4206B4B83F8A8236C4B93F8B52092
:103CC000684B83F8AB23694B93F8B520654B83F8B9
:103CD000AC23664B93F8B420624B83F8A523634B67
:103CE00093F8B5205F4B83F8A9236EE15D4BD3F8C1
:103CF00014321846FCF716FE5B4BD3E9EC341A4637
:103D00002346FDF7F1F80346002B12D0564B0A224A
:103D100083F8E924544B052283F8F024524B002207
:103D2000C3F888244F4BD3F870324E4AC2F84C3255
:103D30004BE14C4BD3F814321846FCF7F3FD4A4BD9
:103D4000D3E9EE341A462346FDF7CEF80346002B9E
:103D500042D0454B082283F8E924434B012283F8E3
:103D6000F124414B0022C3F88824404B93F8B5203E
:103D70003C4B83F8A6233D4B93F8B520394B83F891
:103D8000AA23384BD3E96234364AC2E96434374B4C
:103D900093F8B420334B83F8A723344B93F8B42023
:103DA000304B83F8A823314B93F8B5202D4B83F883
:103DB000AB232E4B93F8B5202A4B83F8AC232B4B27
:103DC00093F8B520274B83F8A523284B93F8B4200C
:103DD000244B83F8A923F8E0224BD3F81432184679
:103DE000FCF7A0FD204BD3E9F0341A462346FDF73B
:103DF0007BF80346002B12D01B4B022283F8E924E8
:103E0000194B052283F8EC24174B0022C3F88824B1
:103E1000144BD3F86832134AC2F84832D5E0114B3C
:103E2000D3F81422104BD3F880349A4220D10E4B91
:103E3000092283F8E9240C4B052283F8EE240A4B6F
:103E40000022C3F88824074BD3F87032054AC2F821
:103E50004C32044A4FF000034FF00004C2E96634CC
:103E6000B3E000BFD0110020881500200000002022
:103E7000594BD3F814321846FCF754FD04460D464E
:103E8000564BD3F86C341846FCF75CFD02460B46E3
:103E900020462946FDF728F80346002B42D04F4B19
:103EA000072283F8E9244D4B012283F8EF244B4B82
:103EB0000022C3F888244A4B93F8B520464B83F878
:103EC000A623474B93F8B520434B83F8AA23424BD4
:103ED000D3E96234404AC2E96434414B93F8B420D8
:103EE0003D4B83F8A7233E4B93F8B4203A4B83F81D
:103EF000A8233B4B93F8B520374B83F8AB23384BC3
:103F000093F8B520344B83F8AC23354B93F8B520A8
:103F1000314B83F8A523324B93F8B4202E4B83F812
:103F2000A92352E02C4BD3F814222C4BD3F87C3429
:103F30009A4219D1294B012283F8E924274B052203
:103F400083F8EB24254B0022C3F88824224BD3F8B6
:103F50006832214AC2F848321F4A4FF000034FF03E
:103F60000004C2E9663430E01B4B93F8AE33002BFB
:103F70002BD11A4B052283F8E924184B6422C3F88D
:103F80008424164BC822C3F86C24144B7022C3F847
:103F90007C24124BDE22C3F88024104A4FF0000329
:103FA000104CC2E9EA340D4A4FF000030E4CC2E94E
:103FB000F0340A4A4FF000030C4CC2E9EE34074AD1
:103FC00003A4D4E90034C2E9EC3400BFB0BD00BFA3
:103FD000000000000058A140D011002088150020EA
:103FE0000000002000408F400080914000409F4032
:103FF000F8B500AF934BD3F81422934BD3F8803429
:104000009A4212D0904B002283F8EE248E4B062267
:1040100083F8E9248B4B4FF00002C3F84022894B10
:104020004FF00002C3F844221DE2874B93F8EE34B0
:10403000013B032B00F2D08101A252F823F000BF14
:1040400051400000FB400000554200009D4300002D
:104050007D4BD3F888447B4B93ED727BB0EE470ADF
:10406000F0EE670A0BF0C4FF53EC102B1046194614
:10407000FCF7AAFF03469C42C0F0EC81724B04227D
:1040800083F8EE24704B0022C3F888246F4B93F81A
:10409000B5206C4B83F8A6236C4B93F8B520694B85
:1040A00083F8AA23674BD3E96234664AC2E96434D1
:1040B000664B93F8B420634B83F8A723634B93F8C4
:1040C000B420604B83F8A823604B93F8B5205D4B78
:1040D00083F8AB235D4B93F8B5205A4B83F8AC23A0
:1040E0005A4B93F8B520574B83F8A523574B93F8B9
:1040F000B420544B83F8A923ACE1524BD3E9664575
:10410000504BD3F8F4311846FCF70CFC02460B4632
:1041100020462946FCF7FCFE0346002B37D0494BCE
:1041200093F8B023494B93F8B5309A421DD1454BD3
:10413000D3E95A45434BD3F82C321846FCF7F2FB2F
:104140000A46014601231E4613460A4620462946D2
:10415000FCF7D4FE0346002B01D100231E46F3B228
:1041600083F00103DBB2002B11D0374B022283F81E
:10417000EE24344BD3E966014FF00002344BFCF7D8
:1041800095FA03460C462F4AC2E9663464E12D4B8A
:1041900093F8B0232D4B93F8B5309A4240F05C81F0
:1041A000284BD3E95A45274BD3F82C321846FCF755
:1041B000B9FB02460B4620462946FCF79FFE034604
:1041C000002B00D148E1204B012283F8EE241E4B46
:1041D0000022C3F888241D4B93F8B520194B83F8AF
:1041E000A7231A4B93F8B420164B83F8A823174B38
:1041F00093F8B520134B83F8A623144B93F8B520FE
:10420000104B83F8A523114B93F8B5200D4B83F881
:10421000AB230E4B93F8B5200A4B83F8AC230B4B22
:1042200093F8B520074B83F8A923084B93F8B420E3
:10423000044B83F8AA23034BD3E96234014AC2E951
:10424000643409E1D011002088150020000000200E
:104250000000F03F854B93F8B023854B93F8B530C1
:104260009A4250D1814BD3E95A45804BD3F828323A
:104270001846FCF757FB02460B4620462946FCF73A
:104280003DFE0346002B3ED07A4B012283F8EE24FC
:10429000784B0022C3F88824754B93F8B520734BF4
:1042A00083F8A723724B93F8B420704B83F8A823AC
:1042B0006F4B93F8B5206D4B83F8A6236C4B93F8A6
:1042C000B5206A4B83F8A523694B93F8B520674B5B
:1042D00083F8AB23664B93F8B520644B83F8AC238B
:1042E000634B93F8B520614B83F8A923604B93F897
:1042F000B4205E4B83F8AA235C4BD3E962345B4A5B
:10430000C2E96434AAE0594BD3E96645574BD3F868
:10431000F4311846FCF706FB02460B4620462946B8
:10432000FCF7F6FD0346002B00D197E04F4B93F8C6
:10433000B0234F4B93F8B5309A421DD14B4BD3E984
:104340005A454A4BD3F82C321846FCF7EBFA0A468A
:10435000014601231E4613460A4620462946FCF71D
:10436000CDFD0346002B01D100231E46F3B283F09E
:104370000103DBB2002B71D03E4B032283F8EE2405
:104380003A4BD3E966014FF000023B4BFCF78EF944
:1043900003460C46354AC2E966345FE0354BD3F834
:1043A0008824324BD3F838329A4259D3314B052204
:1043B00083F8EE242F4B0022C3F888242B4BD3F82C
:1043C00070322A4AC2F84C32284A4FF000034FF0AC
:1043D0000004C2E9663443E0244B93F8A333002B76
:1043E00019D1244BD3F88824204BD3F8F8319A42C2
:1043F00011D3204B022283F8EE241C4BD3E9660133
:104400004FF000021C4BFCF751F903460C46174ACB
:10441000C2E9663426E0154B93F8A333012B21D172
:10442000144BD3F88824114BD3F8F8319A4219D39E
:10443000104B032283F8EE240C4BD3E966014FF0B6
:1044400000020D4BFCF732F903460C46074AC2E95D
:10445000663407E000BF06E000BF04E000BF02E0F2
:1044600000BF00E000BF00BFF8BD00BFD0110020BA
:1044700000000020881500200000F03F80B582B0C9
:1044800000AF78607B685B68012B08D17B681B7A82
:10449000002B04D07B681B69184605F075FF00BF30
:1044A0000837BD4680BD80B582B000AF78607868BF
:1044B000FFF7E4FF00BF0837BD4680BD80B582B07E
:1044C00000AF78607B681B78002B05D17B680122E8
:1044D0001A707868FFF7E7FF00BF0837BD4680BD58
:1044E00080B582B000AF78607B685B68012B08D133
:1044F0007B681B7A002B04D07B681B69184606F08A
:104500002AF900BF0837BD4680BD80B582B000AF34
:1045100078607868FFF7E4FF00BF0837BD4680BDCC
:1045200080B582B000AF78607B681B78002B05D126
:104530007B6801221A707868FFF7E7FF00BF083731
:10454000BD4680BD80B582B000AF78607B685B6897
:10455000012B08D17B681B7A002B04D07B681B6978
:10456000184606F0F8F800BF0837BD4680BD80B594
:1045700082B000AF78607868FFF7E4FF00BF0837CB
:10458000BD4680BD80B582B000AF78607B681B7887
:10459000002B05D17B6801221A707868FFF7E7FFCE
:1045A00000BF0837BD4680BD80B582B000AF7860DF
:1045B0007B685B68012B0DD17B681B7A002B09D0CF
:1045C0007B681B69184605F0E9FA7B681B69184689
:1045D00005F0FAFA00BF0837BD4680BD80B582B04D
:1045E00000AF78607868FFF7DFFF00BF0837BD468F
:1045F00080BD80B582B000AF78607B681B78002BEF
:1046000005D17B6801221A707868FFF7E7FF00BFC9
:104610000837BD4680BD80B582B000AF78607B684A
:104620005B68012B0DD17B681B7A002B09D07B685E
:104630001B69184605F0B2F87B681B69184605F03F
:10464000B7F800BF0837BD4680BD80B582B000AF67
:1046500078607868FFF7DFFF00BF0837BD4680BD90
:1046600080B582B000AF78607B681B78002B05D1E5
:104670007B6801221A707868FFF7E7FF00BF0837F0
:10468000BD4680BD80B582B000AF78607B685B6856
:10469000012B08D17B681B7A002B04D07B681B6937
:1046A000184605F071FE00BF0837BD4680BD80B5D5
:1046B00082B000AF78607868FFF7E4FF00BF08378A
:1046C000BD4680BD80B582B000AF78607B681B7846
:1046D000002B05D17B6801221A707868FFF7E7FF8D
:1046E00000BF0837BD4680BD80B582B000AF78609E
:1046F0007B685B68012B08D17B681B7A002B04D098
:104700007B689B6A184605F000F900BF0837BD4674
:1047100080BD80B582B000AF78607868FFF7E4FFB5
:1047200000BF0837BD4680BD80B582B000AF78605D
:104730007B681B78002B05D17B6801221A70786892
:10474000FFF7E7FF00BF0837BD4680BD80B483B0E8
:1047500000AF78607B685B68012B02D17B68022226
:104760005A6000BF0C37BD465DF8047B704780B5CA
:1047700082B000AF78607868FFF7E8FF00BF0837C5
:10478000BD4680BD80B582B000AF78607B681B7885
:10479000002B05D17B6801221A707868FFF7E7FFCC
:1047A00000BF0837BD4680BD80B485B000AF7860DB
:1047B0007B685B68012B11D17B681B7A002B0DD0C5
:1047C0007B68DB6AFB60FB681B68012B02D1FB681E
:1047D00002221A607B684FF0FF321A6300BF143761
:1047E000BD465DF8047B704780B582B000AF78604D
:1047F0007868FFF7D9FF00BF0837BD4680BD80B598
:1048000082B000AF78607B681B78002B05D17B6895
:1048100001221A707868FFF7E7FF00BF0837BD462E
:1048200080BD000080B584B000AF78607B68002256
:104830001A727B6801225A60154B4FF0FF32C3F8A1
:1048400060210023BB60124BD3F8602107F1080000
:104850000A23002105F010FA02467B681A617B6882
:104860001B694FF4E131184605F0DCFC0123FB73B2
:104870000023BB737B681869FB7BBA7B082105F0BA
:10488000DDFC7B6801221A7200BF1037BD4680BD77
:10489000D011002080B588B002AF78607B6800221C
:1048A0001A727B6801225A600023FB7500233B616A
:1048B000FB7D1946386904F085FF02467B689A62E1
:1048C0007B68494A5A627B689A6A7B685B6A1946C8
:1048D000104604F09BFF2B233B7340237B737B68C4
:1048E000986A07F10C02002301930023009302232E
:1048F0001D2104F0D6FF4FF4FA7009F085F92A2340
:10490000FB727B68986A07F10B0200230193012375
:10491000009301231D2104F0C4FF0346FB72FB7AC0
:10492000002B14D17B68986A07F10B0201230193D5
:104930000023009301231D2104F07FFF07F10B01E9
:1049400007F10F0301221846FDF7B4FC01E0002334
:10495000FB732A233B73FB7B23F00103DBB27B73E6
:104960007B68986A07F10C020023019300230093EF
:1049700002231D2104F095FF0E233B7301237B735B
:104980007B68986A07F10C020023019300230093CF
:1049900002231D2104F085FF5B233B7300237B73FF
:1049A0007B68986A07F10C020023019300230093AF
:1049B00002231D2104F075FF2A233B7301237B731F
:1049C0007B68986A07F10C0200230193002300938F
:1049D00002231D2104F065FF7B6801221A7200BFCB
:1049E0001837BD4680BD00BFA086010080B584B0E9
:1049F00000AF78607B6800221A727B6801225A60DF
:104A0000154B4FF0FF32C3F8D8220023BB60124B86
:104A1000D3F8D83207F108000A22002105F02CF95A
:104A200002467B681A617B681B694FF4E1311846C6
:104A300005F0F8FB0123FB730023BB737B68186947
:104A4000FB7BBA7B082105F0F9FB7B6801221A7217
:104A500000BF1037BD4680BDD0110020000000000F
:104A6000F0B52DED028B93B002AFB54BD3E9A001A9
:104A7000B44BD3E90A341A462346FCF735FA034609
:104A8000002B05D1AF4BD3E90A34AD4AC2E9A034BB
:104A9000AB4BD3F878326322AB49184605F0E2FB02
:104AA0000346FB776322A849A848FDF703FCA44B03
:104AB00093F80835002B07D1A14B93F80835013343
:104AC000DAB29F4B83F808259D4B93F80535002BF0
:104AD00065D19B4B012283F80525994B042283F86D
:104AE00006259B4B6422C3F81422994BAF22C3F8CE
:104AF0003422974B3C22C3F82C22954B954AC3F89D
:104B00006422934A8AA4D4E90034C2E96C34904BFD
:104B1000904AC3F86C228E4A4FF000038E4CC2E9D3
:104B200072348B4BFA22C3F82022894BFA22C3F845
:104B30003022874B2D22C3F82822854A7EA4D4E94F
:104B40000034C2E97034824A7BA4D4E90034C2E95B
:104B50006E347F4B814AC3F870227D4B804AC3F884
:104B600068227B4B4FF4A072C3F83822784B0022A6
:104B700083F8A323764B0222C3F82422744B0A2223
:104B8000C3F81022724B0622C3F81C22704B02227B
:104B9000C3F818226E4B7822C3F80C2270E3684BDE
:104BA00093F80635013B072B00F2588301A252F817
:104BB00023F000BFD54B0000EF4B0000094C000074
:104BC000374C0000594C0000BD4D0000D34E000092
:104BD000C55100005E4B022283F8A223584B0722E6
:104BE00083F806255A4B002283F8A42348E3584B48
:104BF000002283F8A223524B072283F80625544B48
:104C0000002283F8A4233BE3514B012283F8A42321
:104C10004F4B012283F8A223494B93F80835002B10
:104C200000F02983464B072283F80625484B0022D3
:104C300083F8A4231FE3464B484AC3F87022444B31
:104C4000474AC3F868223E4B072283F80625404BAB
:104C5000002283F8A42313E3394B93F80835002B83
:104C600000F00B83364B062283F80625344B0122D5
:104C700083F81825324B93F81835002B00F0FD828D
:104C80002F4BD3F8B434312B8CBF01230023DBB27C
:104C90001A462F4BD3F834329A4206D8284B93F851
:104CA0001835002B01D0012300E00023DAB2244B99
:104CB00083F81825224BD3F89834642B2ED0204B40
:104CC000D3F89834C82B29D01D4BD3F89834702BC7
:104CD00024D01B4BD3F89834DE2B1FD0184BD3F8BD
:104CE0009834B3F57A7F19D0154BD3F89834B3F5CF
:104CF0008C6F13D0124BD3F89834B3F5FA6F0DD0F4
:104D00000F4BD3F8983440F6AC02934206D00C4BCC
:104D1000D3F8983440F60252934223D1084B93F8CB
:104D20001835002B1ED001231DE000BFAFF300801B
:104D30009A9999999999D93F0AD7A3703D0AB73F93
:104D4000881500200000002068120020CB120020EF
:104D5000D0110020000070400000F03F0000204013
:104D6000000030400023DAB2694B83F81825684B05
:104D7000D3F89834642B14D1654BD3F8B4343C2B5E
:104D80000FD1634BD3E9F6015FA3D3E90023FCF70E
:104D9000ABF80346002B04D05D4BD3F8A834FA2BB4
:104DA00006D05B4B93F81835002B01D0012300E0AF
:104DB0000023DAB2564B83F818255EE2544B93F881
:104DC0001835002B04D1524B092283F8062557E2EF
:104DD0004F4B082283F806254D4BD3F898344D4AA3
:104DE000C2F814324A4BD3F8BC344A4AC2F83432BF
:104DF000474BD3F8B434474AC2F82C32444B03F241
:104E000054431B68434AC2F86432414BD3E9F63439
:104E1000404AC2E96C343E4B03F58B631B683D4A44
:104E2000C2F86C323A4BD3E9FC343A4AC2E97234E4
:104E3000374BD3F8A834374AC2F82032344BD3F872
:104E4000B834344AC2F83032314BD3F8B034314A36
:104E5000C2F828322E4BD3E9FA342E4AC2E9703414
:104E60002B4BD3E9F8342B4AC2E96E34294B2A4A3A
:104E7000C3F87022274B294AC3F86822244BD3F881
:104E8000C034244AC2F83832214B93F80725214B0D
:104E900083F8A3231E4BD3F8AC341E4AC2F8243245
:104EA0001B4BD3F89C341B4AC2F81032184BD3F872
:104EB000A434184AC2F81C32154BD3F8A034154A52
:104EC000C2F81832124BD3F89434124AC2F80C329A
:104ED000D6E1104B002283F8A423FB7F002B40F087
:104EE000CE810C4B93F8FB30162B40F0C881094B58
:104EF00093F8FC30452B00F04681552B10D0362B13
:104F000000F05281BBE100BF9A9999999999D93FD4
:104F100088150020D0110020000020400000304003
:104F2000B34B052283F80625B14B002283F80825F0
:104F30000422B049B048FDF7BDF9AD4B0122C3F8DA
:104F40007424AB4BD3F8C434A94AC2F89834042271
:104F5000AA49A948FDF7AEF9A54B0122C3F874246C
:104F6000A34BD3F8C434A24AC2F8BC340422A449E7
:104F7000A148FDF79FF99E4B0122C3F874249C4B76
:104F8000D3F8C4349A4AC2F8B43404229D499A48EA
:104F9000FDF790F9964B0122C3F87424944BD3F893
:104FA000C434934AC2F8A834042297499248FDF7C2
:104FB00081F98F4B0122C3F874248D4BD3F8C4348C
:104FC0008B4AC2F8B834042290498B48FDF772F935
:104FD000874B0122C3F87424854BD3F8C434844A28
:104FE000C2F8B03404228A498348FDF763F9804B44
:104FF0000122C3F874247E4BD3F8C4347C4AC2F82F
:10500000C034042283497C48FDF754F9784B0122CF
:10501000C3F87424764BD3F8C434754AC2F8AC3460
:1050200004227D497448FDF745F9714B0122C3F80C
:1050300074246F4BD3F8C4346D4AC2F89C340422F4
:1050400076496D48FDF736F9694B0122C3F874249F
:10505000674BD3F8C434664AC2F8A43404227049BA
:105060006548FDF727F9624B0122C3F87424604BB1
:10507000D3F8C4345E4AC2F8A034042269495E48B9
:10508000FDF718F95A4B0122C3F87424584BD3F892
:10509000C434574AC2F89434634B93F85D21544B9F
:1050A00083F80725042261496148FDF703F9504B55
:1050B0000122C3F878244E4B03F25C431A684C4B30
:1050C00003F254431A6004225A495948FDF7F2F892
:1050D000474B0122C3F87824454B03F25C431A681E
:1050E000434B03F58B631A60042253495048FDF784
:1050F000E1F83F4B0122C3F8782404224F494C4881
:10510000FDF7D8F83A4B0122C3F8782408224C491D
:105110004C48FDF7CFF8364B0122C3F87024344BCE
:10512000D3E9FE34324AC2E9F634082246494548FA
:10513000FDF7C0F82E4B0122C3F870242C4BD3E9A5
:10514000FE342B4AC2E9FC34082240493D48FDF7B1
:10515000B1F8274B0122C3F87024254BD3E9FE3464
:10516000234AC2E9FA34082239493648FDF7A2F841
:105170001F4B0122C3F870241D4BD3E9FE341C4A97
:10518000C2E9F8341DE01A4B032283F80625184BB8
:10519000002283F80825244B012283F8A423224B04
:1051A000012283F8A2230CE0114B022283F806258A
:1051B0001D4B012283F8A4231B4B002283F8A2235A
:1051C00000BF5CE0184B234AC3F87022164B224AFA
:1051D000C3F86822064B012283F80625124B0122F0
:1051E00083F8A423104B022283F8A22348E000BFD7
:1051F00088150020CD1200204C1A0020D11200206A
:10520000D5120020F1120020F5120020F912002022
:1052100015130020191300201D1300202113002056
:105220002513002029130020D0110020D9120020BE
:10523000E4190020E51200200D13002011130020B6
:10524000DD12002080190020E9120020FD1200204C
:10525000051300200000204000003040B94B01221F
:1052600083F80625B84B012283F8A423B64B02220B
:1052700083F8A22304E000BF02E000BF00E000BF0B
:10528000B14BD3F82C3207EE903AF8EE677ADFEDA7
:10529000AF6A87EEA67AF7EE006AC6EE877AAA4B67
:1052A000C3ED8F7AA74BD3E97801A94BD3E9083432
:1052B0001A462346FBF718FE0346002B05D1A44BE4
:1052C000D3E908349F4AC2E978349E4BD3F8D831E9
:1052D000184605F0C9F903461A469B4B83F8AF23DD
:1052E000984BD3E980019A4BD3E906341A462346FA
:1052F000FBF7FAFD0346002B05D1954BD3E90634A5
:10530000904AC2E980348F4BD3F8F831184605F043
:10531000ABF903461A468C4B83F8B023894BD3F87C
:105320009034B3F1FF3F06D0864BD3F8903401336D
:10533000844AC2F89034834B93F8F834002B08D198
:10534000804B012283F8F8247E4B062283F8F9244F
:10535000B2E27C4B93F8F934013B042B00F23E821D
:1053600001A252F823F000BF7D53000083530000D8
:1053700089530000B3530000CF550000FDF78AFAAF
:105380009AE2FDF799FB97E26F4BD3F81432642B46
:1053900000F091826C4BD3F81432C82B00F08B8252
:1053A000694B002283F8AE23664B062283F8F9246A
:1053B00081E2654BD3F81432DE2B08D0614B00221A
:1053C00083F8FD245F4B062283F8F92474E25D4BD9
:1053D00093F8FD34013B032B00F2BC8001A252F88C
:1053E00023F000BFF55300004F540000815400002B
:1053F000BB540000544B93F8B033002B16D1514BE3
:10540000012283F8FD24504BD3F808320133BB63EB
:105410004D4BD3F80832BA6B9A4202D24FF0FF33A9
:10542000BB63494ABB6BC2F80832CFE0454B03224D
:1054300083F8FD24434B0022C3F89024424B012201
:1054400083F8AD23404B012283F8AE23BEE03E4BF0
:10545000002283F8AD233C4B93F8B033002B00F0CF
:10546000AE80384B052283F8FD24364B0022C3F86A
:105470009024354BD3F83832334AC2F808329EE0D4
:10548000314B012283F8AD232E4BD3F89034002BFF
:1054900000F097802B4B042283F8FD24294B002237
:1054A000C3F89024284B002283F8AD23264BD3F871
:1054B0003832254AC2F8083283E0234B002283F8B1
:1054C000AD23214BD3F83832013BBB631E4BD3F8DD
:1054D0003832BA6B9A4201D90023BB63194BD3F817
:1054E0009034BA6B9A426ED8174B93F8B033002BB6
:1054F00016D1144B012283F8FD24134BD3F8083244
:105500000133BB63104BD3F80832BA6B9A4202D214
:105510004FF0FF33BB630C4ABB6BC2F8083252E05A
:10552000084B032283F8FD24064B0022C3F8902485
:10553000054B012283F8AD23034B012283F8AE23F0
:1055400041E000BF88150020D011002000606A47AC
:1055500000000020B84BD3F89024B84BD3F8383271
:105560009A4232D3B54B93F8B033002B16D1B24BDD
:10557000012283F8FD24B14BD3F808320133BB6319
:10558000AE4BD3F80832BA6B9A4202D24FF0FF33D7
:10559000BB63AA4ABB6BC2F8083216E0A64B0322D3
:1055A00083F8FD24A44B0022C3F89024A34B0122CE
:1055B00083F8AD23A14B012283F8AE2305E000BFA1
:1055C0007AE100BF78E100BF76E100BF74E19B4B58
:1055D000D3F8143240F6AC02934208D0964B002226
:1055E00083F8FB24944B062283F8F92464E1924B60
:1055F00093F8FB34013B032B00F2B38001A252F875
:1056000023F000BF155600006F560000A1560000A1
:10561000DB560000894B93F8B033002B16D1864B34
:10562000012283F8FB24854BD3F808320133BB6396
:10563000824BD3F80832BA6B9A4202D24FF0FF3352
:10564000BB637E4ABB6BC2F80832C6E07A4B0322CA
:1056500083F8FB24784B0022C3F89024774B012277
:1056600083F8AD23754B012283F8AE23B5E0734B6D
:10567000002283F8AD23714B93F8B033002B00F078
:10568000A5806D4B052283F8FB246B4B0022C3F8E9
:1056900090246A4BD3F83832684AC2F8083295E051
:1056A000664B012283F8AD23634BD3F89034002B73
:1056B00000F08E80604B042283F8FB245E4B0022B6
:1056C000C3F890245D4B002283F8AD235B4BD3F8E5
:1056D00038325A4AC2F808327AE0584B002283F82E
:1056E000AD23564BD3F83832013BBB63534BD3F851
:1056F0003832BA6B9A4201D90023BB634E4BD3F8C0
:105700009034BA6B9A4265D84C4B93F8B033002B67
:1057100016D1494B012283F8FB24484BD3F80832B9
:105720000133BB63454BD3F80832BA6B9A4202D2BD
:105730004FF0FF33BB63414ABB6BC2F8083249E00C
:105740003D4B032283F8FB243B4B0022C3F89024FB
:105750003A4B012283F8AD23384B012283F8AE2364
:1057600038E0354BD3F89024344BD3F838329A4292
:1057700032D3324B93F8B033002B16D12E4B01228B
:1057800083F8FB242D4BD3F808320133BB632B4B3A
:10579000D3F80832BA6B9A4202D24FF0FF33BB63A0
:1057A000264ABB6BC2F8083216E0234B032283F86B
:1057B000FB24214B0022C3F89024204B012283F8C4
:1057C000AD231E4B012283F8AE2305E000BF73E03A
:1057D00000BF71E000BF6FE000BF6DE0174BD3F872
:1057E0001432B3F58C6F2BD040F6AC02934212D03A
:1057F000702B36D1104B012283F8F9240E4B022274
:1058000083F8FC240D4B002283F8AD230B4B0022C0
:10581000C3F808224EE0084B052283F8F924064B12
:10582000022283F8FB24054B002283F8AD23034BAF
:105830000022C3F808223DE088150020D011002086
:10584000BC4B022283F8F924BA4B022283F8FA24D3
:10585000B94B002283F8AD23B74B0022C3F80822CE
:1058600028E0B54BD3F81432642B04D0B24BD3F8F4
:105870001432C82B08D1AF4B032283F8F924AE4B66
:10588000012283F8AE2314E0AB4BD3F81432DE2BA5
:105890000FD1A84B042283F8F924A64B022283F8E7
:1058A000FD24A54B002283F8AD23A34B0022C3F8AF
:1058B000082200BF00E000BF9F4B93F8AD33002BE0
:1058C00005D09D4BD3F808329A4AC2F83834994B28
:1058D000D3F838341846FBF725F803460C461A4629
:1058E00023464FF000009549FBF7C0F903460C46EC
:1058F00018462146924BD3E910341A462346FBF74B
:105900008BF803460C468C4AC2E95A34894BD3E9DA
:10591000E834894AC2E95C34874BD3F8243207EE75
:10592000903AF8EE677A17EE900AFBF71DF8844B71
:10593000D3E914341A462346FBF76EF803460C46A7
:10594000184621467E4BD3E916341A462346FAF709
:10595000ADFE03460C46784AC2E97634754BB3F87F
:10596000E43440F2FE32934207D8724BB3F8E43489
:1059700001339AB26F4BA3F8E4246E4B93F8F234E0
:10598000002B1CD16B4B012283F8F224694B0422BB
:1059900083F8F324684BD3F82C3207EE903AF8EEF4
:1059A000677A654BC3ED947A634BD3F82C3207EEDC
:1059B000903AF8EE677A604BC3ED957AACE15D4BB7
:1059C00093F8F334013B032B00F2698101A252F8F2
:1059D00023F000BFE55900004F5A0000495B00006A
:1059E0008D5C0000534BB3F8E434B3F57A7F13D3E6
:1059F000504B012283F8F3244E4B0022A3F8E424F9
:105A00004D4B93ED957A4C4BD3ED967A77EE277A02
:105A1000494BC3ED957A7FE1474B93ED957A464B21
:105A2000D3ED947AB4EEE77AF1EE10FA00DA73E18E
:105A3000404B032283F8F3243F4B0122C3F8F021AB
:105A40003D4BD3F850323C4AC2F8543264E13A4BF1
:105A50000022C3F8F021384BD3E95C3418462146C4
:105A6000FBF7D2FA08EE100A334BD3E97634184626
:105A70002146FBF7C9FA07EE900AB4EEE78AF1EE89
:105A800010FA0EDB2B4B032283F8F3242A4B01225E
:105A9000C3F8F021284BD3F85032274AC2F85432C9
:105AA0003AE1254BD3F82C3207EE903AF8EE677ABC
:105AB000214BC3ED947A204BD3F82C3207EE903A69
:105AC000F8EE677A1C4BC3ED957A1B4BD3F80C327A
:105AD00007EE903AB8EE677A174BD3F82C3207EE00
:105AE000903AF8EE677A77EE677AC7ED097A124B4B
:105AF000D3F8103207EE903AB8EE677AD7ED096A1C
:105B0000C6EE877A0C4BC3ED967A0B4BD3F818325E
:105B100007EE903AF8EE677A9FED0A7A27EE877AD9
:105B2000D7ED096AC6EE877A024B03F58A63C3EDA7
:105B3000007AF1E088150020D01100200000F03F2D
:105B40000000002000007042BF4B0122C3F8F0218A
:105B5000BD4BD3E95C3418462146FBF755FA08EEF5
:105B6000100AB94BD3E9763418462146FBF74CFAB4
:105B700007EE900AB4EEE78AF1EE10FA19D5B34BAE
:105B8000052283F8F324B14B0022A3F8E424AE4BA2
:105B900093ED957AAD4B03F58A63D3ED007A77EEFA
:105BA000677AA94BC3ED957AA74B0022C3F8F02181
:105BB000B2E0A54B93ED957AA34BD3ED947AB4EE76
:105BC000E77AF1EE10FA13D5A04B012283F8F32403
:105BD0009E4B0022A3F8E4249B4B93ED957A9A4BBD
:105BE000D3ED967A77EE277A974BC3ED957A93E0CB
:105BF000954BD3E95C3418462146FBF705FA07EECE
:105C0000100AF1EE007A27EE278A8F4BD3E976341B
:105C100018462146FBF7F8F907EE900A38EE677A46
:105C2000894BD3F81C3207EE903AF8EE677AF1EE22
:105C3000677A67EE277AF0EE670A9FED850AFDF72F
:105C40004DF8B0EE407AF7EE007A37EEC77A7E4B29
:105C5000D3F80C3207EE903AF8EE676A7A4BD3F835
:105C60002C3207EE903AF8EE677A76EEE77A27EE76
:105C7000277A754BD3F82C3207EE903AF8EE677A14
:105C800077EE277A704BC3ED947A45E06F4B022292
:105C900083F8F3246C4B0022C3F8F0213CE06A4BFC
:105CA0000022C3F8F021694BB3F8E434B3F57A7FEE
:105CB00019D3664B052283F8F324644B0022A3F822
:105CC000E424614B93ED957A604B03F58A63D3ED41
:105CD000007A77EE677A5C4BC3ED957A5A4B0022D7
:105CE000C3F8F02117E0584B93ED957A564BD3F853
:105CF0002C3207EE903AF8EE677AB4EEE77AF1EEDE
:105D000010FA00D907E0514B022283F8F3244E4BDE
:105D10000022C3F8F02100BF4B4BD3F85432184691
:105D2000FAF722FE03460C4644EC103B0AF0F4F965
