:1000000000000020F504000039A200003FA200001B
:1000100045A200004BA2000051A200000000000019
:100020000000000000000000000000006505000066
:1000300057A20000000000000B0600006B06000045
:10004000299A0000379A0000459A0000539A000050
:10005000619A00006F9A00007D9A00008B9A000060
:10006000999A0000A79A0000B59A0000C39A000070
:10007000D19A0000DF9A0000ED9A0000FB9A000080
:10008000099B00005DA2000063A2000069A20000BD
:100090006FA2000075A200007BA2000081A20000F8
:1000A00087A200008DA2000093A2000099A2000088
:1000B0009FA20000A5A20000ABA20000179B0000B9
:1000C000B1A20000259B0000B7A20000339B0000F6
:1000D000BDA20000419B0000C3A20000C9A2000015
:1000E000CFA20000D5A20000DBA20000E1A2000028
:1000F000E7A20000EDA20000F3A20000F9A20000B8
:1001000005050000050500000505000005050000C7
:10011000FFA2000005A300000BA3000011A3000034
:1001200017A300001DA3000023A3000029A30000C3
:100130002FA3000035A300003BA3000041A3000053
:1001400047A300004DA300004F9B000053A30000F5
:100150005D9B000059A300005FA3000065A30000A1
:100160006BA3000071A3000077A300007DA3000033
:1001700083A3000089A300008FA3000095A30000C3
:100180009BA3000005050000050500000505000013
:100190000505000005050000050500000505000037
:1001A0000505000005050000050500000505000027
:1001B0000505000005050000050500000505000017
:1001C0000505000005050000050500000505000007
:1003F000050500000505000005050000FFFFFFFFE3
:10040000FFFFFFFFFFFFFFFFFFFFFFFFFEFFFFFFFD
:1004400010B5054C237833B9044B13B10448AFF30E
:1004500000800123237010BDF81000200000000070
:100460003047010008B5034B1BB103490348AFF304
:10047000008008BD00000000FC1000203047010093
:10048000154B002B08BF134B9D46A3F5803A002166
:100490008B460F461348144A121A10F0CDFC0F4B2E
:1004A000002B00D098470E4B002B00D0984700201F
:1004B000002104000D000D48002802D00C4810F067
:1004C00099F910F0E1F92000290009F089FA10F0FB
:1004D0009DF900BF0000080000000020000000009F
:1004E00011970000F81000208C4E0020F507010045
:1004F0002D08010072B60AF099FB0AF031FB62B6D2
:10050000FFF7BEFFFFF7FEBF80F309887047EFF3E8
:1005100009807047684680F309885A480078C00708
:1005200014BF0220032080F314887047DFF858C1FD
:10053000EFF305831B0618BF6047EFF31483DB0757
:1005400008BF604700DF7047DFF840C1EFF3058365
:100550001B0618BF6047EFF31483DB0708BF604733
:1005600000DF7047EFF30980816911F8021CE1BBDD
:1005700090E80F1010B5E047BDE81040EFF3098C8C
:100580008CE80700424B93E80600914208BF704791
:1005900041B91EF0100F16D13E49086820F0010045
:1005A000086010E01EF0100F06BF2CED108A01202D
:1005B000002081F825002CE9F00FC1F828C00CB408
:1005C0000BF012FF0CBC1A60D2F828C0BCE8F00F88
:1005D00092F8250000280EBF6FF0020E6FF0120E89
:1005E000BCEC108A8CF30988704710B52A4A12684F
:1005F000914209D8294C54F8214090E80F10A047A7
:10060000EFF3098C8CE80F0010BD10B50BF070FEF5
:10061000BDE810401E4B93E80600914208BF7047AA
:10062000EFF3098C1EF0100F06BF2CED108A01208D
:10063000002081F825002CE9F00FC1F828C00CB487
:100640000BF0D2FE0CBC1A60D2F828C0BCE8F00F48
:1006500092F8250000280EBF6FF0020E6FF0120E08
:10066000BCEC108A8CF30988704710B50BF09EFE25
:10067000FFF7CEBF10B50BF097FE0BF097FEFFF71C
:10068000C7BF00009C34010075BC000091BC000095
:10069000284E002034EF00E000000000FCFFFFFFC8
:1006A00081F0004102E000BF83F0004330B54FEA23
:1006B00041044FEA430594EA050F08BF90EA020F90
:1006C0001FBF54EA000C55EA020C7FEA645C7FEA23
:1006D000655C00F0E2804FEA5454D4EB5555B8BF46
:1006E0006D420CDD2C4480EA020281EA030382EAB7
:1006F000000083EA010180EA020281EA0303362D49
:1007000088BF30BD11F0004F4FEA01314FF4801C1B
:100710004CEA113102D0404261EB410113F0004F2D
:100720004FEA03334CEA133302D0524263EB4303E4
:1007300094EA050F00F0A780A4F10104D5F1200E82
:100740000DDB02FA0EFC22FA05F2801841F10001DD
:1007500003FA0EF2801843FA05F359410EE0A5F1B1
:1007600020050EF1200E012A03FA0EFC28BF4CF0E2
:10077000020C43FA05F3C01851EBE37101F0004598
:1007800007D54FF0000EDCF1000C7EEB00006EEBA5
:100790000101B1F5801F1BD3B1F5001F0CD349082F
:1007A0005FEA30004FEA3C0C04F101044FEA445286
:1007B00012F5800F80F09A80BCF1004F08BF5FEA0D
:1007C000500C50F1000041EB045141EA050130BDED
:1007D0005FEA4C0C404141EB010111F4801FA4F190
:1007E0000104E9D191F0000F04BF01460020B1FAE5
:1007F00081F308BF2033A3F10B03B3F120020CDA1D
:100800000C3208DD02F1140CC2F10C0201FA0CF0FA
:1008100021FA02F10CE002F11402D8BFC2F1200C5F
:1008200001FA02F120FA0CFCDCBF41EA0C01904015
:10083000E41AA2BF01EB0451294330BD6FEA04045E
:100840001F3C1CDA0C340EDC04F11404C4F1200249
:1008500020FA04F001FA02F340EA030021FA04F35B
:1008600045EA030130BDC4F10C04C4F1200220FAB2
:1008700002F001FA04F340EA0300294630BD21FAF0
:1008800004F0294630BD94F0000F83F4801306BFB6
:1008900081F480110134013D4EE77FEA645C18BFAA
:1008A0007FEA655C29D094EA050F08BF90EA020F41
:1008B00005D054EA000C04BF1946104630BD91EA39
:1008C000030F1EBF0021002030BD5FEA545C05D13C
:1008D0004000494128BF41F0004130BD14F580047B
:1008E0003CBF01F5801130BD01F0004545F0FE41EF
:1008F00041F470014FF0000030BD7FEA645C1ABF24
:10090000194610467FEA655C1CBF0B46024650EA5A
:10091000013406BF52EA033591EA030F41F4002186
:1009200030BD00BF90F0000F04BF0021704730B50C
:100930004FF4806404F132044FF000054FF00001E1
:1009400050E700BF90F0000F04BF0021704730B5A2
:100950004FF4806404F1320410F0004548BF404277
:100960004FF000013EE700BF42004FEAE2014FEACC
:1009700031014FEA02701FBF12F07F4393F07F4FA7
:1009800081F06051704732F07F4208BF704793F0AA
:100990007F4F04BF41F40021704730B54FF46074BD
:1009A00001F0004521F000411CE700BF50EA0102C0
:1009B00008BF704730B54FF000050AE050EA010269
:1009C00008BF704730B511F0004502D5404261EBD9
:1009D00041014FF4806404F132045FEA915C3FF41A
:1009E000D8AE4FF003025FEADC0C18BF03325FEAB7
:1009F000DC0C18BF033202EBDC02C2F1200300FA68
:100A000003FC20FA02F001FA03FE40EA0E0021FA8C
:100A100002F11444BDE600BF70B54FF0FF0C4CF47A
:100A2000E06C1CEA11541DBF1CEA135594EA0C0F2C
:100A300095EA0C0F00F0DEF82C4481EA030621EA67
:100A40004C5123EA4C5350EA013518BF52EA0335A2
:100A500041F4801143F4801338D0A0FB02CE4FF054
:100A60000005E1FB02E506F00042E0FB03E54FF084
:100A70000006E1FB03569CF0000F18BF4EF0010E7C
:100A8000A4F1FF04B6F5007F64F5407404D25FEA78
:100A90004E0E6D4146EB060642EAC62141EA55512B
:100AA0004FEAC52040EA5E504FEACE2EB4F1FD0C6D
:100AB00088BFBCF5E06F1ED8BEF1004F08BF5FEAEB
:100AC000500E50F1000041EB045170BD06F000469D
:100AD00046EA010140EA020081EA0301B4EB5C044A
:100AE000C2BFD4EB0C0541EA045170BD41F4801142
:100AF0004FF0000E013C00F3AB8014F1360FDEBF67
:100B0000002001F0004170BDC4F10004203C35DA42
:100B10000C341BDC04F11404C4F1200500FA05F3C5
:100B200020FA04F001FA05F240EA020001F0004266
:100B300021F0004110EBD37021FA04F642EB0601DC
:100B40005EEA430E08BF20EAD37070BDC4F10C0406
:100B5000C4F1200500FA04F320FA05F001FA04F2CA
:100B600040EA020001F0004110EBD37041F10001B6
:100B70005EEA430E08BF20EAD37070BDC4F12005C1
:100B800000FA05F24EEA020E20FA04F301FA05F229
:100B900043EA020321FA04F001F0004121FA04F2D1
:100BA00020EA020000EBD3705EEA430E08BF20EAA1
:100BB000D37070BD94F0000F0FD101F000464000DB
:100BC00041EB010111F4801F08BF013CF7D041EA5D
:100BD000060195F0000F18BF704703F00046520061
:100BE00043EB030313F4801F08BF013DF7D043EA32
:100BF0000603704794EA0C0F0CEA135518BF95EAE8
:100C00000C0F0CD050EA410618BF52EA4306D1D16E
:100C100081EA030101F000414FF0000070BD50EA8D
:100C2000410606BF1046194652EA430619D094EA17
:100C30000C0F02D150EA013613D195EA0C0F05D101
:100C400052EA03361CBF104619460AD181EA030155
:100C500001F0004141F0FE4141F470014FF000000D
:100C600070BD41F0FE4141F4780170BD70B54FF0A8
:100C7000FF0C4CF4E06C1CEA11541DBF1CEA135528
:100C800094EA0C0F95EA0C0F00F0A7F8A4EB05040A
:100C900081EA030E52EA03354FEA013100F0888001
:100CA0004FEA03334FF0805545EA131343EA1263CA
:100CB0004FEA022245EA111545EA10654FEA00267F
:100CC0000EF000419D4208BF964244F1FD0404F538
:100CD000407402D25B084FEA3202B61A65EB030594
:100CE0005B084FEA32024FF480104FF4002CB6EB51
:100CF000020E75EB030E22BFB61A754640EA0C00D1
:100D00005B084FEA3202B6EB020E75EB030E22BF10
:100D1000B61A754640EA5C005B084FEA3202B6EB51
:100D2000020E75EB030E22BFB61A754640EA9C0010
:100D30005B084FEA3202B6EB020E75EB030E22BFE0
:100D4000B61A754640EADC0055EA060E18D04FEA9E
:100D5000051545EA16754FEA06164FEAC30343EA3E
:100D600052734FEAC2025FEA1C1CC0D111F4801F0B
:100D70000BD141EA00014FF000004FF0004CB6E704
:100D800011F4801F04BF01430020B4F1FD0C88BFA3
:100D9000BCF5E06F3FF6AFAEB5EB030C04BFB6EBAE
:100DA000020C5FEA500C50F1000041EB045170BDA1
:100DB0000EF0004E4EEA113114EB5C04C2BFD4EBCE
:100DC0000C0541EA045170BD41F480114FF0000E52
:100DD000013C90E645EA060E8DE60CEA135594EACE
:100DE0000C0F08BF95EA0C0F3FF43BAF94EA0C0FD1
:100DF0000AD150EA01347FF434AF95EA0C0F7FF446
:100E000025AF104619462CE795EA0C0F06D152EA99
:100E100003353FF4FDAE1046194622E750EA41067D
:100E200018BF52EA43067FF4C5AE50EA41047FF48E
:100E30000DAF52EA43057FF4EBAE12E74FF0FF3CF3
:100E400006E000BF4FF0010C02E000BF4FF0010CC4
:100E50004DF804CD4FEA410C7FEA6C5C4FEA430C3D
:100E600018BF7FEA6C5C1BD001B050EA410C0CBF8C
:100E700052EA430C91EA030F02BF90EA020F0020EE
:100E8000704710F1000F91EA030F58BF994208BF55
:100E900090422CBFD8176FEAE37040F00100704712
:100EA0004FEA410C7FEA6C5C02D150EA013C07D169
:100EB0004FEA430C7FEA6C5CD6D152EA033CD3D0B4
:100EC0005DF8040B704700BF8446104662468C46AE
:100ED0001946634600E000BF01B5FFF7B7FF0028E1
:100EE00048BF10F1000F01BD4DF808EDFFF7F4FF0A
:100EF0000CBF012000205DF808FB00BF4DF808ED95
:100F0000FFF7EAFF34BF012000205DF808FB00BFB7
:100F10004DF808EDFFF7E0FF94BF012000205DF8D9
:100F200008FB00BF4DF808EDFFF7CEFF94BF01208E
:100F300000205DF808FB00BF4DF808EDFFF7C4FF87
:100F400034BF012000205DF808FB00BF4FEA410CD0
:100F50007FEA6C5C02D150EA013C0AD14FEA430CB3
:100F60007FEA6C5C02D152EA033C02D14FF00000F0
:100F700070474FF0010070474FEA410212F500122E
:100F800015D211D56FF47873B3EB625212D94FEAD0
:100F9000C12343F0004343EA505311F0004F23FABA
:100FA00002F018BF404270474FF00000704750EA0F
:100FB000013005D111F0004008BF6FF000407047CC
:100FC0004FF00000704700BF4A0011D212F5001226
:100FD00011D20DD56FF47873B3EB62520ED44FEA91
:100FE000C12343F0004343EA505323FA02F0704711
:100FF0004FF00000704750EA013002D14FF0FF304F
:1010000070474FF0000070474FEA4102B2F1E043F1
:1010100024BFB3F5001CDCF1FE5C0DD901F0004CDF
:101020004FEAC0024CEA5070B2F1004F40EB83002F
:1010300008BF20F00100704711F0804F21D113F15B
:101040003872BCBF01F00040704741F480114FEA94
:101050005252C2F11802C2F1200C10FA0CF320FA1D
:1010600002F018BF40F001004FEAC1234FEAD3233A
:1010700003FA0CFC40EA0C0023FA02F34FEA4303A4
:10108000CCE77FEA625307D150EA01331EBF4FF02D
:10109000FE4040F44000704701F0004040F0FE4048
:1010A00040F40000704700BF53B94AB9002908BF97
:1010B00000281CBF4FF0FF314FF0FF3001F0F8B8AF
:1010C000ADF1080C6DE904CE00F006F8DDF804E09F
:1010D000DDE9022304B070472DE9F047089E04467D
:1010E0008846002B4BD18A42154667D9B2FA82F264
:1010F0004AB1C2F1200701FA02F320FA07F795403E
:1011000047EA030894404FEA154E230CB8FBFEF75C
:101110001FFA85FC0EFB178843EA084307FB0CF116
:10112000994209D9EB1807F1FF3080F01B819942F1
:1011300040F21881023F2B445B1AA4B2B3FBFEF0CD
:101140000EFB103344EA034400FB0CFCA44509D910
:101150002C1900F1FF3380F00781A44540F204818F
:1011600002382C4440EA0740A4EB0C0400271EB1CF
:10117000D4400023C6E900433946BDE8F0878B42DE
:1011800009D9002E00F0EB800027C6E9000138469F
:101190003946BDE8F087B3FA83F7002F47D18B4279
:1011A00002D3824200F2FA80841A61EB0303012029
:1011B0009846002EE0D0C6E90048DDE702B9FFDE20
:1011C000B2FA82F2002A40F08F80491B4FEA154E96
:1011D0001FFA85F80127B1FBFEFC230C0EFB1C1146
:1011E00043EA014308FB0CF1994207D9EB180CF1D3
:1011F000FF3002D2994200F2CD808446591AA3B240
:10120000B1FBFEF00EFB101443EA044408FB00F8A7
:10121000A04507D92C1900F1FF3302D2A04500F2F6
:10122000B6801846A4EB080440EA0C409FE7C7F1DB
:10123000200CBB4022FA0CFE4EEA030E01FA07F422
:1012400020FA0CF521FA0CF34FEA1E482543B3FBB4
:10125000F8F92C0C08FB19331FFA8EFA44EA034301
:1012600009FB0AF49C4202FA07F200FA07F10BD9D3
:101270001EEB030309F1FF3080F087809C4240F2AF
:101280008480A9F1020973441B1BADB2B3FBF8F0D3
:1012900008FB103345EA034400FB0AFAA24508D9CB
:1012A0001EEB040400F1FF336BD2A24569D902386A
:1012B000744440EA0940A0FB0289A4EB0A044C45AF
:1012C000C2464B4654D351D0002E69D0B1EB0A052B
:1012D00064EB030404FA0CFCFD40FC404CEA0505F9
:1012E000C6E90054002747E7C2F1200320FA03F7BC
:1012F000954001FA02F021FA03F34FEA154E384304
:10130000010CB3FBFEF71FFA85F80EFB173341EA19
:10131000034107FB08F38B4204FA02F407D969186A
:1013200007F1FF3C2FD28B422DD9023F2944CB1A23
:1013300081B2B3FBFEF00EFB103341EA034100FB28
:1013400008F38B4207D9691800F1FF3C17D28B4292
:1013500015D902382944C91A40EA07473BE73746FE
:10136000304609E70746E7E61846FBE64145ABD2BB
:10137000B8EB020A69EB0E0201381346A4E7604697
:10138000E9E7184695E76746D1E781467CE70238EA
:101390002C4447E7ACF1020C2B442FE7384608E712
:1013A0003746E9E603685A004CBF43F0004323F098
:1013B00000431844704700BF61B32DE9F84F01F1B5
:1013C000FF3A90460646D146002707EB090404EB96
:1013D000D4746410E50071190846FFF7E3FFA245D5
:1013E000834605F10800304409D0FFF7DBFFC34511
:1013F00000F1FF3005D8404509D2671CE5E7C34539
:1014000005D9A74202D004F1FF39DEE700210846E2
:10141000BDE8F88F08467047012807D0022807D09A
:10142000044B00280CBF1846002070470248704744
:1014300002487047051B0000091B00000D1B00003F
:1014400030B5254B83B004468D1E4BB301A9284609
:10145000AFF30080F0B101992A46FFF7ADFF0146D6
:10146000C0B1FFF79FFF4B68A064012B2ED0002B6B
:1014700001F1040026DBFFF795FF0023C4E9130305
:101480000368002B12DBFFF78DFF00232061184655
:1014900003B030BD002323610923184603B030BDDB
:1014A0000E490F48091AC9100191D5E7C3F303602B
:1014B000FFF7B2FF002814BF00230923206118465C
:1014C00003B030BD0123C4E91303D9E7002323612E
:1014D0000523184603B030BD000000000450010091
:1014E0009C4B01000368DA0710B5044606D49B073D
:1014F00000F1480009D500F05FFC2368590709D5C1
:101500001A070ED5DB0613D510BD00F04DFC23687D
:101510005907F5D404F1D00000F056FC23681A07EF
:10152000F0D404F5A87000F057FC2368DB06EBD478
:1015300004F5E870BDE8104000F092BC036803B108
:1015400003441846704700BF09207047704700BF2A
:1015500070B504460D4608E02B6C63612A4623698A
:10156000214601209847082808D1296C2046FFF71A
:1015700067FF06460028EFD00FF016F90728FBD1C9
:101580003046296CFFF7E2FF281D00F001FC00BF88
:101590002DE9F0470C1D054617460FCCADF5727DC1
:1015A00003AE0FC60FCC0FC60FCC0FC694E80F00CA
:1015B00002ACD5F80C80D5F8189086E80F0000230F
:1015C000236021E0236C6B614FF4F07221467AA80E
:1015D00000F070FE2B697AAA294630469847889B0E
:1015E000CDE900498246636431462B462A460120F4
:1015F000C0470746F8B94FF4F0727AA9204600F0C8
:1016000059FEBAF1080F1CD1216C2846FFF718FFCC
:10161000002F08BF0926074618BF0A260028D1D088
:10162000A36B46F01001CDE900492A46636401200E
:101630002B46C04700B1092738460DF5727DBDE83D
:10164000F087BAF1070FF6D13846216CFFF77EFF1D
:1016500003A800F09DFB00BF406C7047F0B5CB6B5A
:101660000B640D1D0F4606460FCDF9B001AC0FC43B
:101670000FCD0FC40FCD0FC495E80F004FF0FF350D
:1016800084E80F00009506E033696A4631469847C2
:101690000828044608D110993046FFF7D1FE0028EB
:1016A000F2D0092079B0F0BD6846FFF71BFF062C89
:1016B000F7D139463046FFF74BFF00BF30B4DD6B42
:1016C000C160826119461D64002230BC60E700BF22
:1016D00070B5C66843690B64BEB903690A4604461F
:1016E0000D46014602209847072807D0082803D155
:1016F00029462046FFF72CFF0FF056F83046296C9C
:10170000FFF724FF281D00F043FB0122FFF740FFF5
:101710000FF04AF8C2681AB1CA6B0A64002237E7B0
:101720009CE700BF704700BF836813B101460120EA
:1017300018477047042907D8DFE801F003080608B6
:1017400008000BB90F2A03D9022070470120704707
:1017500000EB820218465368009A1360704700BF7E
:1017600010B584B0002303AC0A4600941946FFF775
:10177000E1FF039804B010BD042907D8DFE801F0A9
:101780000308060808000BB90F2A03D90220704786
:101790000120704700EB8200009A126842601846F0
:1017A000704700BF10B584B004AC002344F8042D8A
:1017B0000A4600941946FFF7DFFF04B010BD00BFD2
:1017C000F0B5D36B1364151D07460E460FCDADF56E
:1017D0000F7D17AC0FC40FCD0FC40FCD0FC495E80C
:1017E0000F004FF0FF3584E80F00169510E016A8A3
:1017F000FFF7D8FF314616A8B84716AA694678B948
:10180000049B08209847052804460AD0092807D0D9
:1018100026996846FFF714FE6A460C210028E6D098
:10182000092416A8FFF75EFE20460DF50F7DF0BDDA
:101830002DE9F04F0D46C96C89B00C1D164600F01D
:10184000030B0A6806941F46002B68D0130CD9B20C
:1018500012048DF81D30022304EB810405928DF8EB
:101860001C302B6DBBF1020F08BFAC6B13F00103F2
:1018700046D1019300F008030093D4F80090B9F129
:10188000000F00F0F380022F45D0B4F80090B4F8B8
:1018900002800434AB6C28F0010A0F2130469A44D0
:1018A000FFF75EFF824534D829F001035344834299
:1018B00094BF002001204FEA480808F0020809F010
:1018C000010948EA0908B8F1010F3AD031D3B8F15B
:1018D000020F1AD1236823F0004ABBF1000F66D132
:1018E00030B1009A002A6CD0BAF1000F00F090805D
:1018F000002B00DA04340AF1010304EB8304BCE793
:10190000304605A900F046FB78B1092009B0BDE8D2
:10191000F08F0020CFE7D4F804800834BAE7120231
:1019200003230592ADF81C309BE7082009B0BDE801
:10193000F08FBBF1000F02D0002840F0B4800434D7
:101940009BE7BBF1000F18D1A8B1D4E90023991C83
:101950004FEAD272D9D005F158010133049100F059
:10196000B580201DFFF7EAFD04AB01462846AFF322
:101970000080002867D108347FE70D213046D5F874
:101980002080FFF7EDFE8045F5D1AB6A9C42F2D195
:101990002046FFF707FD0F2102463046FFF702FF02
:1019A00030462A460021FFF7FDFE0720AEE70D2155
:1019B0003046D5F82080FFF7D3FE804532D023682B
:1019C00096E7BAF1000F23D005F1580304F104089B
:1019D000CDF808B0DDF800900397A3461C4602E05E
:1019E0005745B94640D040460494FFF7A7FD04ABE5
:1019F000014600222846AFF3008009F1010708F1F3
:101A000004080028ECD0D1455C46DDE902B7D6D108
:101A100030460D21FFF7A4FE049B2862C5E9093476
:101A2000062073E7AB6A9C42C9D104224FF000083C
:101A3000A318C5E90AA8C5E90C23236843454DDB73
:101A40000123019357E780460D213046FFF788FEBA
:101A5000B8F1020F28623ED12B46049A43F82C2F8E
:101A60006B62AC62062051E75C46D1E705A93046BF
:101A700000F090FA00287FF448AF019B002B3FF460
:101A800054AF0F213046FFF76BFE0E210246304661
:101A9000FFF788FE30461A4A0F21FFF783FE072022
:101AA00009B0BDE8F08F2046FFF77CFC0434074600
:101AB000AC632846AFF3008000283FF426AF3046E1
:101AC0003A460F21FFF76EFE07201FE730460D2133
:101AD000FFF746FE2862049B6B62C2E70AF1010031
:101AE00004EB8000FFF75EFC0F2102463046FFF753
:101AF00059FE30462A464146FFF754FE072005E7C7
:101B000000000000002393E6012391E602238FE604
:101B10002DE9F0410546C4B0042906D8DFE801F0FC
:101B20004D2B05030900032B5FD0022044B0BDE814
:101B3000F081002BF9D1102AF7D82B68DC0600F1D0
:101B4000F48022AC2046019200F094F9A86B019A2F
:101B50000023012606FA03F1114203D0016844F87C
:101B6000231004300133042BF4D1A863204600F085
:101B700077F90020DAE7012B4FEA124697B252D0EC
:101B8000052BD2D106EB0708B8F1200FCDD80F2EC8
:101B900040F29980B846002F40F0DB80AA6BAA6320
:101BA0000F2E40F2BE80B8F1000F02D002A800F064
:101BB0000BF9002044B0BDE8F081002BB5D1AC6B2F
:101BC00097B2281D012606FA03F1394203F10103F9
:101BD00002D0216801600434102B00F10400F2D11E
:101BE00012F40050E5D1AC63A0E7160C97B2F319DC
:101BF000102B9AD82B681A075DD422AC204600F02F
:101C00000DF904EBC601AB6B3FB103EBC7021868DB
:101C100041F8040B04339342F9D12046AB6300F042
:101C2000DBF8002082E7F219102A3FF67EAF0F2E74
:101C30003FF67BAF2A68D10708D5284622F0030279
:101C400040F8482B019300F0B3F8019B019322ACBC
:101C5000204600F0ADF8A96B019B002F00F09580A5
:101C60007F0004EBC6044FF00008043C01EB870240
:101C700051F8040B44F8040F9142F9D1B8F1000F68
:101C80000FD002AC102E314638BF102104EBC10139
:101C9000843902EBC80452F8040B41F8040F944253
:101CA000F9D1012B7FF47BAF22AC0432AA6320462A
:101CB00000F07AF87DE723F008032B6005F5A870A3
:101CC00000F0ACF899E7B8F1100F2A6843D9D007B3
:101CD000A8F110080BD5284622F0010242F00202BA
:101CE00040F8482B019300F06BF82A68019B5107DC
:101CF00025D40F2E04D822A8019300F061F8019B8F
:101D0000019302AC204600F063F8C6F110010029EF
:101D1000AA6B019BB6DD22AC4F0004EBC604114652
:101D2000A3E722A800F048F83DE723F010032B605A
:101D300005F5E870019200F09DF8019A01E7284648
:101D400022F0040240F8D02B019300F041F8019BEF
:101D5000CFE72A68CBE7D0070AD5284622F0010250
:101D600042F0020240F8482B019300F029F8019B51
:101D7000019322AC204600F023F8B846A96B019BE2
:101D8000002F7FF46DAF0A4609E70A468DE700BFD2
:101D900000F1340191E838009C46A6464CF8045DF9
:101DA00090E8FF0FE54600BD90EC210B704700BFA7
:101DB00080EC210B704700BF90EC200B704700BFF8
:101DC00080EC200B704700BFD0EC200B704700BFA9
:101DD000C0EC200B704700BFF0EC0201F0EC0211E8
:101DE000F0EC0221F0EC0231F0EC0241F0EC025197
:101DF000F0EC0261F0EC0271F0EC0281F0EC029187
:101E0000F0EC02A1F0EC02B1F0EC02C1F0EC02D176
:101E1000F0EC02E1F0EC02F1704700BFE0EC0201EF
:101E2000E0EC0211E0EC0221E0EC0231E0EC0241D6
:101E3000E0EC0251E0EC0261E0EC0271E0EC0281C6
:101E4000E0EC0291E0EC02A1E0EC02B1E0EC02C1B6
:101E5000E0EC02D1E0EC02E1E0EC02F1704700BFFF
:101E6000B0FC0181B0FC0191B0FC01A1B0FC01B15A
:101E7000704700BFA0FC0181A0FC0191A0FC01A162
:101E8000A0FC01B1704700BFEC4600B52DE9005041
:101E90002DE9FF1F4FF000032DE90C0001A9FFF70A
:101EA000DDFBDDF840E012B0704700BFEC4600B546
:101EB0002DE900502DE9FF1F4FF000032DE90C0024
:101EC00001A9FFF705FCDDF840E012B0704700BF44
:101ED000EC4600B52DE900502DE9FF1F4FF000033F
:101EE0002DE90C0001A9FFF715FCDDF840E012B068
:101EF000704700BFEC4600B52DE900502DE9FF1FEB
:101F00004FF000032DE90C0001ABFFF7D7FBDDF824
:101F100040E012B0704700BFEC4600B52DE900501C
:101F20002DE9FF1F4FF000032DE90C0001AAFFF778
:101F300047FCDDF840E012B0704700BF027A82B97A
:101F4000437AABB14268013B10B44372136803217A
:101F5000141D01721A02446002605DF8044B180EF1
:101F600070470368013A02721A020260180E704745
:101F7000B020704700B585B003AA0023009219462F
:101F80000C22FFF7D7FB039805B05DF804FB00BFF8
:101F9000F0E700BF2DE9F043054685B00E464FF04F
:101FA00000083046FFF7CAFFB028044600F0B180B1
:101FB000070620D500F0F003802B65D0902B36D09B
:101FC000A02B78D0B02B47D0C02B00F08A8000F037
:101FD000F803D02B0BD100F00702013242F40022AB
:101FE000052301212846FFF793FD0028D9D00920B9
:101FF00005B0BDE8F0830DF10C09002319468700F8
:10200000CDF800900D222846FFF794FBFFB2039B0A
:10201000CDF80090043760064CBFDF1BFF1800238B
:1020200019460D2228460397FFF7A6FBB9E700F0F3
:102030000D030D2BDBD003AF002300F00F02194678
:1020400000972846FFF776FB0023009719460D22DC
:102050002846FFF791FBA4E7B1285FD0B22800F033
:10206000CC80B3287ED000F0FC03B42BBFD000F0AE
:1020700007020132012342F4002219462846FFF7E5
:1020800047FD00288DD0B2E73046FFF757FF240206
:102090000443B4F5004FAAD024010023A2B219468C
:1020A0002846FFF735FD0028A1D114F4004F18BFD2
:1020B0004FF0010875E7C24302F007034FF47F6257
:1020C0001A41010702F47F624FF0000348BF42F457
:1020D000804219462846FFF71BFD00283FF461AFF8
:1020E00085E7C62851D0C7285AD000F0F803C02B86
:1020F00069D0C82875D0C9287FF479AF3046FFF77A
:102100001DFF020300F00F0002F4702201300243B1
:1021100066E7B8F1000F14D0002069E73046FFF7FA
:102120000DFF00283FF463AF10F0F0037FF45FAFC2
:10213000024619462846FFF7EBFC00283FF431AF72
:1021400055E703AC43460E22414600942846FFF76C
:10215000F1FA0094284643460F224146FFF70CFB54
:10216000404645E73046FFF7E9FE010300F00F0067
:1021700001F47021421C01230A4328461946FFF747
:10218000C7FC00283FF40DAF31E73046FFF7D6FE1D
:10219000010300F00F0001F47021421C0323EBE760
:1021A0003046FFF7CBFE024600283FF420AF10F088
:1021B000F0037FF41CAF04212846FFF7A9FC002898
:1021C0003FF4EFAE13E700F00F020132032342F4B5
:1021D000202219462846FFF79BFC00283FF4E1AE79
:1021E00005E73046FFF7AAFE00F0F00200F00F030B
:1021F0001032013343EA0232F2E600230DF10C09FA
:102200000D221946CDF800902846FFF793FA304684
:10221000FFF794FE02064FF002070CD5039B00F077
:102220007F00B840034430460393FFF787FE030660
:1022300007F10707F2D4039BCDF8009000F07F046C
:1022400003F50172BC400023144419460D222846B0
:102250000394FFF791FAA4E610B5C36C84B05A68F2
:1022600003208DF80C00DC798DF80D401202083344
:10227000084601A901920293FFF78CFE04B010BD3D
:1022800008B5FFF785FE806C08BD00BF08B5FFF7F5
:102290007FFEC06CC37900EB8300083008BD00BF2F
:1022A00008B50EF081FA00BF08B5FFF7F9FF00BFCF
:1022B000704700BF844641EA000313F003036DD169
:1022C000403A41D351F8043B40F8043B51F8043BF9
:1022D00040F8043B51F8043B40F8043B51F8043B00
:1022E00040F8043B51F8043B40F8043B51F8043BF0
:1022F00040F8043B51F8043B40F8043B51F8043BE0
:1023000040F8043B51F8043B40F8043B51F8043BCF
:1023100040F8043B51F8043B40F8043B51F8043BBF
:1023200040F8043B51F8043B40F8043B51F8043BAF
:1023300040F8043B51F8043B40F8043B51F8043B9F
:1023400040F8043B403ABDD2303211D351F8043B3F
:1023500040F8043B51F8043B40F8043B51F8043B7F
:1023600040F8043B51F8043B40F8043B103AEDD2EE
:102370000C3205D351F8043B40F8043B043AF9D23F
:10238000043208D0D2071CBF11F8013B00F8013B12
:1023900001D30B8803806046704700BF082A13D31F
:1023A0008B078DD010F003038AD0C3F10403D21A37
:1023B000DB071CBF11F8013B00F8013B80D331F86B
:1023C000023B20F8023B7BE7043AD9D3013A11F8EB
:1023D000013B00F8013BF9D20B7803704B78437056
:1023E0008B7883706046704700000000000000009A
:1023F00001F0FF01102A2BDB10F0070F08D010F8B6
:10240000013B013A8B422DD010F0070F42B3F6D1B9
:10241000F0B441EA012141EA014122F007047FF0D2
:1024200000070023F0E80256083C85EA010586EA29
:10243000010685FA47F5A3FA87F586FA47F6A5FA65
:1024400087F68EB9EED1F0BC01F0FF0102F0070271
:1024500032B110F8013B013A83EA010313B1F8D11C
:102460000020704701387047002D06BF35460338FD
:10247000073815F0010F07D1013015F4807F02BF36
:10248000013015F4C03F0130F0BC0138704700BF87
:10249000000000000000000000000000000000003C
:1024A000000000000000000000000000000000002C
:1024B000000000000000000000000000000000001C
:1024C00090F800F06DE9024520F007016FF0000C74
:1024D00010F0070491F820F040F049804FF000041C
:1024E0006FF00700D1E9002391F840F000F10800F7
:1024F00082FA4CF2A4FA8CF283FA4CF3A2FA8CF32F
:102500004BBBD1E9022382FA4CF200F10800A4FA95
:102510008CF283FA4CF3A2FA8CF3E3B9D1E90423E9
:1025200082FA4CF200F10800A4FA8CF283FA4CF320
:10253000A2FA8CF37BB9D1E9062301F1200182FADA
:102540004CF200F10800A4FA8CF283FA4CF3A2FAE0
:102550008CF3002BC6D0002A04BF04301A4612BAEE
:10256000B2FA82F2FDE8024500EBD2007047D1E9F1
:10257000002304F00305C4F100004FEAC50514F080
:10258000040F91F840F00CFA05F562EA05021CBF51
:1025900063EA050362464FF00004A9E790B589B0ED
:1025A00000AFF860B9607A604FF000034FF00004AC
:1025B000C7E906347B683B6100237B6120E07B69CF
:1025C0009B00FA6813441B681846FEF7ABF90346F4
:1025D0000C46386944EC103B0CF0CAFD54EC103B3F
:1025E0001A462346D7E90601FEF760F803460C4673
:1025F000C7E906343B6920333B617B6901337B616A
:102600007A69BB689A42DADBD7E9063444EC173BB7
:10261000B0EE470AF0EE670A2437BD4690BD80B49D
:1026200091B000AFF860B9607A603B6000237B63D3
:1026300008E07B6B9B00BA6C134400221A607B6B32
:1026400001337B637A6BFB6C9A42F2DB0023FB6302
:10265000A8E000233B63FB6B9B00FA6813441B68F4
:10266000FB62FB6A1B0CBB62FB6A9BB27B62FA6C6F
:10267000FB6BD31A3B623A6A3B689342A8BF13468E
:102680003B62FB6B7B630023BB637AE0BB6B9B000D
:102690007A6813441B68FB62FB6A1B0CFB61FB6AD4
:1026A0009BB2FB62BB6AFA6A02FB03F3BB617B6A03
:1026B000FA6902FB03F37B617B6B9B00BA6C1344EA
:1026C0001B683A6B13443B613A693B6B9A4234BFD7
:1026D00001230023DBB23B63FB6A7A6A02FB03F34C
:1026E000FB623A69FB6A13443B613A69FB6A9A42AE
:1026F00034BF01230023DBB21A463B6B13443B6318
:10270000BB691B04FB623A69FB6A13443B613A698B
:10271000FB6A9A4234BF01230023DBB21A463B6BAB
:1027200013443B637B691B04FB623A69FB6A1344F5
:102730003B613A69FB6A9A4234BF01230023DBB252
:102740001A463B6B13443B637B6B9B00BA6C134490
:102750003A691A60BB691B0C3A6B13443B637B6993
:102760001B0C3A6B13443B63BB6AFA6902FB03F32D
:102770003A6B13443B637B6B01337B63BB6B01336D
:10278000BB63BA6B3B6A9A4280DB7A6BFB6C9A4202
:1027900005DA7B6B9B00BA6C13443A6B1A60FB6BD7
:1027A0000133FB63FA6BBB689A42FFF652AF00BF7E
:1027B0004437BD465DF8047B704780B48DB000AFF0
:1027C000F860B9607A603B60FB681B0CBB62FB6819
:1027D0009BB27B62BB681B0C3B62BB689BB2FB621B
:1027E000BB6AFA6A02FB03F3FB617B6A3A6A02FB8B
:1027F00003F3BB617B6AFA6A02FB03F37B6200238B
:10280000FB62BB691B047A6A13447B617A697B6A49
:102810009A4201D20123FB627B697B62FB691B0444
:102820007A6913447B617A697B6A9A4202D2FB6AB5
:102830000133FB62BB691A0CFB691B0C1A44BB6AAF
:10284000396A01FB03F31A44FB6A1A447B681A6075
:102850003B687A691A6000BF3437BD465DF8047B77
:10286000704780B584B000AF7860396007F10C0321
:1028700007F1080239687868FFF79FFFBB68002BF3
:1028800002D04FF0FF33FB60FB6818461037BD469F
:1028900080BD0000B0B586B000AF87ED010AC7ED7E
:1028A000000A97ED010A08F011F90346002B06D142
:1028B00097ED000A08F00AF90346002B03D07F4B7E
:1028C0001B687B61F2E07868FEF74EF803460C4621
:1028D00044EC103B0CF0B8FB54EC103B184621467E
:1028E000FEF792FB03463B613868FEF73DF803466E
:1028F0000C4644EC103B0CF0A7FB54EC103B184684
:102900002146FEF781FB0346FB6097ED000A08F0C5
:1029100081F80346002B33D0D7ED047AB7EE007A66
:10292000F4EE477AF1EE10FA03D14FF07E537B615B
:10293000BCE0D7ED047AB7EE007AF4EEC77AF1EE98
:1029400010FA0EDDD7ED007AF5EEC07AF1EE10FA4E
:1029500003DD5B4B1B687B61A8E04FF000037B61EC
:10296000A4E0D7ED007AF5EEC07AF1EE10FA03DDBF
:102970004FF000037B6199E0514B1B687B6195E050
:10298000D7ED037AF5EE407AF1EE10FA03D14FF06D
:102990007E537B618AE0D7ED037AB7EE007AF4EEDE
:1029A000477AF1EE10FA12D1D7ED007AF5EEC07A3F
:1029B000F1EE10FA02DD7B687B6177E0F7EE006AEA
:1029C00097ED017AC6EE877AC7ED057A6EE0D7ED0E
:1029D000007AB0EE007AF4EE477AF1EE10FA08D100
:1029E00097ED017AD7ED017A67EE277AC7ED057A80
:1029F0005CE0D7ED007AB6EE007AF4EE477AF1EEBD
:102A000010FA18D1D7ED017AF5EEC07AF1EE10FA8E
:102A100011DB7868FDF7A8FF03460C4644EC103B39
:102A20000CF072FE54EC103B18462146FEF7ECFA0F
:102A300003467B613AE0D7ED017AF5EEC07AF1EE1C
:102A400010FA1BD53868FDF78FFF03460C4644EC9F
:102A5000103B0CF005FB54EC103B18462146FEF7EA
:102A6000D3FA07EE100AD7ED007AF4EEC77AF1EE4A
:102A700010FA03DD114B1B687B6117E07868FDF7E6
:102A800073FF04460D463868FDF76EFF02460B469D
:102A900043EC112B45EC104B0CF09AFC54EC103B22
:102AA00018462146FEF7B0FA03467B617B6907EEC4
:102AB000903AB0EE670A1837BD46B0BD104D002001
:102AC000084D002090B585B000AF87ED000B97ED65
:102AD000000B0CF0B9FA51EC100B4FF00002334B25
:102AE000FEF70CFA0346002B50D04FF00002304B9B
:102AF000D7E90001FEF716FA0346002B17D04FF076
:102B000000022B4BD7E90001FDF7D0FD03460C4630
:102B100044EC173BB0EE470AF0EE670A0CF0A0FA5F
:102B2000B0EE407AF0EE607A87ED027B32E04FF053
:102B30000002204BD7E90001FEF7FEF90346002B07
:102B40000CD04FF000024FF00003D7E90001FDF771
:102B500063FF03460C46C7E902341BE04FF0000256
:102B6000134BD7E90001FDF79FFD03460C4644ECEB
:102B7000173BB0EE470AF0EE670A0CF0DDF9B0EE55
:102B8000407AF0EE607A87ED027B03E0D7E900340B
:102B9000C7E90234D7E9023444EC173BB0EE470AE8
:102BA000F0EE670A1437BD4690BD00BF0000304309
:102BB0000000E03F0000E0BFF8B500AF934BD3F852
:102BC0003C22934BD3F898349A4212D0904B002277
:102BD00083F806258E4B062283F801258B4B4FF098
:102BE0000002C3F86822894B4FF00002C3F86C2240
:102BF0001DE2874B93F80635013B032B00F2D08191
:102C000001A252F823F000BF192C0000C32C0000D1
:102C10001D2E0000652F00007D4BD3F8A0447B4B98
:102C200093ED7C7BB0EE470AF0EE670A0CF084F976
:102C300053EC102B10461946FEF7C6F903469C428A
:102C4000C0F0EC81724B042283F80625704B002201
:102C5000C3F8A0246F4B93F8A9206C4B83F8A922EA
:102C60006C4B93F8A920694B83F8AD22674BD3E9ED
:102C70006C34664AC2E96E34664B93F8A820634B05
:102C800083F8AA22634B93F8A820604B83F8AB2209
:102C9000604B93F8A9205D4B83F8AE225D4B93F80F
:102CA000A9205A4B83F8AF225A4B93F8A920574BCF
:102CB00083F8A822574B93F8A820544B83F8AC22F2
:102CC000ACE1524BD3E97045504BD3F82032184653
:102CD000FDF728FE02460B4620462946FEF718F966
:102CE0000346002B37D0494B93F8B322494B93F856
:102CF000A9309A421DD1454BD3E96445434BD3F8E3
:102D000054321846FDF70EFE0A46014601231E46C0
:102D100013460A4620462946FEF7F0F80346002BE4
:102D200001D100231E46F3B283F00103DBB2002B76
:102D300011D0374B022283F80625344BD3E97001BA
:102D40004FF00002344BFDF7B1FC03460C462F4A0E
:102D5000C2E9703464E12D4B93F8B3222D4B93F804
:102D6000A9309A4240F05C81284BD3E96445274B57
:102D7000D3F854321846FDF7D5FD02460B462046DF
:102D80002946FEF7BBF80346002B00D148E1204B53
:102D9000012283F806251E4B0022C3F8A0241D4BF8
:102DA00093F8A920194B83F8AA221A4B93F8A8206C
:102DB000164B83F8AB22174B93F8A920134B83F8DB
:102DC000A922144B93F8A920104B83F8A822114B89
:102DD00093F8A9200D4B83F8AE220E4B93F8A9204F
:102DE0000A4B83F8AF220B4B93F8A920074B83F8CB
:102DF000AC22084B93F8A820044B83F8AD22034B78
:102E0000D3E96C34014AC2E96E3409E1181100209B
:102E1000D0130020000000200000F03F854B93F805
:102E2000B322854B93F8A9309A4250D1814BD3E914
:102E30006445804BD3F850321846FDF773FD0246C7
:102E40000B4620462946FEF759F80346002B3ED094
:102E50007A4B012283F80625784B0022C3F8A02480
:102E6000754B93F8A920734B83F8AA22724B93F801
:102E7000A820704B83F8AB226F4B93F8A9206D4BC1
:102E800083F8A9226C4B93F8A9206A4B83F8A822F7
:102E9000694B93F8A920674B83F8AE22664B93F8F1
:102EA000A920644B83F8AF22634B93F8A920614BB0
:102EB00083F8AC22604B93F8A8205E4B83F8AD22D8
:102EC0005C4BD3E96C345B4AC2E96E34AAE0594BDF
:102ED000D3E97045574BD3F820321846FDF722FD51
:102EE00002460B4620462946FEF712F80346002B01
:102EF00000D197E04F4B93F8B3224F4B93F8A93092
:102F00009A421DD14B4BD3E964454A4BD3F8543216
:102F10001846FDF707FD0A46014601231E461346E3
:102F20000A4620462946FDF7E9FF0346002B01D15A
:102F300000231E46F3B283F00103DBB2002B71D0F5
:102F40003E4B032283F806253A4BD3E970014FF03C
:102F500000023B4BFDF7AAFB03460C46354AC2E98B
:102F600070345FE0354BD3F8A024324BD3F8603295
:102F70009A4259D3314B052283F806252F4B002264
:102F8000C3F8A0242B4BD3F890322A4AC2F87432EB
:102F9000284A4FF000034FF00004C2E9703443E0C8
:102FA000244B93F8A632002B19D1244BD3F8A0243C
:102FB000204BD3F824329A4211D3204B022283F8BB
:102FC00006251C4BD3E970014FF000021C4BFDF7A6
:102FD0006DFB03460C46174AC2E9703426E0154BD8
:102FE00093F8A632012B21D1144BD3F8A024114B16
:102FF000D3F824329A4219D3104B032283F80625C2
:103000000C4BD3E970014FF000020D4BFDF74EFB66
:1030100003460C46074AC2E9703407E000BF06E0E9
:1030200000BF04E000BF02E000BF00E000BF00BF3F
:10303000F8BD00BF1811002000000020D0130020B0
:103040000000F03FF8B500AF934BD3F83C22934B10
:10305000D3F894349A4212D0904B002283F803257F
:103060008E4B062283F801258B4B4FF00002C3F8EC
:103070006822894B4FF00002C3F86C221DE2874B97
:1030800093F80335013B032B00F2D08101A252F8E3
:1030900023F000BFA53000004F310000A93200002E
:1030A000F13300007D4BD3F8A0447B4B93ED767B4E
:1030B000B0EE470AF0EE670A0BF03EFF53EC102B20
:1030C00010461946FDF780FF03469C42C0F0EC8194
:1030D000724B042283F80325704B0022C3F8A0240E
:1030E0006F4B93F8A9206C4B83F8A9226C4B93F893
:1030F000A920694B83F8AD22674BD3E96A34664A4D
:10310000C2E96E34664B93F8A820634B83F8AA2279
:10311000634B93F8A820604B83F8AB22604B93F885
:10312000A9205D4B83F8AE225D4B93F8A9205A4B42
:1031300083F8AF225A4B93F8A820574B83F8A82264
:10314000574B93F8A920544B83F8AC22ACE1524B77
:10315000D3E97045504BD3F820321846FDF7E2FB17
:1031600002460B4620462946FDF7D2FE0346002BB9
:1031700037D0494B93F8B222494B93F8A9309A4281
:103180001DD1454BD3E96445434BD3F8543218461F
:10319000FDF7C8FB0A46014601231E4613460A46B0
:1031A00020462946FDF7AAFE0346002B01D1002345
:1031B0001E46F3B283F00103DBB2002B11D0374B74
:1031C000022283F80325344BD3E970014FF000024B
:1031D000344BFDF76BFA03460C462F4AC2E97034B4
:1031E00064E12D4B93F8B2222D4B93F8A9309A420B
:1031F00040F05C81284BD3E96445274BD3F8543227
:103200001846FDF78FFB02460B4620462946FDF780
:1032100075FE0346002B00D148E1204B012283F8C4
:1032200003251E4B0022C3F8A0241D4B93F8A920B0
:10323000194B83F8AA221A4B93F8A820164B83F84F
:10324000AB22174B93F8A820134B83F8A922144BF9
:1032500093F8A920104B83F8A822114B93F8A920CA
:103260000D4B83F8AE220E4B93F8A9200A4B83F83E
:10327000AF220B4B93F8A920074B83F8AC22084BE5
:1032800093F8A920044B83F8AD22034BD3E96A34A9
:10329000014AC2E96E3409E118110020D013002060
:1032A000000000200000F03F854B93F8B222854BD0
:1032B00093F8A9309A4250D1814BD3E96445804BB1
:1032C000D3F850321846FDF72DFB02460B46204638
:1032D0002946FDF713FE0346002B3ED07A4B012210
:1032E00083F80325784B0022C3F8A024754B93F88C
:1032F000A920734B83F8AA22724B93F8A820704B35
:1033000083F8AB226F4B93F8A8206D4B83F8A9226A
:103310006C4B93F8A9206A4B83F8A822694B93F869
:10332000A920674B83F8AE22664B93F8A920644B23
:1033300083F8AF22634B93F8A920614B83F8AC224A
:10334000604B93F8A9205E4B83F8AD225C4BD3E928
:103350006A345B4AC2E96E34AAE0594BD3E970453E
:10336000574BD3F820321846FDF7DCFA02460B46DD
:1033700020462946FDF7CCFD0346002B00D197E0FF
:103380004F4B93F8B2224F4B93F8A9309A421DD17C
:103390004B4BD3E964454A4BD3F854321846FDF7FA
:1033A000C1FA0A46014601231E4613460A46204634
:1033B0002946FDF7A3FD0346002B01D100231E463D
:1033C000F3B283F00103DBB2002B71D03E4B03223A
:1033D00083F803253A4BD3E970014FF000023B4BD1
:1033E000FDF764F903460C46354AC2E970345FE0E4
:1033F000354BD3F8A024324BD3F848329A4259D3F4
:10340000314B052283F803252F4B0022C3F8A0245B
:103410002B4BD3F888322A4AC2F87032284A4FF030
:1034200000034FF00004C2E9703443E0244B93F8EA
:10343000A632002B19D1244BD3F8A024204BD3F86B
:1034400024329A4211D3204B022283F803251C4BCD
:10345000D3E970014FF000021C4BFDF727F903463A
:103460000C46174AC2E9703426E0154B93F8A63291
:10347000012B21D1144BD3F8A024114BD3F82432C3
:103480009A4219D3104B032283F803250C4BD3E93E
:1034900070014FF000020D4BFDF708F903460C4692
:1034A000074AC2E9703407E000BF06E000BF04E04D
:1034B00000BF02E000BF00E000BF00BFF8BD00BFDA
:1034C0001811002000000020D01300200000F03F61
:1034D000B0B500AFB74BD3F83C321846FDF722FA2F
:1034E000B54BD3E9F6341A462346FDF7FDFC0346F7
:1034F000002B12D1B04B002283F80425AE4B0622DC
:1035000083F80125AB4B4FF00002C3F86822A94BAA
:103510004FF00002C3F86C226DE1A74B93F804351D
:10352000013B032B00F2338101A252F823F000BFCC
:1035300041350000EB350000A13600006137000086
:103540009D4BD3F8A0449B4B93ED767BB0EE470A9E
:10355000F0EE670A0BF0F0FC53EC102B1046194606
:10356000FDF732FD03469C42C0F03C81924B0422A1
:1035700083F80425904B0022C3F8A0248F4B93F8C6
:10358000A9208C4B83F8A9228C4B93F8A920894B56
:1035900083F8AD22874BD3E96A34864AC2E96E3498
:1035A000864B93F8A820834B83F8AA22834B93F889
:1035B000A820804B83F8AB22804B93F8A9207D4B49
:1035C00083F8AE227D4B93F8A9207A4B83F8AF2283
:1035D0007A4B93F8A820774B83F8A822774B93F87F
:1035E000A920744B83F8AC22FCE0724B93F8B22212
:1035F000724B93F8A9309A4240F0F6806D4BD3E9B4
:1036000064456C4BD3F87C321846FDF7ADF90246A1
:103610000B4620462946FDF771FC0346002B00D1DE
:10362000E2E0654B012283F80425634B0022C3F8D6
:10363000A024624B93F8A9205E4B83F8AA225F4B2B
:1036400093F8A8205B4B83F8AB225C4B93F8A8203F
:10365000584B83F8A922594B93F8A920554B83F86E
:10366000A822564B93F8A920524B83F8AE22534B15
:1036700093F8A9204F4B83F8AF22504B93F8A92021
:103680004C4B83F8AC224D4B93F8A920494B83F85F
:10369000AD22484BD3E96A34464AC2E96E34A3E00E
:1036A000444B93F8B222454B93F8A9309A4240F02C
:1036B0009D80404BD3E964453E4BD3ED9F7AB1EEFC
:1036C000047A77EEC77A17EE900AFDF74DF90246B5
:1036D0000B4620462946FDF711FC0346002B00D17E
:1036E00084E0354B012283F80425334B0022C3F8D4
:1036F000A024324B93F8A9202E4B83F8AA222F4BFB
:1037000093F8A8202B4B83F8AB222C4B93F8A820DE
:10371000284B83F8A922294B93F8A920254B83F83D
:10372000A822264B93F8A920224B83F8AE22234BE4
:1037300093F8A9201F4B83F8AF22204B93F8A920C0
:103740001C4B83F8AC221D4B93F8A920194B83F82E
:10375000AD22184BD3E96A34164AC2E96E3445E00B
:10376000154BD3F8A024134BD3F848329A423FD3D9
:10377000114B052283F804250F4B0022C3F8A02427
:103780000C4BD3F888320B4AC2F8703230E0094B48
:1037900093F8A632002B13D1074BD3F8A024054B86
:1037A000D3F82C329A420BD3034B022283F8042520
:1037B00020E000BF18110020D013002000000020DE
:1037C0000E4B93F8A632012B14D10D4BD3F8A02445
:1037D0000A4BD3F82C329A420CD3094B032283F8BC
:1037E000042507E000BF06E000BF04E000BF02E0E0
:1037F00000BF00E000BF00BFB0BD00BF1811002037
:10380000D013002098B52DED028B00AF684BD3F894
:103810003C22684BD3F89C349A4212D0654B00226C
:1038200083F80525634B062283F80125604B4FF092
:103830000002C3F868225E4B4FF00002C3F86C220E
:10384000B1E05C4B93F80535012B59D1594BD3F8B6
:10385000A03407EE903AB8EE678A554BD3ED998ABB
:10386000534BD3E9763418462146FDF7CDFB07EEDE
:10387000900A78EEE77AB4EEE78AF1EE10FA00DA11
:1038800091E04C4B022283F805254A4B0022C3F8F5
:10389000A024494B93F8A920454B83F8AA22464B14
:1038A00093F8A820424B83F8AB22434B93F8A8200F
:1038B0003F4B83F8A922404B93F8A9203C4B83F857
:1038C000A8223D4B93F8A920394B83F8AE223A4BFE
:1038D00093F8A920364B83F8AF22374B93F8A920F1
:1038E000334B83F8AC22344B93F8A920304B83F848
:1038F000AD222F4BD3E96A342D4AC2E96E3452E02F
:103900002C4BD3F8A0442A4B93ED767BB0EE470ABC
:10391000F0EE670A0BF010FB53EC102B1046194623
:10392000FDF752FB03469C423DD3224B012283F814
:103930000525204B0022C3F8A0241F4B93F8A92093
:103940001B4B83F8A9221C4B93F8A920184B83F832
:10395000AD22174BD3E96A34154AC2E96E34164BCF
:1039600093F8A820124B83F8AA22134B93F8A820AF
:103970000F4B83F8AB22104B93F8A9200C4B83F824
:10398000AE220D4B93F8A920094B83F8AF220A4BC6
:1039900093F8A820064B83F8A822074B93F8A92098
:1039A000034B83F8AC2200BFBD46BDEC028B98BD33
:1039B00018110020D01300200000002090B585B021
:1039C00000AF824BD3F83C321846FCF7ABFF804B7C
:1039D000D3E9F2341A462346FDF786FA0346002B54
:1039E00012D17B4B002283F80225794B062283F803
:1039F0000125764B4FF00002C3F86822734B4FF05D
:103A00000002C3F86C22DDE0714B93F80235012B04
:103A100040F085806D4BD3F810321846FCF782FFDA
:103A20006A4BD3E976341A462346FCF73DFE03463B
:103A30000C4644EC173BB0EE470AF0EE670AFFF77E
:103A400041F8B0EE407AF0EE607A87ED007B4FF0FF
:103A50000002604BD7E90001FDF750FA0346002B46
:103A600014D04FF000024FF00003D7E90001FDF73A
:103A700059FA0346002B06D0D7E90001FDF7A4FA56
:103A80000346FB6005E00023FB6002E04FF0FF33DC
:103A9000FB604F4BD3F8A034FA689A4200F2928050
:103AA0004B4B022283F80225494B0022C3F8A02485
:103AB000494B93F8A920454B83F8AA22464B93F82B
:103AC000A820424B83F8AB22434B93F8A8203F4BEE
:103AD00083F8A922404B93F8A9203C4B83F8A822F5
:103AE0003D4B93F8A920394B83F8AE223A4B93F81B
:103AF000A920364B83F8AF22374B93F8A920334BDC
:103B000083F8AC22344B93F8A920304B83F8AD22D4
:103B10002E4BD3E96A342D4AC2E96E3452E02C4B65
:103B2000D3F8A044294B93ED767BB0EE470AF0EE34
:103B3000670A0BF001FA53EC102B10461946FDF7FB
:103B400043FA03469C423DD3214B012283F80225D0
:103B50001F4B0022C3F8A0241F4B93F8A9201B4B36
:103B600083F8A9221C4B93F8A920184B83F8AD22A7
:103B7000164BD3E96A34154AC2E96E34164B93F8F2
:103B8000A820124B83F8AA22134B93F8A8200F4BBE
:103B900083F8AB22104B93F8A9200C4B83F8AE228C
:103BA0000D4B93F8A920094B83F8AF220A4B93F8E9
:103BB000A820064B83F8A822074B93F8A920034BB3
:103BC00083F8AC2200BF1437BD4690BD1811002009
:103BD000D01300200000F0410000002080B582B02A
:103BE00000AF78607B685B68012B08D17B681B7A2B
:103BF000002B04D07B681B69184605F069FB00BFE9
:103C00000837BD4680BD80B582B000AF7860786867
:103C1000FFF7E4FF00BF0837BD4680BD80B582B026
:103C200000AF78607B681B78002B05D17B68012290
:103C30001A707868FFF7E7FF00BF0837BD4680BD00
:103C400080B582B000AF78607B685B68012B08D1DB
:103C50007B681B7A002B04D07B681B69184605F033
:103C60001EFD00BF0837BD4680BD80B582B000AFE5
:103C700078607868FFF7E4FF00BF0837BD4680BD75
:103C800080B582B000AF78607B681B78002B05D1CF
:103C90007B6801221A707868FFF7E7FF00BF0837DA
:103CA000BD4680BD80B582B000AF78607B685B6840
:103CB000012B08D17B681B7A002B04D07B681B6921
:103CC000184605F0ECFC00BF0837BD4680BD80B546
:103CD00082B000AF78607868FFF7E4FF00BF083774
:103CE000BD4680BD80B582B000AF78607B681B7830
:103CF000002B05D17B6801221A707868FFF7E7FF77
:103D000000BF0837BD4680BD80B582B000AF786087
:103D10007B685B68012B0DD17B681B7A002B09D077
:103D20007B681B69184604F0DDFE7B681B6918463A
:103D300004F0EEFE00BF0837BD4680BD80B582B0FE
:103D400000AF78607868FFF7DFFF00BF0837BD4637
:103D500080BD80B582B000AF78607B681B78002B97
:103D600005D17B6801221A707868FFF7E7FF00BF72
:103D70000837BD4680BD80B582B000AF78607B68F3
:103D80005B68012B0DD17B681B7A002B09D07B6807
:103D90001B69184604F0A6FC7B681B69184604F0F2
:103DA000ABFC00BF0837BD4680BD80B582B000AF18
:103DB00078607868FFF7DFFF00BF0837BD4680BD39
:103DC00080B582B000AF78607B681B78002B05D18E
:103DD0007B6801221A707868FFF7E7FF00BF083799
:103DE000BD4680BD80B582B000AF78607B685B68FF
:103DF000012B08D17B681B7A002B04D07B681B69E0
:103E0000184605F065FA00BF0837BD4680BD80B58D
:103E100082B000AF78607868FFF7E4FF00BF083732
:103E2000BD4680BD80B582B000AF78607B681B78EE
:103E3000002B05D17B6801221A707868FFF7E7FF35
:103E400000BF0837BD4680BD80B582B000AF786046
:103E50007B685B68012B08D17B681B7A002B04D040
:103E60007B689B6A184604F0F4FC00BF0837BD4627
:103E700080BD80B582B000AF78607868FFF7E4FF5E
:103E800000BF0837BD4680BD80B582B000AF786006
:103E90007B681B78002B05D17B6801221A7078683B
:103EA000FFF7E7FF00BF0837BD4680BD80B483B091
:103EB00000AF78607B685B68012B02D17B680222CF
:103EC0005A6000BF0C37BD465DF8047B704780B573
:103ED00082B000AF78607868FFF7E8FF00BF08376E
:103EE000BD4680BD80B582B000AF78607B681B782E
:103EF000002B05D17B6801221A707868FFF7E7FF75
:103F000000BF0837BD4680BD80B485B000AF786083
:103F10007B685B68012B11D17B681B7A002B0DD06D
:103F20007B68DB6AFB60FB681B68012B02D1FB68C6
:103F300002221A607B684FF0FF321A6300BF143709
:103F4000BD465DF8047B704780B582B000AF7860F5
:103F50007868FFF7D9FF00BF0837BD4680BD80B540
:103F600082B000AF78607B681B78002B05D17B683E
:103F700001221A707868FFF7E7FF00BF0837BD46D7
:103F800080BD000080B584B000AF78607B680022FF
:103F90001A727B6801225A60154B4FF0FF32C3F84A
:103FA00088210023BB60124BD3F8882107F1080059
:103FB0000A23002104F004FE02467B681A617B6834
:103FC0001B694FF4E131184605F0D0F80123FB736B
:103FD0000023BB737B681869FB7BBA7B082105F063
:103FE000D1F87B6801221A7200BF1037BD4680BD30
:103FF0001811002080B588B002AF78607B6800227D
:104000001A727B6801225A600023FB7500233B6112
:10401000FB7D1946386904F079FB02467B689A6299
:104020007B68494A5A627B689A6A7B685B6A194670
:10403000104604F08FFB2B233B7340237B737B687C
:10404000986A07F10C0200230193002300930223D6
:104050001D2104F0CAFB4FF4FA7008F079FD2A2301
:10406000FB727B68986A07F10B020023019301231E
:10407000009301231D2104F0B8FB0346FB72FB7A79
:10408000002B14D17B68986A07F10B02012301937E
:104090000023009301231D2104F073FB07F10B01A2
:1040A00007F10F0301221846FEF704F901E000238F
:1040B000FB732A233B73FB7B23F00103DBB27B738F
:1040C0007B68986A07F10C02002301930023009398
:1040D00002231D2104F089FB0E233B7301237B7314
:1040E0007B68986A07F10C02002301930023009378
:1040F00002231D2104F079FB5B233B7300237B73B8
:104100007B68986A07F10C02002301930023009357
:1041100002231D2104F069FB2A233B7301237B73D7
:104120007B68986A07F10C02002301930023009337
:1041300002231D2104F059FB7B6801221A7200BF83
:104140001837BD4680BD00BFA086010080B584B091
:1041500000AF78607B6800221A727B6801225A6087
:10416000154B4FF0FF32C3F884210023BB60124B84
:10417000D3F8843107F108000A22002104F020FD61
:1041800002467B681A617B681B694FF4E13118466F
:1041900004F0ECFF0123FB730023BB737B681869F9
:1041A000FB7BBA7B082104F0EDFF7B6801221A72C9
:1041B00000BF1037BD4680BD181100200000000070
:1041C000F0B52DED028B93B002AFB94BD3E9A80146
:1041D000B84BD3E90C341A462346FCF785FE034658
:1041E000002B05D1B34BD3E90C34B14AC2E9A83452
:1041F000AF4BD3F898326322AF49184604F0D6FF8C
:10420000034687F827306322AB49AC48FEF752F8E3
:10421000A74B93F81D35002B07D1A54B93F81D35FF
:104220000133DAB2A24B83F81D25A14B93F81A355E
:10423000002B65D19E4B012283F81A259C4B02224C
:1042400083F81B259E4B6422C3F83C229C4BAF2273
:10425000C3F85C229A4B3C22C3F85422984B994AEB
:10426000C3F88422964A8EA4D4E90034C2E9763495
:10427000934B944AC3F88C22914A4FF00003924C1E
:10428000C2E97C348E4BFA22C3F848228C4BFA22C6
:10429000C3F858228A4B2D22C3F85022884A82A4A0
:1042A000D4E90034C2E97A34854A7FA4D4E90034E1
:1042B000C2E97834824B854AC3F89022804B844A05
:1042C000C3F888227E4B4FF4A072C3F860227C4B67
:1042D000002283F8A6227A4B0222C3F84C22784BA4
:1042E0000A22C3F83822764B0622C3F84422744BC4
:1042F0000222C3F84022724B7822C3F834223CE3F6
:104300006B4B93F81B35013B052B00F2F18201A2A8
:1043100052F823F02D430000534300007543000082
:10432000D5440000F3450000CF480000644B012253
:1043300083F8A7225E4B93F81D35002B00F0E18235
:104340005B4B052283F81B255D4B002283F8A722D7
:10435000D7E25B4B5D4AC3F89022594B5C4AC3F8E5
:104360008822534B052283F81B25554B002283F8E6
:10437000A72202E34E4B93F81D35002B00F0C382B9
:104380004B4B042283F81B25494B012283F82D2532
:10439000474B93F82D35002B00F0B582444BD3F8F2
:1043A000CC34312B8CBF01230023DBB21A46444BA3
:1043B000D3F85C329A4206D83D4B93F82D35002B4A
:1043C00001D0012300E00023DAB2394B83F82D2518
:1043D000374BD3F8B034642B2ED0354BD3F8B034F0
:1043E000C82B29D0324BD3F8B034702B24D0304BAB
:1043F000D3F8B034DE2B1FD02D4BD3F8B034B3F547
:104400007A7F19D02A4BD3F8B034B3F58C6F13D020
:10441000274BD3F8B034B3F5FA6F0DD0244BD3F853
:10442000B03440F6AC02934206D0214BD3F8B034FE
:1044300040F60252934206D11D4B93F82D35002BC6
:1044400001D0012300E00023DAB2194B83F82D25B7
:10445000174BD3F8B034642B14D1154BD3F8CC34AC
:104460003C2B0FD1124BD3E9FC010DA3D3E9002360
:10447000FCF73AFD0346002B04D00D4BD3F8C034B3
:10448000FA2B06D00A4B93F82D35002B01D00123CF
:1044900000E00023DAB2064B83F82D2533E200BF9B
:1044A0009A9999999999D93F0AD7A3703D0AB73F2C
:1044B000D01300200000002013120020B0110020B3
:1044C00018110020000070400000F03F0000204064
:1044D00000003040534B93F82D35002B04D1514B45
:1044E000072283F81B2548E24E4B062283F81B2542
:1044F0004C4BD3F8B0344C4AC2F83C32494BD3F859
:10450000D434494AC2F85C32464BD3F8CC34464ADC
:10451000C2F85432434B03F26C431B68424AC2F860
:104520008432404BD3E9FC343F4AC2E976343D4BF8
:1045300003F58E631B683C4AC2F88C32394B03F595
:104540008163D3E90034384AC2E97C34354BD3F86F
:10455000C034354AC2F84832324BD3F8D034324AEC
:10456000C2F858322F4BD3F8C8342F4AC2F8503211
:104570002C4B03F58063D3E900342B4AC2E97A342B
:10458000284BD3E9FE34284AC2E97834264B274A1F
:10459000C3F89022244B264AC3F88822214BD3F833
:1045A000D834214AC2F860321E4B93F81C251E4BAA
:1045B00083F8A6221B4BD3F8C4341B4AC2F84C32F2
:1045C000184BD3F8B434184AC2F83832154BD3F824
:1045D000BC34154AC2F84432124BD3F8B834124AEC
:1045E000C2F840320F4BD3F8AC340F4AC2F8343221
:1045F000C3E10D4B002283F8A72297F82730002B48
:1046000040F0BA81084B93F89830162B40F0B481F3
:10461000054B93F89930452B00F04B81552B09D071
:10462000AAE100BFD0130020181100200000204094
:1046300000003040B54B032283F81B25B34B00220A
:1046400083F81D250422B249B248FDF733FEAF4B73
:104650000122C3F88C24AD4BD3F8DC34AB4AC2F84A
:10466000B0340422AC49AB48FDF724FEA74B01222D
:10467000C3F88C24A54BD3F8DC34A44AC2F8D43454
:104680000422A649A348FDF715FEA04B0122C3F85A
:104690008C249E4BD3F8DC349C4AC2F8CC340422E0
:1046A0009F499C48FDF706FE984B0122C3F88C24D5
:1046B000964BD3F8DC34954AC2F8C03404229949A9
:1046C0009448FDF7F7FD914B0122C3F88C248F4BE2
:1046D000D3F8DC348D4AC2F8D034042292498D4894
:1046E000FDF7E8FD894B0122C3F88C24874BD3F8F2
:1046F000DC34864AC2F8C83404228C498548FDF768
:10470000D9FD824B0122C3F88C24804BD3F8DC34D2
:104710007E4AC2F8D834042285497E48FDF7CAFD96
:104720007A4B0122C3F88C24784BD3F8DC34774AD7
:10473000C2F8C43404227F497648FDF7BBFD734BB1
:104740000122C3F88C24714BD3F8DC346F4AC2F8D1
:10475000B434042278496F48FDF7ACFD6B4B01225D
:10476000C3F88C24694BD3F8DC34684AC2F8BC34F3
:10477000042272496748FDF79DFD644B0122C3F88E
:104780008C24624BD3F8DC34604AC2F8B83404227B
:104790006B496048FDF78EFD5C4B0122C3F88C2409
:1047A0005A4BD3F8DC34594AC2F8AC34654B93F811
:1047B000FA20564B83F81C25042263496348FDF711
:1047C00079FD524B0122C3F89024504B03F27443FD
:1047D0001A684E4B03F26C431A6004225C495B4832
:1047E000FDF768FD494B0122C3F89024474B03F2C3
:1047F00074431A68454B03F58E631A6004225549C9
:104800005248FDF757FD414B0122C3F89024042282
:1048100051494E48FDF74EFD3C4B0122C3F8902410
:1048200008224E494E48FDF745FD384B0122C3F89A
:104830008824364B03F58263D3E90034334AC2E956
:10484000FC34082247494648FDF734FD2F4B01222E
:10485000C3F888242D4B03F58263D3E900342B4A37
:1048600002F58162C2E9003408223F493C48FDF765
:1048700021FD264B0122C3F88824244B03F58263D3
:10488000D3E90034214A02F58062C2E900340822EB
:1048900036493348FDF70EFD1C4B0122C3F888242E
:1048A0001A4B03F58263D3E90034184AC2E9FE3497
:1048B0000CE0164B012283F81B25144B002283F8D1
:1048C0001D25204B012283F8A72200BF54E01D4B79
:1048D000274AC3F890221B4B264AC3F888220B4B69
:1048E000052283F81B25174B002283F8A72244E0FA
:1048F000064B052283F81B25124B002283F8A722C2
:104900003BE000BF39E000BF37E000BFD01300201C
:10491000B2110020AC180020B6110020BA110020FE
:10492000D6110020DA110020DE110020FA1100203B
:10493000FE11002002120020061200200A120020A0
:104940000E12002018110020BE1100204418002073
:10495000CA110020F2110020F6110020C21100201F
:10496000E0170020CE110020E2110020EA11002003
:10497000000020400000304000BFBA4BD3F8543252
:1049800007EE903AF8EE677ADFEDB76A87EEA67A1F
:10499000F7EE006AC6EE877AB24BC3ED997AB34B55
:1049A000D3E97801B24BD3E90A341A462346FCF71F
:1049B0009BFA0346002B05D1AD4BD3E90A34AB4A31
:1049C000C2E97834A94BD3F8D831184604F0F0FD89
:1049D00003461A46A34B83F8B222A44BD3E98001C5
:1049E000A34BD3E908341A462346FCF77DFA034665
:1049F000002B05D19E4BD3E908349C4AC2E9803490
:104A00009A4BD3F8F831184604F0D2FD03461A4603
:104A1000944B83F8B322954BD3F8A834B3F1FF3FFE
:104A200006D0924BD3F8A8340133904AC2F8A83488
:104A30008E4B93F80F35002B08D18C4B012283F855
:104A40000F258A4B042283F8102578E2874B93F8D0
:104A50001035022B00F01281032B00F02481012B72
:104A600040F026827F4BD3F83C32702B08D07F4B2E
:104A7000002283F811257D4B042283F810255EE285
:104A80007A4B93F81135013B032B00F2B28001A25F
:104A900052F823F0A54A0000FF4A0000314B000005
:104AA0006B4B00006F4B93F8B232002B16D16F4B5B
:104AB000012283F811256B4BD3F830320133FB60B0
:104AC000684BD3F83022FB689A4202D94FF0FF338B
:104AD000FB60FB68634AC2F83032CEE0634B0322CE
:104AE00083F81125614B0022C3F8A8245D4B0122F5
:104AF00083F8B0225B4B012283F8B122BDE0594B11
:104B0000002283F8B022574B93F8B232002B00F00A
:104B1000A580564B052283F81125544B0022C3F87B
:104B2000A824504BD3F848324E4AC2F8303295E0B0
:104B30004C4B012283F8B0224C4BD3F8A834002B05
:104B400000F08E80494B042283F81125474B002248
:104B5000C3F8A824434B002283F8B022414BD3F87A
:104B60004832404AC2F830327AE03E4B002283F8A5
:104B7000B0223C4BD3F84832013BFB60394BD3F8B1
:104B80004822FB689A4201D20023FB60374BD3F8DE
:104B9000A824FB689A426DD3324B93F8B232002BB3
:104BA00016D1324B012283F811252E4BD3F8303227
:104BB0000133FB602B4BD3F83022FB689A4202D9B9
:104BC0004FF0FF33FB60FB68264AC2F8303251E0F9
:104BD000264B032283F81125244B0022C3F8A82476
:104BE000204B012283F8B0221E4B012283F8B12210
:104BF00040E01E4BD3F8A8241A4BD3F848329A420F
:104C00003AD3184B93F8B232002B16D1174B01222E
:104C100083F81125134BD3F830320133FB60114B6D
:104C2000D3F83022FB689A4202D94FF0FF33FB6081
:104C3000FB680C4AC2F830321EE00C4B032283F8AA
:104C400011250A4B0022C3F8A824064B012283F841
:104C5000B022044B012283F8B1220DE000BF6EE1C7
:104C600000BF6CE11811002000606A47D0130020DB
:104C70000000002000BF62E100BF60E1AD4BD3F84F
:104C80003C32642B00F05381AA4BD3F83C32C82B42
:104C900000F04D81A74B002283F8B122A64B0422DD
:104CA00083F8102543E1A34BD3F83C32DE2B08D028
:104CB000A14B002283F812259F4B042283F8102574
:104CC0003DE19D4B93F81235013B032B00F2B3807D
:104CD00001A252F823F000BFE94C0000434D000050
:104CE000754D0000AF4D0000924B93F8B332002B8E
:104CF00016D1914B012283F812258E4BD3F8303216
:104D00000133FB608B4BD3F83022FB689A4202D907
:104D10004FF0FF33FB60FB68864AC2F83032C6E0D2
:104D2000854B032283F81225834B0022C3F8A82465
:104D3000804B012283F8B0227E4B012283F8B122FE
:104D4000B5E07C4B002283F8B0227A4B93F8B33263
:104D5000002B00F0A580784B052283F81225764BB6
:104D60000022C3F8A824734BD3F86032714AC2F80A
:104D7000303295E06F4B012283F8B0226E4BD3F8AE
:104D8000A834002B00F08E806B4B042283F8122590
:104D9000694B0022C3F8A824664B002283F8B02296
:104DA000644BD3F86032634AC2F830327AE0614B28
:104DB000002283F8B0225F4BD3F86032013BFB60E6
:104DC0005C4BD3F86022FB689A4201D20023FB605F
:104DD000594BD3F8A824FB689A4265D3554B93F8F6
:104DE000B332002B16D1544B012283F81225514BBC
:104DF000D3F830320133FB604E4BD3F83022FB68DE
:104E00009A4202D94FF0FF33FB60FB68494AC2F86F
:104E1000303249E0484B032283F81225464B0022EA
:104E2000C3F8A824434B012283F8B022414B01224E
:104E300083F8B12238E0404BD3F8A8243D4BD3F897
:104E400060329A4232D33B4B93F8B332002B16D1E7
:104E5000394B012283F81225364BD3F83032013317
:104E6000FB60344BD3F83022FB689A4202D94FF0F2
:104E7000FF33FB60FB682F4AC2F8303216E02E4B3E
:104E8000032283F812252C4B0022C3F8A824294BB7
:104E9000012283F8B022274B012283F8B12205E0DA
:104EA00000BF4CE000BF4AE000BF48E000BF46E062
:104EB000204BD3F83C32702B10D11F4B012283F8CA
:104EC00010251D4B022283F811251A4B002283F86E
:104ED000B022184B0022C3F830222FE0154BD3F834
:104EE0003C32642B04D0134BD3F83C32C82B08D18E
:104EF000114B022283F810250E4B012283F8B122B8
:104F00001CE00C4BD3F83C32DE2B17D10A4B0322AA
:104F100083F81025084B022283F81225054B002246
:104F200083F8B022034B0022C3F8302206E000BF12
:104F300005E000BF18110020D013002000BFB54BC2
:104F400093F8B032002B05D0B24BD3F83032B24ACE
:104F5000C2F85034B04BD3F850341846FBF7E2FC9B
:104F600003460C461A4623464FF00000AB49FBF7B8
:104F70007DFE03460C4618462146A94BD3E9123460
:104F80001A462346FBF748FD03460C46A14AC2E9F0
:104F90006434A14BD3E9F0349E4AC2E966349E4B97
:104FA000B3F8FC3440F2FE32934207D89A4BB3F880
:104FB000FC3401339AB2984BA3F8FC24964B93F837
:104FC0000935002B1CD1944B012283F80925924B03
:104FD000042283F80A258F4BD3F8543207EE903A17
:104FE000F8EE677A8B4BC3ED9E7A8A4BD3F8543236
:104FF00007EE903AF8EE677A864BC3ED9F7AA5E10B
:10500000854B93F80A35013B032B00F2628101A224
:1050100052F823F0255000008F500000715100001D
:10502000C15200007C4BB3F8FC34B3F57A7F13D344
:10503000794B012283F80A25774B0022A3F8FC2440
:10504000744B93ED9F7A734BD3EDA07A77EE277A6A
:10505000704BC3ED9F7A79E16E4B93ED9F7A6D4B68
:10506000D3ED9E7AB4EEE77AF1EE10FA00DA6DE154
:10507000694B032283F80A25664B0122C3F81C22E0
:10508000644BD3F87832634AC2F87C325EE1614BFC
:105090000022C3F81C225F4BD3E966341846214630
:1050A000FBF7B2FF07EE100A5A4BD3F84C3207EE6B
:1050B000903AF8EE677AB4EEE77AF1EE10FA0EDB8A
:1050C000554B032283F80A25524B0122C3F81C22B8
:1050D000504BD3F878324F4AC2F87C3236E14D4B10
:1050E000D3F8543207EE903AF8EE677A494BC3EDA5
:1050F0009E7A484BD3F8543207EE903AF8EE677A2E
:10510000444BC3ED9F7A434BD3F8343207EE903AC9
:10511000B8EE677A3F4BD3F8543207EE903AF8EE88
:10512000677A77EE677AC7ED0B7A3A4BD3F8383265
:1051300007EE903AB8EE677AD7ED0B6AC6EE877A3B
:10514000344BC3EDA07A334BD3F8403207EE903A9C
:10515000F8EE677A9FED337A27EE877AD7ED0B6A00
:10516000C6EE877A2C4B03F58D63C3ED007AEDE034
:10517000284B0122C3F81C22264BD3E9663418467B
:105180002146FBF741FF07EE100A224BD3F84C32C1
:1051900007EE903AF8EE677AB4EEE77AF1EE10FA9D
:1051A00019D51D4B052283F80A251B4B0022A3F8B5
:1051B000FC24184B93ED9F7A174B03F58D63D3EDC9
:1051C000007A77EE677A134BC3ED9F7A114B00227A
:1051D000C3F81C22BAE00F4B93ED9F7A0D4BD3ED31
:1051E0009E7AB4EEE77AF1EE10FA1DD50A4B012251
:1051F00083F80A25084B0022A3F8FC24054B93ED05
:105200009F7A044BD3EDA07A77EE277A014BC3ED5A
:105210009F7A9BE018110020D01300200000F03F7F
:105220000000002000007042C34BD3E966341846EA
:105230002146FBF7E9FE07EE100AF1EE007A27EEB1
:10524000277ABD4BD3F84C3207EE903AF8EE677AE6
:1052500037EE677AB84BD3F8443207EE903AF8EE5F
:10526000677AF1EE677A67EE277AF0EE670A9FEDCC
:10527000B30AFDF70FFBB0EE407AF7EE007A37EE97
:10528000C77AAD4BD3F8343207EE903AF8EE676A3E
:10529000A94BD3F8543207EE903AF8EE677A76EEDF
:1052A000E77A27EE277AA44BD3F8543207EE903AE8
:1052B000F8EE677A77EE277A9F4BC3ED9E7A45E04A
:1052C0009F4B022283F80A259B4B0022C3F81C2225
:1052D0003CE0994B0022C3F81C22994BB3F8FC34F4
:1052E000B3F57A7F19D3964B052283F80A25944BA0
:1052F0000022A3F8FC24904B93ED9F7A904B03F58A
:105300008D63D3ED007A77EE677A8B4BC3ED9F7A8E
:10531000894B0022C3F81C2217E0874B93ED9F7A3C
:10532000854BD3F8543207EE903AF8EE677AB4EE34
:10533000E77AF1EE10FA00D907E0814B022283F8F8
:105340000A257D4B0022C3F81C2200BF7A4BD3F8FC
:105350007C321846FBF708FB03460C4644EC103B36
:1053600009F07EFE54EC103B18462146FBF74CFE3C
:105370000346FB6297ED0B0A05F0A8FB0346002BE2
:1053800006D197ED0B0A05F045FB0346002B03D031
:105390004FF00003FB6212E0F86AFBF7E5FA034600
:1053A0000C469FED631B44EC103B09F0A7FF54EC47
:1053B000103B18462146FBF727FE0346FB62D7ED5C
:1053C0000B7AF5EEC07AF1EE10FA09D5D7ED0B7A2B
:1053D000F1EE677AFCEEE77A17EE903A5B4205E071
:1053E000D7ED0B7AFCEEE77A17EE903ABB62544B9E
:1053F00093F80D35002B28D1514B012283F80D2550
:105400004F4B032283F80E254D4B4EF66022C3F816
:10541000A424494BD3E978341A4623464FF00000C0
:105420004849FBF741F903460C4618462146424BD2
:10543000D3E964341A462346FBF7EEFA03460C46DA
:105440003F4AC2E9FA3400F07CBE3D4B93F80E357A
:10545000022B2FD0032B5AD0012B40F04486364B21
:10546000D3F83C32702B00F06786354B032283F86B
:105470000E25334B4EF66022C3F8A4242E4BD3E9FD
:1054800078341A4623464FF000002E49FBF70CF9FA
:1054900003460C4618462146274BD3E964341A4686
:1054A0002346FBF7B9FA03460C46254AC2E9FA340B
:1054B00000F042BE204BD3F83C3240F261429342AE
:1054C00000F03C861E4B032283F80E251C4B4EF643
:1054D0006022C3F8A424184BD3E978341A46234633
:1054E0004FF000001749FBF7DFF803460C4618465B
:1054F0002146114BD3E964341A462346FBF78CFA54
:1055000003460C460E4AC2E9FA3400F017BE0A4BB5
:10551000D3F83C32DE2B00F00C8240F26142934221
:1055200000F07683702B0FD000F00BBEAFF300803D
:10553000000000000000F04118110020B6F32D40DB
:10554000D01300200000F03F9F4B012283F80E256E
:105550009E4BD3F848321846FBF7E4F99B4BD3E94E
:1055600076341A462346FBF7A1F803460C4644EC72
:10557000173BB0EE470AF0EE670AFDF7A3FAB0EE6C
:10558000407AF0EE607A914B83ED807B8F4BD3E9CC
:1055900080014FF000028E4BFBF7B0FC0346002B5E
:1055A00018D08A4BD3E980014FF000024FF000037E
:1055B000FBF7B8FC0346002B09D0844BD3E98034B9
:1055C00018462146FBF700FD0346FB6005E000237B
:1055D000FB6002E04FF0FF33FB60FB681846FBF70F
:1055E000A1F9794BD3E9FA341A462346FBF714FAAA
:1055F00003460C4644EC173BB0EE470AF0EE670A50
:10560000FDF760FAB0EE407AF0EE607A6F4B83ED12
:10561000827B6E4BD3E982014FF000026C4BFBF7AB
:105620006DFC0346002B18D0684BD3E982014FF084
:1056300000024FF00003FBF775FC0346002B09D076
:10564000624BD3E9823418462146FBF7BDFC034682
:10565000FB6005E00023FB6002E04FF0FF33FB60DE
:10566000594BD3F8A424FB68D31AFB60564BD3F8EC
:10567000A424FB689A4201D20023FB60FB68184611
:10568000FBF750F9504BD3E9FA341A462346FBF79F
:10569000EDFA03460C4644EC173BB0EE470AF0EE39
:1056A000670AFDF70FFAB0EE407AF0EE607A474BEA
:1056B00083ED827B454BD3E982014FF00002444BDE
:1056C000FBF71CFC0346002B1CD0404BD3E98201A6
:1056D0004FF000024FF00003FBF724FC0346002BC1
:1056E0000BD03A4BD3E9823418462146FBF76CFCC9
:1056F0000246364BC3F8202209E0344B0022C3F89F
:10570000202204E0314B4FF0FF32C3F820222F4B10
:10571000D3E980014FF000022D4BFBF7EFFB03466E
:10572000002B18D0294BD3E980014FF000024FF035
:105730000003FBF7F7FB0346002B09D0234BD3E90B
:10574000803418462146FBF73FFC0346FB6005E02A
:105750000023FB6002E04FF0FF33FB601A4BD3F8ED
:10576000A444FA68194BD3F8543219461046FDF791
:1057700078F80346E31AFB60134BD3F8A424FB68C4
:105780009A4201D20023FB60104BD3F85432002B15
:105790000DD1FB68002B04D10C4B0022C3F824224E
:1057A0003FE00A4B4FF0FF32C3F8242239E0074BA9
:1057B000D3F85432002B0DD0FA68044BD3F854328E
:1057C000B2FBF3F308E000BFD01300201811002053
:1057D0000000F0414FF0FF339A4AC2F82432FA68D1
:1057E000984BD3F824329749D1F8541201FB03F3B4
:1057F000D31ABB62BB6A002B13D0924BD3F854323E
:105800005A08904BD3F8543203F001031344BA6A98
:105810009A4206D38B4BD3F824320133894AC2F81B
:105820002432884BD3E980014FF00002864BFBF70E
:1058300065FB0346002B18D0824BD3E980014FF063
:1058400000024FF00003FBF76DFB0346002B09D06D
:105850007C4BD3E9803418462146FBF7B5FB034661
:10586000FB6005E00023FB6002E04FF0FF33FB60CC
:10587000764BD3F8A444FA68724BD3F850321946E9
:105880001046FCF7EEFF0346E31AFB606F4BD3F8BC
:10589000A424FB689A4201D20023FB60694BD3F831
:1058A0005032002B0FD1FB68002B05D1654B002235
:1058B000C3F8282200F011BC624B4FF0FF32C3F84E
:1058C000282200F00ABC5F4BD3F85032002B06D0E0
:1058D000FA685C4BD3F85032B2FBF3F301E04FF0BF
:1058E000FF33584AC2F82832FA68564BD3F82832A8
:1058F0005449D1F8501201FB03F3D31ABB62BB6ABF
:10590000002B00F0EA834F4BD3F850325A084D4B2E
:10591000D3F8503203F001031344BA6A9A42C0F03C
:10592000DC83484BD3F828320133464AC2F8283288
:10593000D3E3464B042283F80E25424BD3F8603262
:105940001846FAF7EFFF3F4BD3E97C341A4623465B
:10595000FAF7ACFE03460C4644EC173BB0EE470AA0
:10596000F0EE670AFDF7AEF8B0EE407AF0EE607A3E
:10597000344B83ED807B334BD3E980014FF0000241
:10598000314BFBF7BBFA0346002B18D02D4BD3E964
:1059900080014FF000024FF00003FBF7C3FA03460B
:1059A000002B09D0274BD3E9803418462146FBF75A
:1059B0000BFB0346FB6005E00023FB6002E04FF0B9
:1059C000FF33FB60FB681846FAF7ACFF1F4BD3E9C7
:1059D000FA341A462346FBF71FF803460C4644ECFC
:1059E000173BB0EE470AF0EE670AFDF76BF8B0EE32
:1059F000407AF0EE607A134B83ED827B114BD3E952
:105A000082014FF00002104BFBF778FA0346002B9F
:105A10001ED00C4BD3E982014FF000024FF000037F
:105A2000FBF780FA0346002B09D0064BD3E98234FA
:105A300018462146FBF7C8FA0346FB600BE000233B
:105A4000FB6008E0181100200000F041D013002096
:105A50004FF0FF33FB60B34BD3F8A424FB68D31A99
:105A6000FB60B04BD3F8A424FB689A4201D2002318
:105A7000FB60FB681846FAF755FFAA4BD3E9FA34E6
:105A80001A462346FBF7F2F803460C4644EC173B54
:105A9000B0EE470AF0EE670AFDF714F8B0EE407A70
:105AA000F0EE607AA04B83ED827B9F4BD3E98201BD
:105AB0004FF000029D4BFBF721FA0346002B1CD050
:105AC000994BD3E982014FF000024FF00003FBF73E
:105AD00029FA0346002B0BD0934BD3E982341846A6
:105AE0002146FBF771FA02468F4BC3F8202209E0EA
:105AF0008D4B0022C3F8202204E08B4B4FF0FF3285
:105B0000C3F82022884BD3E980014FF00002874B75
:105B1000FBF7F4F90346002B18D0834BD3E980013F
:105B20004FF000024FF00003FBF7FCF90346002B97
:105B300009D07D4BD3E9803418462146FBF744FA5F
:105B40000346FB6005E00023FB6002E04FF0FF33FB
:105B5000FB60744BD3F8A444FA68734BD3F8543207
:105B600019461046FCF77DFE0346E31AFB606D4BB9
:105B7000D3F8A424FB689A4201D20023FB606A4B4D
:105B8000D3F85432002B0DD1FB68002B04D1664BA7
:105B90000022C3F82422A2E2634B4FF0FF32C3F885
:105BA00024229CE2604BD3F85432002B06D0FA68D2
:105BB0005D4BD3F85432B2FBF3F301E04FF0FF3307
:105BC000594AC2F82432FA68574BD3F8243256495E
:105BD000D1F8541201FB03F3D31ABB62BB6A002B4A
:105BE00000F07D82504BD3F854325A084E4BD3F814
:105BF000543203F001031344BA6A9A42C0F06F8230
:105C0000494BD3F824320133474AC2F8243266E2C2
:105C1000444B022283F80E25434BD3F848321846F2
:105C2000FAF780FE404BD3E976341A462346FAF75A
:105C30003DFD03460C4644EC173BB0EE470AF0EE40
:105C4000670AFCF73FFFB0EE407AF0EE607A364B21
:105C500083ED807B344BD3E980014FF00002334B5E
:105C6000FBF74CF90346002B18D02F4BD3E98001EA
:105C70004FF000024FF00003FBF754F90346002BEE
:105C800009D0294BD3E9803418462146FBF79CF90B
:105C90000346FB6005E00023FB6002E04FF0FF33AA
:105CA000FB60FB681846FAF73DFE1E4BD3E9FA3459
:105CB0001A462346FAF7B0FE03460C4644EC173B5F
:105CC000B0EE470AF0EE670AFCF7FCFEB0EE407A51
:105CD000F0EE607A144B83ED827B134BD3E98201A3
:105CE0004FF00002114BFBF709F90346002B1FD0C0
:105CF0000D4BD3E982014FF000024FF00003FBF798
:105D000011F90346002B09D0074BD3E9823418461A
:105D10002146FBF759F90346FB600CE00023FB60CA
:105D200009E000BFD0130020181100200000F0414E
